{
    "_format": "hh-sol-artifact-1",
    "contractName": "Dev",
    "sourceName": "contracts/Dev.sol",
    "abi": [
        {
            "inputs": [],
            "stateMutability": "nonpayable",
            "type": "constructor"
        },
        {
            "anonymous": false,
            "inputs": [
                {
                    "indexed": true,
                    "internalType": "address",
                    "name": "owner",
                    "type": "address"
                },
                {
                    "indexed": true,
                    "internalType": "address",
                    "name": "approved",
                    "type": "address"
                },
                {
                    "indexed": true,
                    "internalType": "uint256",
                    "name": "tokenId",
                    "type": "uint256"
                }
            ],
            "name": "Approval",
            "type": "event"
        },
        {
            "anonymous": false,
            "inputs": [
                {
                    "indexed": true,
                    "internalType": "address",
                    "name": "owner",
                    "type": "address"
                },
                {
                    "indexed": true,
                    "internalType": "address",
                    "name": "operator",
                    "type": "address"
                },
                {
                    "indexed": false,
                    "internalType": "bool",
                    "name": "approved",
                    "type": "bool"
                }
            ],
            "name": "ApprovalForAll",
            "type": "event"
        },
        {
            "anonymous": false,
            "inputs": [
                {
                    "indexed": true,
                    "internalType": "address",
                    "name": "previousOwner",
                    "type": "address"
                },
                {
                    "indexed": true,
                    "internalType": "address",
                    "name": "newOwner",
                    "type": "address"
                }
            ],
            "name": "OwnershipTransferred",
            "type": "event"
        },
        {
            "anonymous": false,
            "inputs": [
                {
                    "indexed": true,
                    "internalType": "address",
                    "name": "from",
                    "type": "address"
                },
                {
                    "indexed": true,
                    "internalType": "address",
                    "name": "to",
                    "type": "address"
                },
                {
                    "indexed": true,
                    "internalType": "uint256",
                    "name": "tokenId",
                    "type": "uint256"
                }
            ],
            "name": "Transfer",
            "type": "event"
        },
        {
            "inputs": [
                {
                    "internalType": "address",
                    "name": "to",
                    "type": "address"
                },
                {
                    "internalType": "uint256",
                    "name": "tokenId",
                    "type": "uint256"
                }
            ],
            "name": "approve",
            "outputs": [],
            "stateMutability": "nonpayable",
            "type": "function"
        },
        {
            "inputs": [
                {
                    "internalType": "address",
                    "name": "owner",
                    "type": "address"
                }
            ],
            "name": "balanceOf",
            "outputs": [
                {
                    "internalType": "uint256",
                    "name": "",
                    "type": "uint256"
                }
            ],
            "stateMutability": "view",
            "type": "function"
        },
        {
            "inputs": [
                {
                    "internalType": "uint256",
                    "name": "tokenId",
                    "type": "uint256"
                }
            ],
            "name": "claim",
            "outputs": [],
            "stateMutability": "nonpayable",
            "type": "function"
        },
        {
            "inputs": [
                {
                    "internalType": "uint256",
                    "name": "tokenId",
                    "type": "uint256"
                }
            ],
            "name": "getApproved",
            "outputs": [
                {
                    "internalType": "address",
                    "name": "",
                    "type": "address"
                }
            ],
            "stateMutability": "view",
            "type": "function"
        },
        {
            "inputs": [
                {
                    "internalType": "uint256",
                    "name": "tokenId",
                    "type": "uint256"
                }
            ],
            "name": "getClothing",
            "outputs": [
                {
                    "internalType": "string",
                    "name": "",
                    "type": "string"
                }
            ],
            "stateMutability": "view",
            "type": "function"
        },
        {
            "inputs": [
                {
                    "internalType": "uint256",
                    "name": "tokenId",
                    "type": "uint256"
                }
            ],
            "name": "getIndustry",
            "outputs": [
                {
                    "internalType": "string",
                    "name": "",
                    "type": "string"
                }
            ],
            "stateMutability": "view",
            "type": "function"
        },
        {
            "inputs": [
                {
                    "internalType": "uint256",
                    "name": "tokenId",
                    "type": "uint256"
                }
            ],
            "name": "getLanguage",
            "outputs": [
                {
                    "internalType": "string",
                    "name": "",
                    "type": "string"
                }
            ],
            "stateMutability": "view",
            "type": "function"
        },
        {
            "inputs": [
                {
                    "internalType": "uint256",
                    "name": "tokenId",
                    "type": "uint256"
                }
            ],
            "name": "getLocation",
            "outputs": [
                {
                    "internalType": "string",
                    "name": "",
                    "type": "string"
                }
            ],
            "stateMutability": "view",
            "type": "function"
        },
        {
            "inputs": [
                {
                    "internalType": "uint256",
                    "name": "tokenId",
                    "type": "uint256"
                }
            ],
            "name": "getMind",
            "outputs": [
                {
                    "internalType": "string",
                    "name": "",
                    "type": "string"
                }
            ],
            "stateMutability": "view",
            "type": "function"
        },
        {
            "inputs": [
                {
                    "internalType": "uint256",
                    "name": "tokenId",
                    "type": "uint256"
                }
            ],
            "name": "getOS",
            "outputs": [
                {
                    "internalType": "string",
                    "name": "",
                    "type": "string"
                }
            ],
            "stateMutability": "view",
            "type": "function"
        },
        {
            "inputs": [
                {
                    "internalType": "uint256",
                    "name": "tokenId",
                    "type": "uint256"
                }
            ],
            "name": "getTextEditor",
            "outputs": [
                {
                    "internalType": "string",
                    "name": "",
                    "type": "string"
                }
            ],
            "stateMutability": "view",
            "type": "function"
        },
        {
            "inputs": [
                {
                    "internalType": "uint256",
                    "name": "tokenId",
                    "type": "uint256"
                }
            ],
            "name": "getVibe",
            "outputs": [
                {
                    "internalType": "string",
                    "name": "",
                    "type": "string"
                }
            ],
            "stateMutability": "view",
            "type": "function"
        },
        {
            "inputs": [
                {
                    "internalType": "address",
                    "name": "owner",
                    "type": "address"
                },
                {
                    "internalType": "address",
                    "name": "operator",
                    "type": "address"
                }
            ],
            "name": "isApprovedForAll",
            "outputs": [
                {
                    "internalType": "bool",
                    "name": "",
                    "type": "bool"
                }
            ],
            "stateMutability": "view",
            "type": "function"
        },
        {
            "inputs": [],
            "name": "name",
            "outputs": [
                {
                    "internalType": "string",
                    "name": "",
                    "type": "string"
                }
            ],
            "stateMutability": "view",
            "type": "function"
        },
        {
            "inputs": [],
            "name": "owner",
            "outputs": [
                {
                    "internalType": "address",
                    "name": "",
                    "type": "address"
                }
            ],
            "stateMutability": "view",
            "type": "function"
        },
        {
            "inputs": [
                {
                    "internalType": "uint256",
                    "name": "tokenId",
                    "type": "uint256"
                }
            ],
            "name": "ownerClaim",
            "outputs": [],
            "stateMutability": "nonpayable",
            "type": "function"
        },
        {
            "inputs": [
                {
                    "internalType": "uint256",
                    "name": "tokenId",
                    "type": "uint256"
                }
            ],
            "name": "ownerOf",
            "outputs": [
                {
                    "internalType": "address",
                    "name": "",
                    "type": "address"
                }
            ],
            "stateMutability": "view",
            "type": "function"
        },
        {
            "inputs": [],
            "name": "renounceOwnership",
            "outputs": [],
            "stateMutability": "nonpayable",
            "type": "function"
        },
        {
            "inputs": [
                {
                    "internalType": "address",
                    "name": "from",
                    "type": "address"
                },
                {
                    "internalType": "address",
                    "name": "to",
                    "type": "address"
                },
                {
                    "internalType": "uint256",
                    "name": "tokenId",
                    "type": "uint256"
                }
            ],
            "name": "safeTransferFrom",
            "outputs": [],
            "stateMutability": "nonpayable",
            "type": "function"
        },
        {
            "inputs": [
                {
                    "internalType": "address",
                    "name": "from",
                    "type": "address"
                },
                {
                    "internalType": "address",
                    "name": "to",
                    "type": "address"
                },
                {
                    "internalType": "uint256",
                    "name": "tokenId",
                    "type": "uint256"
                },
                {
                    "internalType": "bytes",
                    "name": "_data",
                    "type": "bytes"
                }
            ],
            "name": "safeTransferFrom",
            "outputs": [],
            "stateMutability": "nonpayable",
            "type": "function"
        },
        {
            "inputs": [
                {
                    "internalType": "address",
                    "name": "operator",
                    "type": "address"
                },
                {
                    "internalType": "bool",
                    "name": "approved",
                    "type": "bool"
                }
            ],
            "name": "setApprovalForAll",
            "outputs": [],
            "stateMutability": "nonpayable",
            "type": "function"
        },
        {
            "inputs": [
                {
                    "internalType": "bytes4",
                    "name": "interfaceId",
                    "type": "bytes4"
                }
            ],
            "name": "supportsInterface",
            "outputs": [
                {
                    "internalType": "bool",
                    "name": "",
                    "type": "bool"
                }
            ],
            "stateMutability": "view",
            "type": "function"
        },
        {
            "inputs": [],
            "name": "symbol",
            "outputs": [
                {
                    "internalType": "string",
                    "name": "",
                    "type": "string"
                }
            ],
            "stateMutability": "view",
            "type": "function"
        },
        {
            "inputs": [
                {
                    "internalType": "uint256",
                    "name": "index",
                    "type": "uint256"
                }
            ],
            "name": "tokenByIndex",
            "outputs": [
                {
                    "internalType": "uint256",
                    "name": "",
                    "type": "uint256"
                }
            ],
            "stateMutability": "view",
            "type": "function"
        },
        {
            "inputs": [
                {
                    "internalType": "address",
                    "name": "owner",
                    "type": "address"
                },
                {
                    "internalType": "uint256",
                    "name": "index",
                    "type": "uint256"
                }
            ],
            "name": "tokenOfOwnerByIndex",
            "outputs": [
                {
                    "internalType": "uint256",
                    "name": "",
                    "type": "uint256"
                }
            ],
            "stateMutability": "view",
            "type": "function"
        },
        {
            "inputs": [
                {
                    "internalType": "uint256",
                    "name": "tokenId",
                    "type": "uint256"
                }
            ],
            "name": "tokenURI",
            "outputs": [
                {
                    "internalType": "string",
                    "name": "",
                    "type": "string"
                }
            ],
            "stateMutability": "view",
            "type": "function"
        },
        {
            "inputs": [],
            "name": "totalSupply",
            "outputs": [
                {
                    "internalType": "uint256",
                    "name": "",
                    "type": "uint256"
                }
            ],
            "stateMutability": "view",
            "type": "function"
        },
        {
            "inputs": [
                {
                    "internalType": "address",
                    "name": "from",
                    "type": "address"
                },
                {
                    "internalType": "address",
                    "name": "to",
                    "type": "address"
                },
                {
                    "internalType": "uint256",
                    "name": "tokenId",
                    "type": "uint256"
                }
            ],
            "name": "transferFrom",
            "outputs": [],
            "stateMutability": "nonpayable",
            "type": "function"
        },
        {
            "inputs": [
                {
                    "internalType": "address",
                    "name": "newOwner",
                    "type": "address"
                }
            ],
            "name": "transferOwnership",
            "outputs": [],
            "stateMutability": "nonpayable",
            "type": "function"
        }
    ],
    "bytecode": "0x6080604052604051806101c001604052806040518060400160405280600a81526020017f4b616c69204c696e75780000000000000000000000000000000000000000000081525081526020016040518060400160405280600681526020017f5562756e7475000000000000000000000000000000000000000000000000000081525081526020016040518060400160405280600b81526020017f57696e646f777320312e3000000000000000000000000000000000000000000081525081526020016040518060400160405280601381526020017f416e64726f6964204d617273686d616c6c6f770000000000000000000000000081525081526020016040518060400160405280600a81526020017f57696e646f77732039350000000000000000000000000000000000000000000081525081526020016040518060400160405280600781526020017f467265654253440000000000000000000000000000000000000000000000000081525081526020016040518060400160405280600f81526020017f536c61636b77617265204c696e7578000000000000000000000000000000000081525081526020016040518060400160405280600b81526020017f4368726f6d69756d204f5300000000000000000000000000000000000000000081525081526020016040518060400160405280600d81526020017f57696e646f77732056697374610000000000000000000000000000000000000081525081526020016040518060400160405280601081526020017f476f6f676c65204368726f6d65204f530000000000000000000000000000000081525081526020016040518060400160405280600581526020017f6d61634f5300000000000000000000000000000000000000000000000000000081525081526020016040518060400160405280600381526020017f444f53000000000000000000000000000000000000000000000000000000000081525081526020016040518060400160405280600a81526020017f4c696e7578204d696e740000000000000000000000000000000000000000000081525081526020016040518060400160405280600a81526020017f474d2d4e414120492f4f00000000000000000000000000000000000000000000815250815250600c90600e6200035a92919062001d8d565b50604051806101e001604052806040518060400160405280600781526020017f565320436f64650000000000000000000000000000000000000000000000000081525081526020016040518060400160405280600881526020017f427261636b65747300000000000000000000000000000000000000000000000081525081526020016040518060400160405280600381526020017f56494d000000000000000000000000000000000000000000000000000000000081525081526020016040518060400160405280600581526020017f456d61637300000000000000000000000000000000000000000000000000000081525081526020016040518060400160405280600881526020017f427261636b65747300000000000000000000000000000000000000000000000081525081526020016040518060400160405280600481526020017f41746f6d0000000000000000000000000000000000000000000000000000000081525081526020016040518060400160405280600981526020017f4e6f74657061642b2b000000000000000000000000000000000000000000000081525081526020016040518060400160405280600d81526020017f50656e20616e642050617065720000000000000000000000000000000000000081525081526020016040518060400160405280600d81526020017f56697375616c2053747564696f0000000000000000000000000000000000000081525081526020016040518060400160405280600e81526020017f53616e6420616e6420537469636b00000000000000000000000000000000000081525081526020016040518060400160405280601081526020017f4d656e74616c2054656c6570617468790000000000000000000000000000000081525081526020016040518060400160405280600881526020017f426c75656669736800000000000000000000000000000000000000000000000081525081526020016040518060400160405280600c81526020017f5375626c696d652054657874000000000000000000000000000000000000000081525081526020016040518060400160405280600b81526020017f447265616d77656176657200000000000000000000000000000000000000000081525081526020016040518060400160405280600481526020017f436f646100000000000000000000000000000000000000000000000000000000815250815250600d90600f620006ec92919062001df4565b50604051806101c001604052806040518060400160405280600c81526020017f426c61636b20486f6f646965000000000000000000000000000000000000000081525081526020016040518060400160405280600d81526020017f57686974652054616e6b746f700000000000000000000000000000000000000081525081526020016040518060400160405280600e81526020017f50617461676f6e6961205665737400000000000000000000000000000000000081525081526020016040518060400160405280600c81526020017f436f6e666572656e63652054000000000000000000000000000000000000000081525081526020016040518060400160405280600b81526020017f426c61636b6564204f757400000000000000000000000000000000000000000081525081526020016040518060400160405280600c81526020017f42756c6c73204a6572736579000000000000000000000000000000000000000081525081526020016040518060400160405280600b81526020017f50696e6b20486f6f64696500000000000000000000000000000000000000000081525081526020016040518060400160405280601181526020017f507572706c6520547572746c656e65636b00000000000000000000000000000081525081526020016040518060400160405280600381526020017f427261000000000000000000000000000000000000000000000000000000000081525081526020016040518060400160405280600981526020017f4e6176792053756974000000000000000000000000000000000000000000000081525081526020016040518060400160405280600c81526020017f507572706c65204472657373000000000000000000000000000000000000000081525081526020016040518060400160405280601381526020017f506c6174696e756d205472656e6368636f61740000000000000000000000000081525081526020016040518060400160405280601281526020017f427562626c652047756d2057726170706572000000000000000000000000000081525081526020016040518060400160405280600581526020017f5377656174000000000000000000000000000000000000000000000000000000815250815250600e90600e62000a4392919062001d8d565b506040518061030001604052806040518060400160405280600a81526020017f547970655363726970740000000000000000000000000000000000000000000081525081526020016040518060400160405280600a81526020017f4a6176615363726970740000000000000000000000000000000000000000000081525081526020016040518060400160405280600681526020017f507974686f6e000000000000000000000000000000000000000000000000000081525081526020016040518060400160405280600781526020017f466f727472616e0000000000000000000000000000000000000000000000000081525081526020016040518060400160405280600581526020017f434f424f4c00000000000000000000000000000000000000000000000000000081525081526020016040518060400160405280600281526020017f476f00000000000000000000000000000000000000000000000000000000000081525081526020016040518060400160405280600481526020017f527573740000000000000000000000000000000000000000000000000000000081525081526020016040518060400160405280600581526020017f537769667400000000000000000000000000000000000000000000000000000081525081526020016040518060400160405280600381526020017f504850000000000000000000000000000000000000000000000000000000000081525081526020016040518060400160405280600781526020017f4861736b656c6c0000000000000000000000000000000000000000000000000081525081526020016040518060400160405280600581526020017f5363616c6100000000000000000000000000000000000000000000000000000081525081526020016040518060400160405280600481526020017f446172740000000000000000000000000000000000000000000000000000000081525081526020016040518060400160405280600481526020017f4a6176610000000000000000000000000000000000000000000000000000000081525081526020016040518060400160405280600581526020017f4a756c696100000000000000000000000000000000000000000000000000000081525081526020016040518060400160405280600181526020017f430000000000000000000000000000000000000000000000000000000000000081525081526020016040518060400160405280600681526020017f4b6f746c696e000000000000000000000000000000000000000000000000000081525081526020016040518060400160405280600681526020017f56656c61746f000000000000000000000000000000000000000000000000000081525081526020016040518060400160405280600781526020017f41726e6f6c64430000000000000000000000000000000000000000000000000081525081526020016040518060400160405280600b81526020017f5368616b6573706561726500000000000000000000000000000000000000000081525081526020016040518060400160405280600481526020017f506965740000000000000000000000000000000000000000000000000000000081525081526020016040518060400160405280600981526020017f427261696e6675636b000000000000000000000000000000000000000000000081525081526020016040518060400160405280600781526020017f436869636b656e0000000000000000000000000000000000000000000000000081525081526020016040518060400160405280600581526020017f4c6567697400000000000000000000000000000000000000000000000000000081525081526020016040518060400160405280600a81526020017f5768697465737061636500000000000000000000000000000000000000000000815250815250600f90601862000fe892919062001e5b565b50604051806101e001604052806040518060400160405280600a81526020017f476f7665726e6d656e740000000000000000000000000000000000000000000081525081526020016040518060400160405280600981526020017f426c61636b20486174000000000000000000000000000000000000000000000081525081526020016040518060400160405280600981526020017f576869746520486174000000000000000000000000000000000000000000000081525081526020016040518060400160405280600981526020017f4e6f6e70726f666974000000000000000000000000000000000000000000000081525081526020016040518060400160405280601081526020017f4d6f6e6579204c61756e646572696e670000000000000000000000000000000081525081526020016040518060400160405280600681526020017f43727970746f000000000000000000000000000000000000000000000000000081525081526020016040518060400160405280600581526020017f4641414e4700000000000000000000000000000000000000000000000000000081525081526020016040518060400160405280600a81526020017f414920537461727475700000000000000000000000000000000000000000000081525081526020016040518060400160405280600281526020017f565200000000000000000000000000000000000000000000000000000000000081525081526020016040518060400160405280601481526020017f54726176656c696e6720436f6e73756c74616e7400000000000000000000000081525081526020016040518060400160405280600a81526020017f556e646572636f7665720000000000000000000000000000000000000000000081525081526020016040518060400160405280600781526020017f4661726d696e670000000000000000000000000000000000000000000000000081525081526020016040518060400160405280600d81526020017f456e7669726f6e6d656e74616c0000000000000000000000000000000000000081525081526020016040518060400160405280600981526020017f486f6c6c79776f6f64000000000000000000000000000000000000000000000081525081526020016040518060400160405280600a81526020017f496e666c75656e63657200000000000000000000000000000000000000000000815250815250601090600f6200137a92919062001df4565b506040518061024001604052806040518060400160405280600981526020017f427563686172657374000000000000000000000000000000000000000000000081525081526020016040518060400160405280600981526020017f486f6e67204b6f6e67000000000000000000000000000000000000000000000081525081526020016040518060400160405280600781526020017f4a61636b736f6e0000000000000000000000000000000000000000000000000081525081526020016040518060400160405280600881526020017f427564617065737400000000000000000000000000000000000000000000000081525081526020016040518060400160405280600981526020017f53616f205061756c6f000000000000000000000000000000000000000000000081525081526020016040518060400160405280600581526020017f4c61676f7300000000000000000000000000000000000000000000000000000081525081526020016040518060400160405280600581526020017f4f6d61686100000000000000000000000000000000000000000000000000000081525081526020016040518060400160405280600a81526020017f476f6c6420436f6173740000000000000000000000000000000000000000000081525081526020016040518060400160405280600581526020017f506172697300000000000000000000000000000000000000000000000000000081525081526020016040518060400160405280600581526020017f546f6b796f00000000000000000000000000000000000000000000000000000081525081526020016040518060400160405280600881526020017f5368656e7a68656e00000000000000000000000000000000000000000000000081525081526020016040518060400160405280601081526020017f5361696e7420506574657273627572670000000000000000000000000000000081525081526020016040518060400160405280600c81526020017f4275656e6f73204169726573000000000000000000000000000000000000000081525081526020016040518060400160405280600681526020017f4b6973756d75000000000000000000000000000000000000000000000000000081525081526020016040518060400160405280600881526020017f52616d616c6c616800000000000000000000000000000000000000000000000081525081526020016040518060400160405280600381526020017f476f61000000000000000000000000000000000000000000000000000000000081525081526020016040518060400160405280600681526020017f4c6f6e646f6e000000000000000000000000000000000000000000000000000081525081526020016040518060400160405280600981526020017f50796f6e6779616e6700000000000000000000000000000000000000000000008152508152506011906012620017bd92919062001ec2565b506040518061010001604052806040518060400160405280600881526020017f416273747261637400000000000000000000000000000000000000000000000081525081526020016040518060400160405280600a81526020017f416e616c79746963616c0000000000000000000000000000000000000000000081525081526020016040518060400160405280600881526020017f437265617469766500000000000000000000000000000000000000000000000081525081526020016040518060400160405280600881526020017f436f6e637265746500000000000000000000000000000000000000000000000081525081526020016040518060400160405280600881526020017f437269746963616c00000000000000000000000000000000000000000000000081525081526020016040518060400160405280600a81526020017f436f6e76657267656e740000000000000000000000000000000000000000000081525081526020016040518060400160405280600981526020017f446976657267656e74000000000000000000000000000000000000000000000081525081526020016040518060400160405280600981526020017f416e6172636869737400000000000000000000000000000000000000000000008152508152506012906008620019b292919062001f29565b506040518061012001604052806040518060400160405280600881526020017f4f7074696d69737400000000000000000000000000000000000000000000000081525081526020016040518060400160405280600681526020017f436f736d6963000000000000000000000000000000000000000000000000000081525081526020016040518060400160405280600581526020017f4368696c6c00000000000000000000000000000000000000000000000000000081525081526020016040518060400160405280600581526020017f487970657200000000000000000000000000000000000000000000000000000081525081526020016040518060400160405280600481526020017f4b696e640000000000000000000000000000000000000000000000000000000081525081526020016040518060400160405280600581526020017f486174657200000000000000000000000000000000000000000000000000000081525081526020016040518060400160405280600681526020017f50686f626961000000000000000000000000000000000000000000000000000081525081526020016040518060400160405280600881526020017f47656e65726f757300000000000000000000000000000000000000000000000081525081526020016040518060400160405280600781526020017f4a6f6e476f6c6400000000000000000000000000000000000000000000000000815250815250601390600962001be292919062001f90565b5034801562001bf057600080fd5b506040518060400160405280601381526020017f4465767320666f72205265766f6c7574696f6e000000000000000000000000008152506040518060400160405280600481526020017f4445565300000000000000000000000000000000000000000000000000000000815250816000908051906020019062001c7592919062001ff7565b50806001908051906020019062001c8e92919062001ff7565b5050506001600a8190555062001cb962001cad62001cbf60201b60201c565b62001cc760201b60201c565b6200217a565b600033905090565b6000600b60009054906101000a900473ffffffffffffffffffffffffffffffffffffffff16905081600b60006101000a81548173ffffffffffffffffffffffffffffffffffffffff021916908373ffffffffffffffffffffffffffffffffffffffff1602179055508173ffffffffffffffffffffffffffffffffffffffff168173ffffffffffffffffffffffffffffffffffffffff167f8be0079c531659141344cd1fd0a4f28419497f9722a3daafe3b4186f6b6457e060405160405180910390a35050565b82805482825590600052602060002090810192821562001de1579160200282015b8281111562001de057825182908051906020019062001dcf92919062001ff7565b509160200191906001019062001dae565b5b50905062001df0919062002088565b5090565b82805482825590600052602060002090810192821562001e48579160200282015b8281111562001e4757825182908051906020019062001e3692919062001ff7565b509160200191906001019062001e15565b5b50905062001e57919062002088565b5090565b82805482825590600052602060002090810192821562001eaf579160200282015b8281111562001eae57825182908051906020019062001e9d92919062001ff7565b509160200191906001019062001e7c565b5b50905062001ebe919062002088565b5090565b82805482825590600052602060002090810192821562001f16579160200282015b8281111562001f1557825182908051906020019062001f0492919062001ff7565b509160200191906001019062001ee3565b5b50905062001f25919062002088565b5090565b82805482825590600052602060002090810192821562001f7d579160200282015b8281111562001f7c57825182908051906020019062001f6b92919062001ff7565b509160200191906001019062001f4a565b5b50905062001f8c919062002088565b5090565b82805482825590600052602060002090810192821562001fe4579160200282015b8281111562001fe357825182908051906020019062001fd292919062001ff7565b509160200191906001019062001fb1565b5b50905062001ff3919062002088565b5090565b828054620020059062002115565b90600052602060002090601f01602090048101928262002029576000855562002075565b82601f106200204457805160ff191683800117855562002075565b8280016001018555821562002075579182015b828111156200207457825182559160200191906001019062002057565b5b509050620020849190620020b0565b5090565b5b80821115620020ac5760008181620020a29190620020cf565b5060010162002089565b5090565b5b80821115620020cb576000816000905550600101620020b1565b5090565b508054620020dd9062002115565b6000825580601f10620020f1575062002112565b601f016020900490600052602060002090810190620021119190620020b0565b5b50565b600060028204905060018216806200212e57607f821691505b602082108114156200214557620021446200214b565b5b50919050565b7f4e487b7100000000000000000000000000000000000000000000000000000000600052602260045260246000fd5b6153bb806200218a6000396000f3fe608060405234801561001057600080fd5b50600436106101cf5760003560e01c80636352211e11610104578063b88d4fde116100a2578063e440628c11610071578063e440628c1461058a578063e985e9c5146105ba578063f2fde38b146105ea578063f700e6e114610606576101cf565b8063b88d4fde146104de578063c099558f146104fa578063c8734b0a1461052a578063c87b56dd1461055a576101cf565b80637f7b1393116100de5780637f7b1393146104565780638da5cb5b1461048657806395d89b41146104a4578063a22cb465146104c2576101cf565b80636352211e146103ec57806370a082311461041c578063715018a61461044c576101cf565b806323b872dd1161017157806342842e0e1161014b57806342842e0e14610354578063434f48c4146103705780634de4cd991461038c5780634f6ccce7146103bc576101cf565b806323b872dd146102ec5780632f745c5914610308578063379607f514610338576101cf565b8063095ea7b3116101ad578063095ea7b3146102525780630a0eff0d1461026e5780630ec6cd181461029e57806318160ddd146102ce576101cf565b806301ffc9a7146101d457806306fdde0314610204578063081812fc14610222575b600080fd5b6101ee60048036038101906101e99190613cd2565b610636565b6040516101fb9190614363565b60405180910390f35b61020c6106b0565b604051610219919061437e565b60405180910390f35b61023c60048036038101906102379190613d24565b610742565b60405161024991906142fc565b60405180910390f35b61026c60048036038101906102679190613c96565b6107c7565b005b61028860048036038101906102839190613d24565b6108df565b604051610295919061437e565b60405180910390f35b6102b860048036038101906102b39190613d24565b6109f9565b6040516102c5919061437e565b60405180910390f35b6102d6610b13565b6040516102e39190614600565b60405180910390f35b61030660048036038101906103019190613b90565b610b20565b005b610322600480360381019061031d9190613c96565b610b80565b60405161032f9190614600565b60405180910390f35b610352600480360381019061034d9190613d24565b610c25565b005b61036e60048036038101906103699190613b90565b610cdf565b005b61038a60048036038101906103859190613d24565b610cff565b005b6103a660048036038101906103a19190613d24565b610e36565b6040516103b3919061437e565b60405180910390f35b6103d660048036038101906103d19190613d24565b610f50565b6040516103e39190614600565b60405180910390f35b61040660048036038101906104019190613d24565b610fe7565b60405161041391906142fc565b60405180910390f35b61043660048036038101906104319190613b2b565b611099565b6040516104439190614600565b60405180910390f35b610454611151565b005b610470600480360381019061046b9190613d24565b6111d9565b60405161047d919061437e565b60405180910390f35b61048e6112f3565b60405161049b91906142fc565b60405180910390f35b6104ac61131d565b6040516104b9919061437e565b60405180910390f35b6104dc60048036038101906104d79190613c5a565b6113af565b005b6104f860048036038101906104f39190613bdf565b611530565b005b610514600480360381019061050f9190613d24565b611592565b604051610521919061437e565b60405180910390f35b610544600480360381019061053f9190613d24565b6116ac565b604051610551919061437e565b60405180910390f35b610574600480360381019061056f9190613d24565b6117c6565b604051610581919061437e565b60405180910390f35b6105a4600480360381019061059f9190613d24565b6122e8565b6040516105b1919061437e565b60405180910390f35b6105d460048036038101906105cf9190613b54565b612402565b6040516105e19190614363565b60405180910390f35b61060460048036038101906105ff9190613b2b565b612496565b005b610620600480360381019061061b9190613d24565b61258e565b60405161062d919061437e565b60405180910390f35b60007f780e9d63000000000000000000000000000000000000000000000000000000007bffffffffffffffffffffffffffffffffffffffffffffffffffffffff1916827bffffffffffffffffffffffffffffffffffffffffffffffffffffffff191614806106a957506106a8826126a8565b5b9050919050565b6060600080546106bf9061487f565b80601f01602080910402602001604051908101604052809291908181526020018280546106eb9061487f565b80156107385780601f1061070d57610100808354040283529160200191610738565b820191906000526020600020905b81548152906001019060200180831161071b57829003601f168201915b5050505050905090565b600061074d8261278a565b61078c576040517f08c379a000000000000000000000000000000000000000000000000000000000815260040161078390614500565b60405180910390fd5b6004600083815260200190815260200160002060009054906101000a900473ffffffffffffffffffffffffffffffffffffffff169050919050565b60006107d282610fe7565b90508073ffffffffffffffffffffffffffffffffffffffff168373ffffffffffffffffffffffffffffffffffffffff161415610843576040517f08c379a000000000000000000000000000000000000000000000000000000000815260040161083a90614580565b60405180910390fd5b8073ffffffffffffffffffffffffffffffffffffffff166108626127f6565b73ffffffffffffffffffffffffffffffffffffffff16148061089157506108908161088b6127f6565b612402565b5b6108d0576040517f08c379a00000000000000000000000000000000000000000000000000000000081526004016108c790614480565b60405180910390fd5b6108da83836127fe565b505050565b60606109f2826040518060400160405280600a81526020017f54455854454449544f5200000000000000000000000000000000000000000000815250600d805480602002602001604051908101604052809291908181526020016000905b828210156109e957838290600052602060002001805461095c9061487f565b80601f01602080910402602001604051908101604052809291908181526020018280546109889061487f565b80156109d55780601f106109aa576101008083540402835291602001916109d5565b820191906000526020600020905b8154815290600101906020018083116109b857829003601f168201915b50505050508152602001906001019061093d565b505050506128b7565b9050919050565b6060610b0c826040518060400160405280600481526020017f56494245000000000000000000000000000000000000000000000000000000008152506013805480602002602001604051908101604052809291908181526020016000905b82821015610b03578382906000526020600020018054610a769061487f565b80601f0160208091040260200160405190810160405280929190818152602001828054610aa29061487f565b8015610aef5780601f10610ac457610100808354040283529160200191610aef565b820191906000526020600020905b815481529060010190602001808311610ad257829003601f168201915b505050505081526020019060010190610a57565b505050506128b7565b9050919050565b6000600880549050905090565b610b31610b2b6127f6565b8261294c565b610b70576040517f08c379a0000000000000000000000000000000000000000000000000000000008152600401610b67906145a0565b60405180910390fd5b610b7b838383612a2a565b505050565b6000610b8b83611099565b8210610bcc576040517f08c379a0000000000000000000000000000000000000000000000000000000008152600401610bc3906143a0565b60405180910390fd5b600660008473ffffffffffffffffffffffffffffffffffffffff1673ffffffffffffffffffffffffffffffffffffffff168152602001908152602001600020600083815260200190815260200160002054905092915050565b6002600a541415610c6b576040517f08c379a0000000000000000000000000000000000000000000000000000000008152600401610c62906145e0565b60405180910390fd5b6002600a81905550600081118015610c845750611e6281105b610cc3576040517f08c379a0000000000000000000000000000000000000000000000000000000008152600401610cba90614540565b60405180910390fd5b610cd4610cce6127f6565b82612c86565b6001600a8190555050565b610cfa83838360405180602001604052806000815250611530565b505050565b6002600a541415610d45576040517f08c379a0000000000000000000000000000000000000000000000000000000008152600401610d3c906145e0565b60405180910390fd5b6002600a81905550610d556127f6565b73ffffffffffffffffffffffffffffffffffffffff16610d736112f3565b73ffffffffffffffffffffffffffffffffffffffff1614610dc9576040517f08c379a0000000000000000000000000000000000000000000000000000000008152600401610dc090614520565b60405180910390fd5b611e6181118015610ddb5750611f4181105b610e1a576040517f08c379a0000000000000000000000000000000000000000000000000000000008152600401610e1190614540565b60405180910390fd5b610e2b610e256112f3565b82612c86565b6001600a8190555050565b6060610f49826040518060400160405280600281526020017f4f53000000000000000000000000000000000000000000000000000000000000815250600c805480602002602001604051908101604052809291908181526020016000905b82821015610f40578382906000526020600020018054610eb39061487f565b80601f0160208091040260200160405190810160405280929190818152602001828054610edf9061487f565b8015610f2c5780601f10610f0157610100808354040283529160200191610f2c565b820191906000526020600020905b815481529060010190602001808311610f0f57829003601f168201915b505050505081526020019060010190610e94565b505050506128b7565b9050919050565b6000610f5a610b13565b8210610f9b576040517f08c379a0000000000000000000000000000000000000000000000000000000008152600401610f92906145c0565b60405180910390fd5b60088281548110610fd5577f4e487b7100000000000000000000000000000000000000000000000000000000600052603260045260246000fd5b90600052602060002001549050919050565b6000806002600084815260200190815260200160002060009054906101000a900473ffffffffffffffffffffffffffffffffffffffff169050600073ffffffffffffffffffffffffffffffffffffffff168173ffffffffffffffffffffffffffffffffffffffff161415611090576040517f08c379a0000000000000000000000000000000000000000000000000000000008152600401611087906144c0565b60405180910390fd5b80915050919050565b60008073ffffffffffffffffffffffffffffffffffffffff168273ffffffffffffffffffffffffffffffffffffffff16141561110a576040517f08c379a0000000000000000000000000000000000000000000000000000000008152600401611101906144a0565b60405180910390fd5b600360008373ffffffffffffffffffffffffffffffffffffffff1673ffffffffffffffffffffffffffffffffffffffff168152602001908152602001600020549050919050565b6111596127f6565b73ffffffffffffffffffffffffffffffffffffffff166111776112f3565b73ffffffffffffffffffffffffffffffffffffffff16146111cd576040517f08c379a00000000000000000000000000000000000000000000000000000000081526004016111c490614520565b60405180910390fd5b6111d76000612ca4565b565b60606112ec826040518060400160405280600881526020017f4c4f434154494f4e0000000000000000000000000000000000000000000000008152506011805480602002602001604051908101604052809291908181526020016000905b828210156112e35783829060005260206000200180546112569061487f565b80601f01602080910402602001604051908101604052809291908181526020018280546112829061487f565b80156112cf5780601f106112a4576101008083540402835291602001916112cf565b820191906000526020600020905b8154815290600101906020018083116112b257829003601f168201915b505050505081526020019060010190611237565b505050506128b7565b9050919050565b6000600b60009054906101000a900473ffffffffffffffffffffffffffffffffffffffff16905090565b60606001805461132c9061487f565b80601f01602080910402602001604051908101604052809291908181526020018280546113589061487f565b80156113a55780601f1061137a576101008083540402835291602001916113a5565b820191906000526020600020905b81548152906001019060200180831161138857829003601f168201915b5050505050905090565b6113b76127f6565b73ffffffffffffffffffffffffffffffffffffffff168273ffffffffffffffffffffffffffffffffffffffff161415611425576040517f08c379a000000000000000000000000000000000000000000000000000000000815260040161141c90614440565b60405180910390fd5b80600560006114326127f6565b73ffffffffffffffffffffffffffffffffffffffff1673ffffffffffffffffffffffffffffffffffffffff16815260200190815260200160002060008473ffffffffffffffffffffffffffffffffffffffff1673ffffffffffffffffffffffffffffffffffffffff16815260200190815260200160002060006101000a81548160ff0219169083151502179055508173ffffffffffffffffffffffffffffffffffffffff166114df6127f6565b73ffffffffffffffffffffffffffffffffffffffff167f17307eab39ab6107e8899845ad3d59bd9653f200f220920489ca2b5937696c31836040516115249190614363565b60405180910390a35050565b61154161153b6127f6565b8361294c565b611580576040517f08c379a0000000000000000000000000000000000000000000000000000000008152600401611577906145a0565b60405180910390fd5b61158c84848484612d6a565b50505050565b60606116a5826040518060400160405280600881526020017f434c4f5448494e47000000000000000000000000000000000000000000000000815250600e805480602002602001604051908101604052809291908181526020016000905b8282101561169c57838290600052602060002001805461160f9061487f565b80601f016020809104026020016040519081016040528092919081815260200182805461163b9061487f565b80156116885780601f1061165d57610100808354040283529160200191611688565b820191906000526020600020905b81548152906001019060200180831161166b57829003601f168201915b5050505050815260200190600101906115f0565b505050506128b7565b9050919050565b60606117bf826040518060400160405280600481526020017f4d494e44000000000000000000000000000000000000000000000000000000008152506012805480602002602001604051908101604052809291908181526020016000905b828210156117b65783829060005260206000200180546117299061487f565b80601f01602080910402602001604051908101604052809291908181526020018280546117559061487f565b80156117a25780601f10611777576101008083540402835291602001916117a2565b820191906000526020600020905b81548152906001019060200180831161178557829003601f168201915b50505050508152602001906001019061170a565b505050506128b7565b9050919050565b60606117d0613a32565b60405180610120016040528060fd815260200161528960fd913981600060138110611824577f4e487b7100000000000000000000000000000000000000000000000000000000600052603260045260246000fd5b602002018190525061183583610e36565b8160016013811061186f577f4e487b7100000000000000000000000000000000000000000000000000000000600052603260045260246000fd5b602002018190525060405180606001604052806028815260200161526160289139816002601381106118ca577f4e487b7100000000000000000000000000000000000000000000000000000000600052603260045260246000fd5b60200201819052506118db836108df565b81600360138110611915577f4e487b7100000000000000000000000000000000000000000000000000000000600052603260045260246000fd5b602002018190525060405180606001604052806028815260200161512d6028913981600460138110611970577f4e487b7100000000000000000000000000000000000000000000000000000000600052603260045260246000fd5b602002018190525061198183611592565b816005601381106119bb577f4e487b7100000000000000000000000000000000000000000000000000000000600052603260045260246000fd5b60200201819052506040518060600160405280602881526020016151a76028913981600660138110611a16577f4e487b7100000000000000000000000000000000000000000000000000000000600052603260045260246000fd5b6020020181905250611a278361258e565b81600760138110611a61577f4e487b7100000000000000000000000000000000000000000000000000000000600052603260045260246000fd5b60200201819052506040518060600160405280602981526020016151cf6029913981600860138110611abc577f4e487b7100000000000000000000000000000000000000000000000000000000600052603260045260246000fd5b6020020181905250611acd836122e8565b81600960138110611b07577f4e487b7100000000000000000000000000000000000000000000000000000000600052603260045260246000fd5b602002018190525060405180606001604052806029815260200161517e6029913981600a60138110611b62577f4e487b7100000000000000000000000000000000000000000000000000000000600052603260045260246000fd5b6020020181905250611b73836111d9565b81600b60138110611bad577f4e487b7100000000000000000000000000000000000000000000000000000000600052603260045260246000fd5b60200201819052506040518060600160405280602981526020016151f86029913981600e60138110611c08577f4e487b7100000000000000000000000000000000000000000000000000000000600052603260045260246000fd5b6020020181905250611c19836116ac565b81600f60138110611c53577f4e487b7100000000000000000000000000000000000000000000000000000000600052603260045260246000fd5b60200201819052506040518060600160405280602981526020016151556029913981601060138110611cae577f4e487b7100000000000000000000000000000000000000000000000000000000600052603260045260246000fd5b6020020181905250611cbf836109f9565b81601160138110611cf9577f4e487b7100000000000000000000000000000000000000000000000000000000600052603260045260246000fd5b60200201819052506040518060400160405280600d81526020017f3c2f746578743e3c2f7376673e0000000000000000000000000000000000000081525081601260138110611d71577f4e487b7100000000000000000000000000000000000000000000000000000000600052603260045260246000fd5b6020020181905250600081600060138110611db5577f4e487b7100000000000000000000000000000000000000000000000000000000600052603260045260246000fd5b602002015182600160138110611df4577f4e487b7100000000000000000000000000000000000000000000000000000000600052603260045260246000fd5b602002015183600260138110611e33577f4e487b7100000000000000000000000000000000000000000000000000000000600052603260045260246000fd5b602002015184600360138110611e72577f4e487b7100000000000000000000000000000000000000000000000000000000600052603260045260246000fd5b602002015185600460138110611eb1577f4e487b7100000000000000000000000000000000000000000000000000000000600052603260045260246000fd5b602002015186600560138110611ef0577f4e487b7100000000000000000000000000000000000000000000000000000000600052603260045260246000fd5b602002015187600660138110611f2f577f4e487b7100000000000000000000000000000000000000000000000000000000600052603260045260246000fd5b602002015188600760138110611f6e577f4e487b7100000000000000000000000000000000000000000000000000000000600052603260045260246000fd5b602002015189600860138110611fad577f4e487b7100000000000000000000000000000000000000000000000000000000600052603260045260246000fd5b6020020151604051602001611fca9998979695949392919061417d565b60405160208183030381529060405290508082600960138110612016577f4e487b7100000000000000000000000000000000000000000000000000000000600052603260045260246000fd5b602002015183600a60138110612055577f4e487b7100000000000000000000000000000000000000000000000000000000600052603260045260246000fd5b602002015184600b60138110612094577f4e487b7100000000000000000000000000000000000000000000000000000000600052603260045260246000fd5b602002015185600c601381106120d3577f4e487b7100000000000000000000000000000000000000000000000000000000600052603260045260246000fd5b602002015186600d60138110612112577f4e487b7100000000000000000000000000000000000000000000000000000000600052603260045260246000fd5b602002015187600e60138110612151577f4e487b7100000000000000000000000000000000000000000000000000000000600052603260045260246000fd5b602002015188600f60138110612190577f4e487b7100000000000000000000000000000000000000000000000000000000600052603260045260246000fd5b6020020151896010601381106121cf577f4e487b7100000000000000000000000000000000000000000000000000000000600052603260045260246000fd5b60200201518a60116013811061220e577f4e487b7100000000000000000000000000000000000000000000000000000000600052603260045260246000fd5b60200201518b60126013811061224d577f4e487b7100000000000000000000000000000000000000000000000000000000600052603260045260246000fd5b602002015160405160200161226c9b9a999897969594939291906141fc565b604051602081830303815290604052905060006122b961228b86612dc6565b61229484612f73565b6040516020016122a5929190614295565b604051602081830303815290604052612f73565b9050806040516020016122cc91906142da565b6040516020818303038152906040529150819350505050919050565b60606123fb826040518060400160405280600881526020017f494e4455535452590000000000000000000000000000000000000000000000008152506010805480602002602001604051908101604052809291908181526020016000905b828210156123f25783829060005260206000200180546123659061487f565b80601f01602080910402602001604051908101604052809291908181526020018280546123919061487f565b80156123de5780601f106123b3576101008083540402835291602001916123de565b820191906000526020600020905b8154815290600101906020018083116123c157829003601f168201915b505050505081526020019060010190612346565b505050506128b7565b9050919050565b6000600560008473ffffffffffffffffffffffffffffffffffffffff1673ffffffffffffffffffffffffffffffffffffffff16815260200190815260200160002060008373ffffffffffffffffffffffffffffffffffffffff1673ffffffffffffffffffffffffffffffffffffffff16815260200190815260200160002060009054906101000a900460ff16905092915050565b61249e6127f6565b73ffffffffffffffffffffffffffffffffffffffff166124bc6112f3565b73ffffffffffffffffffffffffffffffffffffffff1614612512576040517f08c379a000000000000000000000000000000000000000000000000000000000815260040161250990614520565b60405180910390fd5b600073ffffffffffffffffffffffffffffffffffffffff168173ffffffffffffffffffffffffffffffffffffffff161415612582576040517f08c379a0000000000000000000000000000000000000000000000000000000008152600401612579906143e0565b60405180910390fd5b61258b81612ca4565b50565b60606126a1826040518060400160405280600881526020017f4c414e4755414745000000000000000000000000000000000000000000000000815250600f805480602002602001604051908101604052809291908181526020016000905b8282101561269857838290600052602060002001805461260b9061487f565b80601f01602080910402602001604051908101604052809291908181526020018280546126379061487f565b80156126845780601f1061265957610100808354040283529160200191612684565b820191906000526020600020905b81548152906001019060200180831161266757829003601f168201915b5050505050815260200190600101906125ec565b505050506128b7565b9050919050565b60007f80ac58cd000000000000000000000000000000000000000000000000000000007bffffffffffffffffffffffffffffffffffffffffffffffffffffffff1916827bffffffffffffffffffffffffffffffffffffffffffffffffffffffff1916148061277357507f5b5e139f000000000000000000000000000000000000000000000000000000007bffffffffffffffffffffffffffffffffffffffffffffffffffffffff1916827bffffffffffffffffffffffffffffffffffffffffffffffffffffffff1916145b80612783575061278282613131565b5b9050919050565b60008073ffffffffffffffffffffffffffffffffffffffff166002600084815260200190815260200160002060009054906101000a900473ffffffffffffffffffffffffffffffffffffffff1673ffffffffffffffffffffffffffffffffffffffff1614159050919050565b600033905090565b816004600083815260200190815260200160002060006101000a81548173ffffffffffffffffffffffffffffffffffffffff021916908373ffffffffffffffffffffffffffffffffffffffff160217905550808273ffffffffffffffffffffffffffffffffffffffff1661287183610fe7565b73ffffffffffffffffffffffffffffffffffffffff167f8c5be1e5ebec7d5bd14f71427d1e84f3dd0314c0f7b2291e5b200ac8c7c3b92560405160405180910390a45050565b606060006128ed846128c887612dc6565b6040516020016128d9929190614159565b60405160208183030381529060405261319b565b90506000838451836128ff919061492b565b81518110612936577f4e487b7100000000000000000000000000000000000000000000000000000000600052603260045260246000fd5b6020026020010151905080925050509392505050565b60006129578261278a565b612996576040517f08c379a000000000000000000000000000000000000000000000000000000000815260040161298d90614460565b60405180910390fd5b60006129a183610fe7565b90508073ffffffffffffffffffffffffffffffffffffffff168473ffffffffffffffffffffffffffffffffffffffff161480612a1057508373ffffffffffffffffffffffffffffffffffffffff166129f884610742565b73ffffffffffffffffffffffffffffffffffffffff16145b80612a215750612a208185612402565b5b91505092915050565b8273ffffffffffffffffffffffffffffffffffffffff16612a4a82610fe7565b73ffffffffffffffffffffffffffffffffffffffff1614612aa0576040517f08c379a0000000000000000000000000000000000000000000000000000000008152600401612a9790614560565b60405180910390fd5b600073ffffffffffffffffffffffffffffffffffffffff168273ffffffffffffffffffffffffffffffffffffffff161415612b10576040517f08c379a0000000000000000000000000000000000000000000000000000000008152600401612b0790614420565b60405180910390fd5b612b1b8383836131ce565b612b266000826127fe565b6001600360008573ffffffffffffffffffffffffffffffffffffffff1673ffffffffffffffffffffffffffffffffffffffff1681526020019081526020016000206000828254612b769190614795565b925050819055506001600360008473ffffffffffffffffffffffffffffffffffffffff1673ffffffffffffffffffffffffffffffffffffffff1681526020019081526020016000206000828254612bcd91906146b4565b92505081905550816002600083815260200190815260200160002060006101000a81548173ffffffffffffffffffffffffffffffffffffffff021916908373ffffffffffffffffffffffffffffffffffffffff160217905550808273ffffffffffffffffffffffffffffffffffffffff168473ffffffffffffffffffffffffffffffffffffffff167fddf252ad1be2c89b69c2b068fc378daa952ba7f163c4a11628f55a4df523b3ef60405160405180910390a4505050565b612ca08282604051806020016040528060008152506132e2565b5050565b6000600b60009054906101000a900473ffffffffffffffffffffffffffffffffffffffff16905081600b60006101000a81548173ffffffffffffffffffffffffffffffffffffffff021916908373ffffffffffffffffffffffffffffffffffffffff1602179055508173ffffffffffffffffffffffffffffffffffffffff168173ffffffffffffffffffffffffffffffffffffffff167f8be0079c531659141344cd1fd0a4f28419497f9722a3daafe3b4186f6b6457e060405160405180910390a35050565b612d75848484612a2a565b612d818484848461333d565b612dc0576040517f08c379a0000000000000000000000000000000000000000000000000000000008152600401612db7906143c0565b60405180910390fd5b50505050565b60606000821415612e0e576040518060400160405280600181526020017f30000000000000000000000000000000000000000000000000000000000000008152509050612f6e565b600082905060005b60008214612e40578080612e29906148e2565b915050600a82612e39919061470a565b9150612e16565b60008167ffffffffffffffff811115612e82577f4e487b7100000000000000000000000000000000000000000000000000000000600052604160045260246000fd5b6040519080825280601f01601f191660200182016040528015612eb45781602001600182028036833780820191505090505b5090505b60008514612f6757600182612ecd9190614795565b9150600a85612edc919061492b565b6030612ee891906146b4565b60f81b818381518110612f24577f4e487b7100000000000000000000000000000000000000000000000000000000600052603260045260246000fd5b60200101907effffffffffffffffffffffffffffffffffffffffffffffffffffffffffffff1916908160001a905350600a85612f60919061470a565b9450612eb8565b8093505050505b919050565b60606000825190506000811415612f9c576040518060200160405280600081525091505061312c565b60006003600283612fad91906146b4565b612fb7919061470a565b6004612fc3919061473b565b90506000602082612fd491906146b4565b67ffffffffffffffff811115613013577f4e487b7100000000000000000000000000000000000000000000000000000000600052604160045260246000fd5b6040519080825280601f01601f1916602001820160405280156130455781602001600182028036833780820191505090505b5090506000604051806060016040528060408152602001615221604091399050600181016020830160005b868110156130e95760038101905062ffffff818a015116603f8160121c168401518060081b905060ff603f83600c1c1686015116810190508060081b905060ff603f8360061c1686015116810190508060081b905060ff603f831686015116810190508060e01b90508084526004840193505050613070565b50600386066001811461310357600281146131135761311e565b613d3d60f01b600283035261311e565b603d60f81b60018303525b508484525050819450505050505b919050565b60007f01ffc9a7000000000000000000000000000000000000000000000000000000007bffffffffffffffffffffffffffffffffffffffffffffffffffffffff1916827bffffffffffffffffffffffffffffffffffffffffffffffffffffffff1916149050919050565b6000816040516020016131ae9190614142565b6040516020818303038152906040528051906020012060001c9050919050565b6131d98383836134d4565b600073ffffffffffffffffffffffffffffffffffffffff168373ffffffffffffffffffffffffffffffffffffffff16141561321c57613217816134d9565b61325b565b8173ffffffffffffffffffffffffffffffffffffffff168373ffffffffffffffffffffffffffffffffffffffff161461325a576132598382613522565b5b5b600073ffffffffffffffffffffffffffffffffffffffff168273ffffffffffffffffffffffffffffffffffffffff16141561329e576132998161368f565b6132dd565b8273ffffffffffffffffffffffffffffffffffffffff168273ffffffffffffffffffffffffffffffffffffffff16146132dc576132db82826137d2565b5b5b505050565b6132ec8383613851565b6132f9600084848461333d565b613338576040517f08c379a000000000000000000000000000000000000000000000000000000000815260040161332f906143c0565b60405180910390fd5b505050565b600061335e8473ffffffffffffffffffffffffffffffffffffffff16613a1f565b156134c7578373ffffffffffffffffffffffffffffffffffffffff1663150b7a026133876127f6565b8786866040518563ffffffff1660e01b81526004016133a99493929190614317565b602060405180830381600087803b1580156133c357600080fd5b505af19250505080156133f457506040513d601f19601f820116820180604052508101906133f19190613cfb565b60015b613477573d8060008114613424576040519150601f19603f3d011682016040523d82523d6000602084013e613429565b606091505b5060008151141561346f576040517f08c379a0000000000000000000000000000000000000000000000000000000008152600401613466906143c0565b60405180910390fd5b805181602001fd5b63150b7a0260e01b7bffffffffffffffffffffffffffffffffffffffffffffffffffffffff1916817bffffffffffffffffffffffffffffffffffffffffffffffffffffffff1916149150506134cc565b600190505b949350505050565b505050565b6008805490506009600083815260200190815260200160002081905550600881908060018154018082558091505060019003906000526020600020016000909190919091505550565b6000600161352f84611099565b6135399190614795565b905060006007600084815260200190815260200160002054905081811461361e576000600660008673ffffffffffffffffffffffffffffffffffffffff1673ffffffffffffffffffffffffffffffffffffffff168152602001908152602001600020600084815260200190815260200160002054905080600660008773ffffffffffffffffffffffffffffffffffffffff1673ffffffffffffffffffffffffffffffffffffffff168152602001908152602001600020600084815260200190815260200160002081905550816007600083815260200190815260200160002081905550505b6007600084815260200190815260200160002060009055600660008573ffffffffffffffffffffffffffffffffffffffff1673ffffffffffffffffffffffffffffffffffffffff16815260200190815260200160002060008381526020019081526020016000206000905550505050565b600060016008805490506136a39190614795565b90506000600960008481526020019081526020016000205490506000600883815481106136f9577f4e487b7100000000000000000000000000000000000000000000000000000000600052603260045260246000fd5b906000526020600020015490508060088381548110613741577f4e487b7100000000000000000000000000000000000000000000000000000000600052603260045260246000fd5b9060005260206000200181905550816009600083815260200190815260200160002081905550600960008581526020019081526020016000206000905560088054806137b6577f4e487b7100000000000000000000000000000000000000000000000000000000600052603160045260246000fd5b6001900381819060005260206000200160009055905550505050565b60006137dd83611099565b905081600660008573ffffffffffffffffffffffffffffffffffffffff1673ffffffffffffffffffffffffffffffffffffffff168152602001908152602001600020600083815260200190815260200160002081905550806007600084815260200190815260200160002081905550505050565b600073ffffffffffffffffffffffffffffffffffffffff168273ffffffffffffffffffffffffffffffffffffffff1614156138c1576040517f08c379a00000000000000000000000000000000000000000000000000000000081526004016138b8906144e0565b60405180910390fd5b6138ca8161278a565b1561390a576040517f08c379a000000000000000000000000000000000000000000000000000000000815260040161390190614400565b60405180910390fd5b613916600083836131ce565b6001600360008473ffffffffffffffffffffffffffffffffffffffff1673ffffffffffffffffffffffffffffffffffffffff168152602001908152602001600020600082825461396691906146b4565b92505081905550816002600083815260200190815260200160002060006101000a81548173ffffffffffffffffffffffffffffffffffffffff021916908373ffffffffffffffffffffffffffffffffffffffff160217905550808273ffffffffffffffffffffffffffffffffffffffff16600073ffffffffffffffffffffffffffffffffffffffff167fddf252ad1be2c89b69c2b068fc378daa952ba7f163c4a11628f55a4df523b3ef60405160405180910390a45050565b600080823b905060008111915050919050565b6040518061026001604052806013905b6060815260200190600190039081613a425790505090565b6000613a6d613a6884614640565b61461b565b905082815260208101848484011115613a8557600080fd5b613a9084828561483d565b509392505050565b600081359050613aa7816150d0565b92915050565b600081359050613abc816150e7565b92915050565b600081359050613ad1816150fe565b92915050565b600081519050613ae6816150fe565b92915050565b600082601f830112613afd57600080fd5b8135613b0d848260208601613a5a565b91505092915050565b600081359050613b2581615115565b92915050565b600060208284031215613b3d57600080fd5b6000613b4b84828501613a98565b91505092915050565b60008060408385031215613b6757600080fd5b6000613b7585828601613a98565b9250506020613b8685828601613a98565b9150509250929050565b600080600060608486031215613ba557600080fd5b6000613bb386828701613a98565b9350506020613bc486828701613a98565b9250506040613bd586828701613b16565b9150509250925092565b60008060008060808587031215613bf557600080fd5b6000613c0387828801613a98565b9450506020613c1487828801613a98565b9350506040613c2587828801613b16565b925050606085013567ffffffffffffffff811115613c4257600080fd5b613c4e87828801613aec565b91505092959194509250565b60008060408385031215613c6d57600080fd5b6000613c7b85828601613a98565b9250506020613c8c85828601613aad565b9150509250929050565b60008060408385031215613ca957600080fd5b6000613cb785828601613a98565b9250506020613cc885828601613b16565b9150509250929050565b600060208284031215613ce457600080fd5b6000613cf284828501613ac2565b91505092915050565b600060208284031215613d0d57600080fd5b6000613d1b84828501613ad7565b91505092915050565b600060208284031215613d3657600080fd5b6000613d4484828501613b16565b91505092915050565b613d56816147c9565b82525050565b613d65816147db565b82525050565b6000613d7682614671565b613d808185614687565b9350613d9081856020860161484c565b613d9981614a18565b840191505092915050565b6000613daf8261467c565b613db98185614698565b9350613dc981856020860161484c565b613dd281614a18565b840191505092915050565b6000613de88261467c565b613df281856146a9565b9350613e0281856020860161484c565b80840191505092915050565b6000613e1b602b83614698565b9150613e2682614a29565b604082019050919050565b6000613e3e603283614698565b9150613e4982614a78565b604082019050919050565b6000613e61600f836146a9565b9150613e6c82614ac7565b600f82019050919050565b6000613e84602683614698565b9150613e8f82614af0565b604082019050919050565b6000613ea7601c83614698565b9150613eb282614b3f565b602082019050919050565b6000613eca602483614698565b9150613ed582614b68565b604082019050919050565b6000613eed601983614698565b9150613ef882614bb7565b602082019050919050565b6000613f10602c83614698565b9150613f1b82614be0565b604082019050919050565b6000613f33603883614698565b9150613f3e82614c2f565b604082019050919050565b6000613f56602a83614698565b9150613f6182614c7e565b604082019050919050565b6000613f79602983614698565b9150613f8482614ccd565b604082019050919050565b6000613f9c6002836146a9565b9150613fa782614d1c565b600282019050919050565b6000613fbf602083614698565b9150613fca82614d45565b602082019050919050565b6000613fe2602c83614698565b9150613fed82614d6e565b604082019050919050565b6000614005602083614698565b915061401082614dbd565b602082019050919050565b600061402860fa836146a9565b915061403382614de6565b60fa82019050919050565b600061404b601083614698565b915061405682614f19565b602082019050919050565b600061406e602983614698565b915061407982614f42565b604082019050919050565b6000614091602183614698565b915061409c82614f91565b604082019050919050565b60006140b4601d836146a9565b91506140bf82614fe0565b601d82019050919050565b60006140d7603183614698565b91506140e282615009565b604082019050919050565b60006140fa602c83614698565b915061410582615058565b604082019050919050565b600061411d601f83614698565b9150614128826150a7565b602082019050919050565b61413c81614833565b82525050565b600061414e8284613ddd565b915081905092915050565b60006141658285613ddd565b91506141718284613ddd565b91508190509392505050565b6000614189828c613ddd565b9150614195828b613ddd565b91506141a1828a613ddd565b91506141ad8289613ddd565b91506141b98288613ddd565b91506141c58287613ddd565b91506141d18286613ddd565b91506141dd8285613ddd565b91506141e98284613ddd565b91508190509a9950505050505050505050565b6000614208828e613ddd565b9150614214828d613ddd565b9150614220828c613ddd565b915061422c828b613ddd565b9150614238828a613ddd565b91506142448289613ddd565b91506142508288613ddd565b915061425c8287613ddd565b91506142688286613ddd565b91506142748285613ddd565b91506142808284613ddd565b91508190509c9b505050505050505050505050565b60006142a082613e54565b91506142ac8285613ddd565b91506142b78261401b565b91506142c38284613ddd565b91506142ce82613f8f565b91508190509392505050565b60006142e5826140a7565b91506142f18284613ddd565b915081905092915050565b60006020820190506143116000830184613d4d565b92915050565b600060808201905061432c6000830187613d4d565b6143396020830186613d4d565b6143466040830185614133565b81810360608301526143588184613d6b565b905095945050505050565b60006020820190506143786000830184613d5c565b92915050565b600060208201905081810360008301526143988184613da4565b905092915050565b600060208201905081810360008301526143b981613e0e565b9050919050565b600060208201905081810360008301526143d981613e31565b9050919050565b600060208201905081810360008301526143f981613e77565b9050919050565b6000602082019050818103600083015261441981613e9a565b9050919050565b6000602082019050818103600083015261443981613ebd565b9050919050565b6000602082019050818103600083015261445981613ee0565b9050919050565b6000602082019050818103600083015261447981613f03565b9050919050565b6000602082019050818103600083015261449981613f26565b9050919050565b600060208201905081810360008301526144b981613f49565b9050919050565b600060208201905081810360008301526144d981613f6c565b9050919050565b600060208201905081810360008301526144f981613fb2565b9050919050565b6000602082019050818103600083015261451981613fd5565b9050919050565b6000602082019050818103600083015261453981613ff8565b9050919050565b600060208201905081810360008301526145598161403e565b9050919050565b6000602082019050818103600083015261457981614061565b9050919050565b6000602082019050818103600083015261459981614084565b9050919050565b600060208201905081810360008301526145b9816140ca565b9050919050565b600060208201905081810360008301526145d9816140ed565b9050919050565b600060208201905081810360008301526145f981614110565b9050919050565b60006020820190506146156000830184614133565b92915050565b6000614625614636565b905061463182826148b1565b919050565b6000604051905090565b600067ffffffffffffffff82111561465b5761465a6149e9565b5b61466482614a18565b9050602081019050919050565b600081519050919050565b600081519050919050565b600082825260208201905092915050565b600082825260208201905092915050565b600081905092915050565b60006146bf82614833565b91506146ca83614833565b9250827fffffffffffffffffffffffffffffffffffffffffffffffffffffffffffffffff038211156146ff576146fe61495c565b5b828201905092915050565b600061471582614833565b915061472083614833565b9250826147305761472f61498b565b5b828204905092915050565b600061474682614833565b915061475183614833565b9250817fffffffffffffffffffffffffffffffffffffffffffffffffffffffffffffffff048311821515161561478a5761478961495c565b5b828202905092915050565b60006147a082614833565b91506147ab83614833565b9250828210156147be576147bd61495c565b5b828203905092915050565b60006147d482614813565b9050919050565b60008115159050919050565b60007fffffffff0000000000000000000000000000000000000000000000000000000082169050919050565b600073ffffffffffffffffffffffffffffffffffffffff82169050919050565b6000819050919050565b82818337600083830152505050565b60005b8381101561486a57808201518184015260208101905061484f565b83811115614879576000848401525b50505050565b6000600282049050600182168061489757607f821691505b602082108114156148ab576148aa6149ba565b5b50919050565b6148ba82614a18565b810181811067ffffffffffffffff821117156148d9576148d86149e9565b5b80604052505050565b60006148ed82614833565b91507fffffffffffffffffffffffffffffffffffffffffffffffffffffffffffffffff8214156149205761491f61495c565b5b600182019050919050565b600061493682614833565b915061494183614833565b9250826149515761495061498b565b5b828206905092915050565b7f4e487b7100000000000000000000000000000000000000000000000000000000600052601160045260246000fd5b7f4e487b7100000000000000000000000000000000000000000000000000000000600052601260045260246000fd5b7f4e487b7100000000000000000000000000000000000000000000000000000000600052602260045260246000fd5b7f4e487b7100000000000000000000000000000000000000000000000000000000600052604160045260246000fd5b6000601f19601f8301169050919050565b7f455243373231456e756d657261626c653a206f776e657220696e646578206f7560008201527f74206f6620626f756e6473000000000000000000000000000000000000000000602082015250565b7f4552433732313a207472616e7366657220746f206e6f6e20455243373231526560008201527f63656976657220696d706c656d656e7465720000000000000000000000000000602082015250565b7f7b226e616d65223a202244657620230000000000000000000000000000000000600082015250565b7f4f776e61626c653a206e6577206f776e657220697320746865207a65726f206160008201527f6464726573730000000000000000000000000000000000000000000000000000602082015250565b7f4552433732313a20746f6b656e20616c7265616479206d696e74656400000000600082015250565b7f4552433732313a207472616e7366657220746f20746865207a65726f2061646460008201527f7265737300000000000000000000000000000000000000000000000000000000602082015250565b7f4552433732313a20617070726f766520746f2063616c6c657200000000000000600082015250565b7f4552433732313a206f70657261746f7220717565727920666f72206e6f6e657860008201527f697374656e7420746f6b656e0000000000000000000000000000000000000000602082015250565b7f4552433732313a20617070726f76652063616c6c6572206973206e6f74206f7760008201527f6e6572206e6f7220617070726f76656420666f7220616c6c0000000000000000602082015250565b7f4552433732313a2062616c616e636520717565727920666f7220746865207a6560008201527f726f206164647265737300000000000000000000000000000000000000000000602082015250565b7f4552433732313a206f776e657220717565727920666f72206e6f6e657869737460008201527f656e7420746f6b656e0000000000000000000000000000000000000000000000602082015250565b7f227d000000000000000000000000000000000000000000000000000000000000600082015250565b7f4552433732313a206d696e7420746f20746865207a65726f2061646472657373600082015250565b7f4552433732313a20617070726f76656420717565727920666f72206e6f6e657860008201527f697374656e7420746f6b656e0000000000000000000000000000000000000000602082015250565b7f4f776e61626c653a2063616c6c6572206973206e6f7420746865206f776e6572600082015250565b7f222c20226465736372697074696f6e223a2022446576656c6f7065727320617260008201527f6f756e642074686520776f726c6420617265207469726564206f6620776f726b60208201527f696e6720616e6420636f6e747269627574696e672074686569722074696d652060408201527f616e64206566666f727420746f20656e726963682074686520746f702031252e60608201527f204a6f696e20746865206d6f76656d656e74207468617420697320636f6d6d7560808201527f6e697479206f776e65642c206275696c64696e6720746865206675747572652060a08201527f66726f6d2074686520626f74746f6d2075702e222c2022696d616765223a202260c08201527f646174613a696d6167652f7376672b786d6c3b6261736536342c00000000000060e082015250565b7f546f6b656e20494420696e76616c696400000000000000000000000000000000600082015250565b7f4552433732313a207472616e73666572206f6620746f6b656e2074686174206960008201527f73206e6f74206f776e0000000000000000000000000000000000000000000000602082015250565b7f4552433732313a20617070726f76616c20746f2063757272656e74206f776e6560008201527f7200000000000000000000000000000000000000000000000000000000000000602082015250565b7f646174613a6170706c69636174696f6e2f6a736f6e3b6261736536342c000000600082015250565b7f4552433732313a207472616e736665722063616c6c6572206973206e6f74206f60008201527f776e6572206e6f7220617070726f766564000000000000000000000000000000602082015250565b7f455243373231456e756d657261626c653a20676c6f62616c20696e646578206f60008201527f7574206f6620626f756e64730000000000000000000000000000000000000000602082015250565b7f5265656e7472616e637947756172643a207265656e7472616e742063616c6c00600082015250565b6150d9816147c9565b81146150e457600080fd5b50565b6150f0816147db565b81146150fb57600080fd5b50565b615107816147e7565b811461511257600080fd5b50565b61511e81614833565b811461512957600080fd5b5056fe3c2f746578743e3c7465787420783d2231302220793d2236302220636c6173733d2262617365223e3c2f746578743e3c7465787420783d2231302220793d223136302220636c6173733d2262617365223e3c2f746578743e3c7465787420783d2231302220793d223132302220636c6173733d2262617365223e3c2f746578743e3c7465787420783d2231302220793d2238302220636c6173733d2262617365223e3c2f746578743e3c7465787420783d2231302220793d223130302220636c6173733d2262617365223e3c2f746578743e3c7465787420783d2231302220793d223134302220636c6173733d2262617365223e4142434445464748494a4b4c4d4e4f505152535455565758595a6162636465666768696a6b6c6d6e6f707172737475767778797a303132333435363738392b2f3c2f746578743e3c7465787420783d2231302220793d2234302220636c6173733d2262617365223e3c73766720786d6c6e733d22687474703a2f2f7777772e77332e6f72672f323030302f73766722207072657365727665417370656374526174696f3d22784d696e594d696e206d656574222076696577426f783d223020302033353020333530223e3c7374796c653e2e62617365207b2066696c6c3a20626c61636b3b20666f6e742d66616d696c793a2073657269663b20666f6e742d73697a653a20313470783b207d3c2f7374796c653e3c726563742077696474683d223130302522206865696768743d2231303025222066696c6c3d22776869746522202f3e3c7465787420783d2231302220793d2232302220636c6173733d2262617365223ea264697066735822122049f218351398e376ae9009fdf866714bcc39ce31955bca39f13a974455748c9964736f6c63430008040033",
    "linkReferences": {},
    "deployedLinkReferences": {}
}