{
    "_format": "hh-sol-artifact-1",
    "contractName": "PixelAvatars",
    "sourceName": "contracts/PixelAvatars.sol",
    "abi": [
        {
            "inputs": [],
            "stateMutability": "nonpayable",
            "type": "constructor"
        },
        {
            "anonymous": false,
            "inputs": [
                {
                    "indexed": true,
                    "internalType": "address",
                    "name": "owner",
                    "type": "address"
                },
                {
                    "indexed": true,
                    "internalType": "address",
                    "name": "approved",
                    "type": "address"
                },
                {
                    "indexed": true,
                    "internalType": "uint256",
                    "name": "tokenId",
                    "type": "uint256"
                }
            ],
            "name": "Approval",
            "type": "event"
        },
        {
            "anonymous": false,
            "inputs": [
                {
                    "indexed": true,
                    "internalType": "address",
                    "name": "owner",
                    "type": "address"
                },
                {
                    "indexed": true,
                    "internalType": "address",
                    "name": "operator",
                    "type": "address"
                },
                {
                    "indexed": false,
                    "internalType": "bool",
                    "name": "approved",
                    "type": "bool"
                }
            ],
            "name": "ApprovalForAll",
            "type": "event"
        },
        {
            "anonymous": false,
            "inputs": [
                {
                    "indexed": false,
                    "internalType": "address",
                    "name": "minter",
                    "type": "address"
                },
                {
                    "indexed": false,
                    "internalType": "uint256",
                    "name": "tokenId",
                    "type": "uint256"
                }
            ],
            "name": "LogTokenMinted",
            "type": "event"
        },
        {
            "anonymous": false,
            "inputs": [
                {
                    "indexed": true,
                    "internalType": "address",
                    "name": "previousOwner",
                    "type": "address"
                },
                {
                    "indexed": true,
                    "internalType": "address",
                    "name": "newOwner",
                    "type": "address"
                }
            ],
            "name": "OwnershipTransferred",
            "type": "event"
        },
        {
            "anonymous": false,
            "inputs": [
                {
                    "indexed": true,
                    "internalType": "address",
                    "name": "from",
                    "type": "address"
                },
                {
                    "indexed": true,
                    "internalType": "address",
                    "name": "to",
                    "type": "address"
                },
                {
                    "indexed": true,
                    "internalType": "uint256",
                    "name": "tokenId",
                    "type": "uint256"
                }
            ],
            "name": "Transfer",
            "type": "event"
        },
        {
            "inputs": [
                {
                    "internalType": "address",
                    "name": "to",
                    "type": "address"
                },
                {
                    "internalType": "uint256",
                    "name": "tokenId",
                    "type": "uint256"
                }
            ],
            "name": "approve",
            "outputs": [],
            "stateMutability": "nonpayable",
            "type": "function"
        },
        {
            "inputs": [
                {
                    "internalType": "address",
                    "name": "owner",
                    "type": "address"
                }
            ],
            "name": "balanceOf",
            "outputs": [
                {
                    "internalType": "uint256",
                    "name": "",
                    "type": "uint256"
                }
            ],
            "stateMutability": "view",
            "type": "function"
        },
        {
            "inputs": [],
            "name": "baseURI",
            "outputs": [
                {
                    "internalType": "string",
                    "name": "",
                    "type": "string"
                }
            ],
            "stateMutability": "view",
            "type": "function"
        },
        {
            "inputs": [],
            "name": "devDaoAddress",
            "outputs": [
                {
                    "internalType": "address",
                    "name": "",
                    "type": "address"
                }
            ],
            "stateMutability": "view",
            "type": "function"
        },
        {
            "inputs": [
                {
                    "internalType": "uint256",
                    "name": "tokenId",
                    "type": "uint256"
                }
            ],
            "name": "getApproved",
            "outputs": [
                {
                    "internalType": "address",
                    "name": "",
                    "type": "address"
                }
            ],
            "stateMutability": "view",
            "type": "function"
        },
        {
            "inputs": [
                {
                    "internalType": "address",
                    "name": "owner",
                    "type": "address"
                },
                {
                    "internalType": "address",
                    "name": "operator",
                    "type": "address"
                }
            ],
            "name": "isApprovedForAll",
            "outputs": [
                {
                    "internalType": "bool",
                    "name": "",
                    "type": "bool"
                }
            ],
            "stateMutability": "view",
            "type": "function"
        },
        {
            "inputs": [],
            "name": "mintPrice",
            "outputs": [
                {
                    "internalType": "uint256",
                    "name": "",
                    "type": "uint256"
                }
            ],
            "stateMutability": "view",
            "type": "function"
        },
        {
            "inputs": [
                {
                    "internalType": "uint256",
                    "name": "_devDaoTokenId",
                    "type": "uint256"
                }
            ],
            "name": "mintWithDevDaoToken",
            "outputs": [],
            "stateMutability": "payable",
            "type": "function"
        },
        {
            "inputs": [
                {
                    "internalType": "uint256[]",
                    "name": "_devDaoTokenIds",
                    "type": "uint256[]"
                }
            ],
            "name": "multiMintWithDevDaoToken",
            "outputs": [],
            "stateMutability": "payable",
            "type": "function"
        },
        {
            "inputs": [],
            "name": "name",
            "outputs": [
                {
                    "internalType": "string",
                    "name": "",
                    "type": "string"
                }
            ],
            "stateMutability": "view",
            "type": "function"
        },
        {
            "inputs": [],
            "name": "owner",
            "outputs": [
                {
                    "internalType": "address",
                    "name": "",
                    "type": "address"
                }
            ],
            "stateMutability": "view",
            "type": "function"
        },
        {
            "inputs": [
                {
                    "internalType": "uint256",
                    "name": "tokenId",
                    "type": "uint256"
                }
            ],
            "name": "ownerOf",
            "outputs": [
                {
                    "internalType": "address",
                    "name": "",
                    "type": "address"
                }
            ],
            "stateMutability": "view",
            "type": "function"
        },
        {
            "inputs": [],
            "name": "renounceOwnership",
            "outputs": [],
            "stateMutability": "nonpayable",
            "type": "function"
        },
        {
            "inputs": [
                {
                    "internalType": "address",
                    "name": "from",
                    "type": "address"
                },
                {
                    "internalType": "address",
                    "name": "to",
                    "type": "address"
                },
                {
                    "internalType": "uint256",
                    "name": "tokenId",
                    "type": "uint256"
                }
            ],
            "name": "safeTransferFrom",
            "outputs": [],
            "stateMutability": "nonpayable",
            "type": "function"
        },
        {
            "inputs": [
                {
                    "internalType": "address",
                    "name": "from",
                    "type": "address"
                },
                {
                    "internalType": "address",
                    "name": "to",
                    "type": "address"
                },
                {
                    "internalType": "uint256",
                    "name": "tokenId",
                    "type": "uint256"
                },
                {
                    "internalType": "bytes",
                    "name": "_data",
                    "type": "bytes"
                }
            ],
            "name": "safeTransferFrom",
            "outputs": [],
            "stateMutability": "nonpayable",
            "type": "function"
        },
        {
            "inputs": [
                {
                    "internalType": "address",
                    "name": "operator",
                    "type": "address"
                },
                {
                    "internalType": "bool",
                    "name": "approved",
                    "type": "bool"
                }
            ],
            "name": "setApprovalForAll",
            "outputs": [],
            "stateMutability": "nonpayable",
            "type": "function"
        },
        {
            "inputs": [
                {
                    "internalType": "string",
                    "name": "_newBaseURI",
                    "type": "string"
                }
            ],
            "name": "setBaseURI",
            "outputs": [],
            "stateMutability": "nonpayable",
            "type": "function"
        },
        {
            "inputs": [
                {
                    "internalType": "uint256",
                    "name": "_newPrice",
                    "type": "uint256"
                }
            ],
            "name": "setMintPrice",
            "outputs": [],
            "stateMutability": "nonpayable",
            "type": "function"
        },
        {
            "inputs": [
                {
                    "internalType": "bytes4",
                    "name": "interfaceId",
                    "type": "bytes4"
                }
            ],
            "name": "supportsInterface",
            "outputs": [
                {
                    "internalType": "bool",
                    "name": "",
                    "type": "bool"
                }
            ],
            "stateMutability": "view",
            "type": "function"
        },
        {
            "inputs": [],
            "name": "symbol",
            "outputs": [
                {
                    "internalType": "string",
                    "name": "",
                    "type": "string"
                }
            ],
            "stateMutability": "view",
            "type": "function"
        },
        {
            "inputs": [
                {
                    "internalType": "uint256",
                    "name": "index",
                    "type": "uint256"
                }
            ],
            "name": "tokenByIndex",
            "outputs": [
                {
                    "internalType": "uint256",
                    "name": "",
                    "type": "uint256"
                }
            ],
            "stateMutability": "view",
            "type": "function"
        },
        {
            "inputs": [
                {
                    "internalType": "address",
                    "name": "owner",
                    "type": "address"
                },
                {
                    "internalType": "uint256",
                    "name": "index",
                    "type": "uint256"
                }
            ],
            "name": "tokenOfOwnerByIndex",
            "outputs": [
                {
                    "internalType": "uint256",
                    "name": "",
                    "type": "uint256"
                }
            ],
            "stateMutability": "view",
            "type": "function"
        },
        {
            "inputs": [
                {
                    "internalType": "uint256",
                    "name": "tokenId",
                    "type": "uint256"
                }
            ],
            "name": "tokenURI",
            "outputs": [
                {
                    "internalType": "string",
                    "name": "",
                    "type": "string"
                }
            ],
            "stateMutability": "view",
            "type": "function"
        },
        {
            "inputs": [],
            "name": "totalSupply",
            "outputs": [
                {
                    "internalType": "uint256",
                    "name": "",
                    "type": "uint256"
                }
            ],
            "stateMutability": "view",
            "type": "function"
        },
        {
            "inputs": [
                {
                    "internalType": "address",
                    "name": "from",
                    "type": "address"
                },
                {
                    "internalType": "address",
                    "name": "to",
                    "type": "address"
                },
                {
                    "internalType": "uint256",
                    "name": "tokenId",
                    "type": "uint256"
                }
            ],
            "name": "transferFrom",
            "outputs": [],
            "stateMutability": "nonpayable",
            "type": "function"
        },
        {
            "inputs": [
                {
                    "internalType": "address",
                    "name": "newOwner",
                    "type": "address"
                }
            ],
            "name": "transferOwnership",
            "outputs": [],
            "stateMutability": "nonpayable",
            "type": "function"
        },
        {
            "inputs": [],
            "name": "withdraw",
            "outputs": [],
            "stateMutability": "nonpayable",
            "type": "function"
        }
    ],
    "bytecode": "0x608060405260405180606001604052806036815260200162004b0460369139600c908051906020019062000035929190620003be565b507325ed58c027921e14d86380ea2646e3a1b5c55a8b600d60006101000a81548173ffffffffffffffffffffffffffffffffffffffff021916908373ffffffffffffffffffffffffffffffffffffffff160217905550662386f26fc10000600e55600d60009054906101000a900473ffffffffffffffffffffffffffffffffffffffff16600f60006101000a81548173ffffffffffffffffffffffffffffffffffffffff021916908373ffffffffffffffffffffffffffffffffffffffff1602179055503480156200010657600080fd5b506040518060400160405280600d81526020017f506978656c2041766174617273000000000000000000000000000000000000008152506040518060400160405280600781526020017f50584c415654520000000000000000000000000000000000000000000000000081525081600090805190602001906200018b929190620003be565b508060019080519060200190620001a4929190620003be565b5050506001600a81905550620001cf620001c36200022160201b60201c565b6200022960201b60201c565b6200021b6040518060400160405280601d81526020017f506978656c41766174617273206465706c6f796564206279202725732700000081525033620002ef60201b620019121760201c565b620005f0565b600033905090565b6000600b60009054906101000a900473ffffffffffffffffffffffffffffffffffffffff16905081600b60006101000a81548173ffffffffffffffffffffffffffffffffffffffff021916908373ffffffffffffffffffffffffffffffffffffffff1602179055508173ffffffffffffffffffffffffffffffffffffffff168173ffffffffffffffffffffffffffffffffffffffff167f8be0079c531659141344cd1fd0a4f28419497f9722a3daafe3b4186f6b6457e060405160405180910390a35050565b6200039182826040516024016200030892919062000557565b6040516020818303038152906040527f319af333000000000000000000000000000000000000000000000000000000007bffffffffffffffffffffffffffffffffffffffffffffffffffffffff19166020820180517bffffffffffffffffffffffffffffffffffffffffffffffffffffffff83818316178352505050506200039560201b60201c565b5050565b60008151905060006a636f6e736f6c652e6c6f679050602083016000808483855afa5050505050565b828054620003cc90620005ba565b90600052602060002090601f016020900481019282620003f057600085556200043c565b82601f106200040b57805160ff19168380011785556200043c565b828001600101855582156200043c579182015b828111156200043b5782518255916020019190600101906200041e565b5b5090506200044b91906200044f565b5090565b5b808211156200046a57600081600090555060010162000450565b5090565b600081519050919050565b600082825260208201905092915050565b60005b83811015620004aa5780820151818401526020810190506200048d565b83811115620004ba576000848401525b50505050565b6000601f19601f8301169050919050565b6000620004de826200046e565b620004ea818562000479565b9350620004fc8185602086016200048a565b6200050781620004c0565b840191505092915050565b600073ffffffffffffffffffffffffffffffffffffffff82169050919050565b60006200053f8262000512565b9050919050565b620005518162000532565b82525050565b60006040820190508181036000830152620005738185620004d1565b905062000584602083018462000546565b9392505050565b7f4e487b7100000000000000000000000000000000000000000000000000000000600052602260045260246000fd5b60006002820490506001821680620005d357607f821691505b60208210811415620005ea57620005e96200058b565b5b50919050565b61450480620006006000396000f3fe60806040526004361061019c5760003560e01c80636c0360eb116100ec578063b88d4fde1161008a578063e985e9c511610064578063e985e9c5146105b9578063f2fde38b146105f6578063f4a0a5281461061f578063fe5ca719146106485761019c565b8063b88d4fde14610537578063c87b56dd14610560578063d76cd5a21461059d5761019c565b806375f77696116100c657806375f776961461048d5780638da5cb5b146104b857806395d89b41146104e3578063a22cb4651461050e5761019c565b80636c0360eb1461040e57806370a0823114610439578063715018a6146104765761019c565b80632f745c59116101595780634f6ccce7116101335780634f6ccce71461034057806355f804b31461037d5780636352211e146103a65780636817c76c146103e35761019c565b80632f745c59146102c35780633ccfd60b1461030057806342842e0e146103175761019c565b806301ffc9a7146101a157806306fdde03146101de578063081812fc14610209578063095ea7b31461024657806318160ddd1461026f57806323b872dd1461029a575b600080fd5b3480156101ad57600080fd5b506101c860048036038101906101c39190612c5a565b610664565b6040516101d59190612ca2565b60405180910390f35b3480156101ea57600080fd5b506101f36106de565b6040516102009190612d56565b60405180910390f35b34801561021557600080fd5b50610230600480360381019061022b9190612dae565b610770565b60405161023d9190612e1c565b60405180910390f35b34801561025257600080fd5b5061026d60048036038101906102689190612e63565b6107f5565b005b34801561027b57600080fd5b5061028461090d565b6040516102919190612eb2565b60405180910390f35b3480156102a657600080fd5b506102c160048036038101906102bc9190612ecd565b61091a565b005b3480156102cf57600080fd5b506102ea60048036038101906102e59190612e63565b61097a565b6040516102f79190612eb2565b60405180910390f35b34801561030c57600080fd5b50610315610a1f565b005b34801561032357600080fd5b5061033e60048036038101906103399190612ecd565b610ae4565b005b34801561034c57600080fd5b5061036760048036038101906103629190612dae565b610b04565b6040516103749190612eb2565b60405180910390f35b34801561038957600080fd5b506103a4600480360381019061039f9190613055565b610b75565b005b3480156103b257600080fd5b506103cd60048036038101906103c89190612dae565b610c0b565b6040516103da9190612e1c565b60405180910390f35b3480156103ef57600080fd5b506103f8610cbd565b6040516104059190612eb2565b60405180910390f35b34801561041a57600080fd5b50610423610cc3565b6040516104309190612d56565b60405180910390f35b34801561044557600080fd5b50610460600480360381019061045b919061309e565b610d51565b60405161046d9190612eb2565b60405180910390f35b34801561048257600080fd5b5061048b610e09565b005b34801561049957600080fd5b506104a2610e91565b6040516104af9190612e1c565b60405180910390f35b3480156104c457600080fd5b506104cd610eb7565b6040516104da9190612e1c565b60405180910390f35b3480156104ef57600080fd5b506104f8610ee1565b6040516105059190612d56565b60405180910390f35b34801561051a57600080fd5b50610535600480360381019061053091906130f7565b610f73565b005b34801561054357600080fd5b5061055e600480360381019061055991906131d8565b6110f4565b005b34801561056c57600080fd5b5061058760048036038101906105829190612dae565b611156565b6040516105949190612d56565b60405180910390f35b6105b760048036038101906105b29190613323565b6111fd565b005b3480156105c557600080fd5b506105e060048036038101906105db919061336c565b611490565b6040516105ed9190612ca2565b60405180910390f35b34801561060257600080fd5b5061061d6004803603810190610618919061309e565b611524565b005b34801561062b57600080fd5b5061064660048036038101906106419190612dae565b61161c565b005b610662600480360381019061065d9190612dae565b6116a2565b005b60007f780e9d63000000000000000000000000000000000000000000000000000000007bffffffffffffffffffffffffffffffffffffffffffffffffffffffff1916827bffffffffffffffffffffffffffffffffffffffffffffffffffffffff191614806106d757506106d6826119ae565b5b9050919050565b6060600080546106ed906133db565b80601f0160208091040260200160405190810160405280929190818152602001828054610719906133db565b80156107665780601f1061073b57610100808354040283529160200191610766565b820191906000526020600020905b81548152906001019060200180831161074957829003601f168201915b5050505050905090565b600061077b82611a90565b6107ba576040517f08c379a00000000000000000000000000000000000000000000000000000000081526004016107b19061347f565b60405180910390fd5b6004600083815260200190815260200160002060009054906101000a900473ffffffffffffffffffffffffffffffffffffffff169050919050565b600061080082610c0b565b90508073ffffffffffffffffffffffffffffffffffffffff168373ffffffffffffffffffffffffffffffffffffffff161415610871576040517f08c379a000000000000000000000000000000000000000000000000000000000815260040161086890613511565b60405180910390fd5b8073ffffffffffffffffffffffffffffffffffffffff16610890611afc565b73ffffffffffffffffffffffffffffffffffffffff1614806108bf57506108be816108b9611afc565b611490565b5b6108fe576040517f08c379a00000000000000000000000000000000000000000000000000000000081526004016108f5906135a3565b60405180910390fd5b6109088383611b04565b505050565b6000600880549050905090565b61092b610925611afc565b82611bbd565b61096a576040517f08c379a000000000000000000000000000000000000000000000000000000000815260040161096190613635565b60405180910390fd5b610975838383611c9b565b505050565b600061098583610d51565b82106109c6576040517f08c379a00000000000000000000000000000000000000000000000000000000081526004016109bd906136c7565b60405180910390fd5b600660008473ffffffffffffffffffffffffffffffffffffffff1673ffffffffffffffffffffffffffffffffffffffff168152602001908152602001600020600083815260200190815260200160002054905092915050565b610a27611afc565b73ffffffffffffffffffffffffffffffffffffffff16610a45610eb7565b73ffffffffffffffffffffffffffffffffffffffff1614610a9b576040517f08c379a0000000000000000000000000000000000000000000000000000000008152600401610a9290613733565b60405180910390fd5b3373ffffffffffffffffffffffffffffffffffffffff166108fc479081150290604051600060405180830381858888f19350505050158015610ae1573d6000803e3d6000fd5b50565b610aff838383604051806020016040528060008152506110f4565b505050565b6000610b0e61090d565b8210610b4f576040517f08c379a0000000000000000000000000000000000000000000000000000000008152600401610b46906137c5565b60405180910390fd5b60088281548110610b6357610b626137e5565b5b90600052602060002001549050919050565b610b7d611afc565b73ffffffffffffffffffffffffffffffffffffffff16610b9b610eb7565b73ffffffffffffffffffffffffffffffffffffffff1614610bf1576040517f08c379a0000000000000000000000000000000000000000000000000000000008152600401610be890613733565b60405180910390fd5b80600c9080519060200190610c07929190612b4b565b5050565b6000806002600084815260200190815260200160002060009054906101000a900473ffffffffffffffffffffffffffffffffffffffff169050600073ffffffffffffffffffffffffffffffffffffffff168173ffffffffffffffffffffffffffffffffffffffff161415610cb4576040517f08c379a0000000000000000000000000000000000000000000000000000000008152600401610cab90613886565b60405180910390fd5b80915050919050565b600e5481565b600c8054610cd0906133db565b80601f0160208091040260200160405190810160405280929190818152602001828054610cfc906133db565b8015610d495780601f10610d1e57610100808354040283529160200191610d49565b820191906000526020600020905b815481529060010190602001808311610d2c57829003601f168201915b505050505081565b60008073ffffffffffffffffffffffffffffffffffffffff168273ffffffffffffffffffffffffffffffffffffffff161415610dc2576040517f08c379a0000000000000000000000000000000000000000000000000000000008152600401610db990613918565b60405180910390fd5b600360008373ffffffffffffffffffffffffffffffffffffffff1673ffffffffffffffffffffffffffffffffffffffff168152602001908152602001600020549050919050565b610e11611afc565b73ffffffffffffffffffffffffffffffffffffffff16610e2f610eb7565b73ffffffffffffffffffffffffffffffffffffffff1614610e85576040517f08c379a0000000000000000000000000000000000000000000000000000000008152600401610e7c90613733565b60405180910390fd5b610e8f6000611ef7565b565b600d60009054906101000a900473ffffffffffffffffffffffffffffffffffffffff1681565b6000600b60009054906101000a900473ffffffffffffffffffffffffffffffffffffffff16905090565b606060018054610ef0906133db565b80601f0160208091040260200160405190810160405280929190818152602001828054610f1c906133db565b8015610f695780601f10610f3e57610100808354040283529160200191610f69565b820191906000526020600020905b815481529060010190602001808311610f4c57829003601f168201915b5050505050905090565b610f7b611afc565b73ffffffffffffffffffffffffffffffffffffffff168273ffffffffffffffffffffffffffffffffffffffff161415610fe9576040517f08c379a0000000000000000000000000000000000000000000000000000000008152600401610fe090613984565b60405180910390fd5b8060056000610ff6611afc565b73ffffffffffffffffffffffffffffffffffffffff1673ffffffffffffffffffffffffffffffffffffffff16815260200190815260200160002060008473ffffffffffffffffffffffffffffffffffffffff1673ffffffffffffffffffffffffffffffffffffffff16815260200190815260200160002060006101000a81548160ff0219169083151502179055508173ffffffffffffffffffffffffffffffffffffffff166110a3611afc565b73ffffffffffffffffffffffffffffffffffffffff167f17307eab39ab6107e8899845ad3d59bd9653f200f220920489ca2b5937696c31836040516110e89190612ca2565b60405180910390a35050565b6111056110ff611afc565b83611bbd565b611144576040517f08c379a000000000000000000000000000000000000000000000000000000000815260040161113b90613635565b60405180910390fd5b61115084848484611fbd565b50505050565b606061116182611a90565b6111a0576040517f08c379a000000000000000000000000000000000000000000000000000000000815260040161119790613a16565b60405180910390fd5b60006111aa612019565b905060008151116111ca57604051806020016040528060008152506111f5565b806111d4846120ab565b6040516020016111e5929190613a72565b6040516020818303038152906040525b915050919050565b6002600a541415611243576040517f08c379a000000000000000000000000000000000000000000000000000000000815260040161123a90613ae2565b60405180910390fd5b6002600a819055508060005b815181101561139d573373ffffffffffffffffffffffffffffffffffffffff16600f60009054906101000a900473ffffffffffffffffffffffffffffffffffffffff1673ffffffffffffffffffffffffffffffffffffffff16636352211e8484815181106112c0576112bf6137e5565b5b60200260200101516040518263ffffffff1660e01b81526004016112e49190612eb2565b60206040518083038186803b1580156112fc57600080fd5b505afa158015611310573d6000803e3d6000fd5b505050506040513d601f19601f820116820180604052508101906113349190613b17565b73ffffffffffffffffffffffffffffffffffffffff161461138a576040517f08c379a000000000000000000000000000000000000000000000000000000000815260040161138190613b90565b60405180910390fd5b808061139590613bdf565b91505061124f565b50348251600e546113ae9190613c28565b11156113ef576040517f08c379a00000000000000000000000000000000000000000000000000000000081526004016113e690613cce565b60405180910390fd5b60005b82518110156114835760008382815181106114105761140f6137e5565b5b6020026020010151905061143c6040518060600160405280602b81526020016144a4602b91398261220c565b61144d611447611afc565b826122a8565b61146f604051806060016040528060268152602001614455602691398261220c565b50808061147b90613bdf565b9150506113f2565b50506001600a8190555050565b6000600560008473ffffffffffffffffffffffffffffffffffffffff1673ffffffffffffffffffffffffffffffffffffffff16815260200190815260200160002060008373ffffffffffffffffffffffffffffffffffffffff1673ffffffffffffffffffffffffffffffffffffffff16815260200190815260200160002060009054906101000a900460ff16905092915050565b61152c611afc565b73ffffffffffffffffffffffffffffffffffffffff1661154a610eb7565b73ffffffffffffffffffffffffffffffffffffffff16146115a0576040517f08c379a000000000000000000000000000000000000000000000000000000000815260040161159790613733565b60405180910390fd5b600073ffffffffffffffffffffffffffffffffffffffff168173ffffffffffffffffffffffffffffffffffffffff161415611610576040517f08c379a000000000000000000000000000000000000000000000000000000000815260040161160790613d60565b60405180910390fd5b61161981611ef7565b50565b611624611afc565b73ffffffffffffffffffffffffffffffffffffffff16611642610eb7565b73ffffffffffffffffffffffffffffffffffffffff1614611698576040517f08c379a000000000000000000000000000000000000000000000000000000000815260040161168f90613733565b60405180910390fd5b80600e8190555050565b6002600a5414156116e8576040517f08c379a00000000000000000000000000000000000000000000000000000000081526004016116df90613ae2565b60405180910390fd5b6002600a81905550806000811180156117035750611f408111155b611742576040517f08c379a000000000000000000000000000000000000000000000000000000000815260040161173990613df2565b60405180910390fd5b813373ffffffffffffffffffffffffffffffffffffffff16600f60009054906101000a900473ffffffffffffffffffffffffffffffffffffffff1673ffffffffffffffffffffffffffffffffffffffff16636352211e836040518263ffffffff1660e01b81526004016117b59190612eb2565b60206040518083038186803b1580156117cd57600080fd5b505afa1580156117e1573d6000803e3d6000fd5b505050506040513d601f19601f820116820180604052508101906118059190613b17565b73ffffffffffffffffffffffffffffffffffffffff161461185b576040517f08c379a000000000000000000000000000000000000000000000000000000000815260040161185290613b90565b60405180910390fd5b34600e5411156118a0576040517f08c379a000000000000000000000000000000000000000000000000000000000815260040161189790613e5e565b60405180910390fd5b6118c260405180606001604052806029815260200161447b602991398461220c565b6118cc33846122a8565b7ff63a93365d60efe8aa58f99ad14d3d0689101e5ed3937e83089863d1812f4b6433846040516118fd929190613e7e565b60405180910390a150506001600a8190555050565b6119aa8282604051602401611928929190613ea7565b6040516020818303038152906040527f319af333000000000000000000000000000000000000000000000000000000007bffffffffffffffffffffffffffffffffffffffffffffffffffffffff19166020820180517bffffffffffffffffffffffffffffffffffffffffffffffffffffffff83818316178352505050506122c6565b5050565b60007f80ac58cd000000000000000000000000000000000000000000000000000000007bffffffffffffffffffffffffffffffffffffffffffffffffffffffff1916827bffffffffffffffffffffffffffffffffffffffffffffffffffffffff19161480611a7957507f5b5e139f000000000000000000000000000000000000000000000000000000007bffffffffffffffffffffffffffffffffffffffffffffffffffffffff1916827bffffffffffffffffffffffffffffffffffffffffffffffffffffffff1916145b80611a895750611a88826122ef565b5b9050919050565b60008073ffffffffffffffffffffffffffffffffffffffff166002600084815260200190815260200160002060009054906101000a900473ffffffffffffffffffffffffffffffffffffffff1673ffffffffffffffffffffffffffffffffffffffff1614159050919050565b600033905090565b816004600083815260200190815260200160002060006101000a81548173ffffffffffffffffffffffffffffffffffffffff021916908373ffffffffffffffffffffffffffffffffffffffff160217905550808273ffffffffffffffffffffffffffffffffffffffff16611b7783610c0b565b73ffffffffffffffffffffffffffffffffffffffff167f8c5be1e5ebec7d5bd14f71427d1e84f3dd0314c0f7b2291e5b200ac8c7c3b92560405160405180910390a45050565b6000611bc882611a90565b611c07576040517f08c379a0000000000000000000000000000000000000000000000000000000008152600401611bfe90613f49565b60405180910390fd5b6000611c1283610c0b565b90508073ffffffffffffffffffffffffffffffffffffffff168473ffffffffffffffffffffffffffffffffffffffff161480611c8157508373ffffffffffffffffffffffffffffffffffffffff16611c6984610770565b73ffffffffffffffffffffffffffffffffffffffff16145b80611c925750611c918185611490565b5b91505092915050565b8273ffffffffffffffffffffffffffffffffffffffff16611cbb82610c0b565b73ffffffffffffffffffffffffffffffffffffffff1614611d11576040517f08c379a0000000000000000000000000000000000000000000000000000000008152600401611d0890613fdb565b60405180910390fd5b600073ffffffffffffffffffffffffffffffffffffffff168273ffffffffffffffffffffffffffffffffffffffff161415611d81576040517f08c379a0000000000000000000000000000000000000000000000000000000008152600401611d789061406d565b60405180910390fd5b611d8c838383612359565b611d97600082611b04565b6001600360008573ffffffffffffffffffffffffffffffffffffffff1673ffffffffffffffffffffffffffffffffffffffff1681526020019081526020016000206000828254611de7919061408d565b925050819055506001600360008473ffffffffffffffffffffffffffffffffffffffff1673ffffffffffffffffffffffffffffffffffffffff1681526020019081526020016000206000828254611e3e91906140c1565b92505081905550816002600083815260200190815260200160002060006101000a81548173ffffffffffffffffffffffffffffffffffffffff021916908373ffffffffffffffffffffffffffffffffffffffff160217905550808273ffffffffffffffffffffffffffffffffffffffff168473ffffffffffffffffffffffffffffffffffffffff167fddf252ad1be2c89b69c2b068fc378daa952ba7f163c4a11628f55a4df523b3ef60405160405180910390a4505050565b6000600b60009054906101000a900473ffffffffffffffffffffffffffffffffffffffff16905081600b60006101000a81548173ffffffffffffffffffffffffffffffffffffffff021916908373ffffffffffffffffffffffffffffffffffffffff1602179055508173ffffffffffffffffffffffffffffffffffffffff168173ffffffffffffffffffffffffffffffffffffffff167f8be0079c531659141344cd1fd0a4f28419497f9722a3daafe3b4186f6b6457e060405160405180910390a35050565b611fc8848484611c9b565b611fd48484848461246d565b612013576040517f08c379a000000000000000000000000000000000000000000000000000000000815260040161200a90614189565b60405180910390fd5b50505050565b6060600c8054612028906133db565b80601f0160208091040260200160405190810160405280929190818152602001828054612054906133db565b80156120a15780601f10612076576101008083540402835291602001916120a1565b820191906000526020600020905b81548152906001019060200180831161208457829003601f168201915b5050505050905090565b606060008214156120f3576040518060400160405280600181526020017f30000000000000000000000000000000000000000000000000000000000000008152509050612207565b600082905060005b6000821461212557808061210e90613bdf565b915050600a8261211e91906141d8565b91506120fb565b60008167ffffffffffffffff81111561214157612140612f2a565b5b6040519080825280601f01601f1916602001820160405280156121735781602001600182028036833780820191505090505b5090505b600085146122005760018261218c919061408d565b9150600a8561219b9190614209565b60306121a791906140c1565b60f81b8183815181106121bd576121bc6137e5565b5b60200101907effffffffffffffffffffffffffffffffffffffffffffffffffffffffffffff1916908160001a905350600a856121f991906141d8565b9450612177565b8093505050505b919050565b6122a4828260405160240161222292919061423a565b6040516020818303038152906040527f9710a9d0000000000000000000000000000000000000000000000000000000007bffffffffffffffffffffffffffffffffffffffffffffffffffffffff19166020820180517bffffffffffffffffffffffffffffffffffffffffffffffffffffffff83818316178352505050506122c6565b5050565b6122c2828260405180602001604052806000815250612604565b5050565b60008151905060006a636f6e736f6c652e6c6f679050602083016000808483855afa5050505050565b60007f01ffc9a7000000000000000000000000000000000000000000000000000000007bffffffffffffffffffffffffffffffffffffffffffffffffffffffff1916827bffffffffffffffffffffffffffffffffffffffffffffffffffffffff1916149050919050565b61236483838361265f565b600073ffffffffffffffffffffffffffffffffffffffff168373ffffffffffffffffffffffffffffffffffffffff1614156123a7576123a281612664565b6123e6565b8173ffffffffffffffffffffffffffffffffffffffff168373ffffffffffffffffffffffffffffffffffffffff16146123e5576123e483826126ad565b5b5b600073ffffffffffffffffffffffffffffffffffffffff168273ffffffffffffffffffffffffffffffffffffffff161415612429576124248161281a565b612468565b8273ffffffffffffffffffffffffffffffffffffffff168273ffffffffffffffffffffffffffffffffffffffff16146124675761246682826128eb565b5b5b505050565b600061248e8473ffffffffffffffffffffffffffffffffffffffff1661296a565b156125f7578373ffffffffffffffffffffffffffffffffffffffff1663150b7a026124b7611afc565b8786866040518563ffffffff1660e01b81526004016124d994939291906142bf565b602060405180830381600087803b1580156124f357600080fd5b505af192505050801561252457506040513d601f19601f820116820180604052508101906125219190614320565b60015b6125a7573d8060008114612554576040519150601f19603f3d011682016040523d82523d6000602084013e612559565b606091505b5060008151141561259f576040517f08c379a000000000000000000000000000000000000000000000000000000000815260040161259690614189565b60405180910390fd5b805181602001fd5b63150b7a0260e01b7bffffffffffffffffffffffffffffffffffffffffffffffffffffffff1916817bffffffffffffffffffffffffffffffffffffffffffffffffffffffff1916149150506125fc565b600190505b949350505050565b61260e838361297d565b61261b600084848461246d565b61265a576040517f08c379a000000000000000000000000000000000000000000000000000000000815260040161265190614189565b60405180910390fd5b505050565b505050565b6008805490506009600083815260200190815260200160002081905550600881908060018154018082558091505060019003906000526020600020016000909190919091505550565b600060016126ba84610d51565b6126c4919061408d565b90506000600760008481526020019081526020016000205490508181146127a9576000600660008673ffffffffffffffffffffffffffffffffffffffff1673ffffffffffffffffffffffffffffffffffffffff168152602001908152602001600020600084815260200190815260200160002054905080600660008773ffffffffffffffffffffffffffffffffffffffff1673ffffffffffffffffffffffffffffffffffffffff168152602001908152602001600020600084815260200190815260200160002081905550816007600083815260200190815260200160002081905550505b6007600084815260200190815260200160002060009055600660008573ffffffffffffffffffffffffffffffffffffffff1673ffffffffffffffffffffffffffffffffffffffff16815260200190815260200160002060008381526020019081526020016000206000905550505050565b6000600160088054905061282e919061408d565b905060006009600084815260200190815260200160002054905060006008838154811061285e5761285d6137e5565b5b9060005260206000200154905080600883815481106128805761287f6137e5565b5b9060005260206000200181905550816009600083815260200190815260200160002081905550600960008581526020019081526020016000206000905560088054806128cf576128ce61434d565b5b6001900381819060005260206000200160009055905550505050565b60006128f683610d51565b905081600660008573ffffffffffffffffffffffffffffffffffffffff1673ffffffffffffffffffffffffffffffffffffffff168152602001908152602001600020600083815260200190815260200160002081905550806007600084815260200190815260200160002081905550505050565b600080823b905060008111915050919050565b600073ffffffffffffffffffffffffffffffffffffffff168273ffffffffffffffffffffffffffffffffffffffff1614156129ed576040517f08c379a00000000000000000000000000000000000000000000000000000000081526004016129e4906143c8565b60405180910390fd5b6129f681611a90565b15612a36576040517f08c379a0000000000000000000000000000000000000000000000000000000008152600401612a2d90614434565b60405180910390fd5b612a4260008383612359565b6001600360008473ffffffffffffffffffffffffffffffffffffffff1673ffffffffffffffffffffffffffffffffffffffff1681526020019081526020016000206000828254612a9291906140c1565b92505081905550816002600083815260200190815260200160002060006101000a81548173ffffffffffffffffffffffffffffffffffffffff021916908373ffffffffffffffffffffffffffffffffffffffff160217905550808273ffffffffffffffffffffffffffffffffffffffff16600073ffffffffffffffffffffffffffffffffffffffff167fddf252ad1be2c89b69c2b068fc378daa952ba7f163c4a11628f55a4df523b3ef60405160405180910390a45050565b828054612b57906133db565b90600052602060002090601f016020900481019282612b795760008555612bc0565b82601f10612b9257805160ff1916838001178555612bc0565b82800160010185558215612bc0579182015b82811115612bbf578251825591602001919060010190612ba4565b5b509050612bcd9190612bd1565b5090565b5b80821115612bea576000816000905550600101612bd2565b5090565b6000604051905090565b600080fd5b600080fd5b60007fffffffff0000000000000000000000000000000000000000000000000000000082169050919050565b612c3781612c02565b8114612c4257600080fd5b50565b600081359050612c5481612c2e565b92915050565b600060208284031215612c7057612c6f612bf8565b5b6000612c7e84828501612c45565b91505092915050565b60008115159050919050565b612c9c81612c87565b82525050565b6000602082019050612cb76000830184612c93565b92915050565b600081519050919050565b600082825260208201905092915050565b60005b83811015612cf7578082015181840152602081019050612cdc565b83811115612d06576000848401525b50505050565b6000601f19601f8301169050919050565b6000612d2882612cbd565b612d328185612cc8565b9350612d42818560208601612cd9565b612d4b81612d0c565b840191505092915050565b60006020820190508181036000830152612d708184612d1d565b905092915050565b6000819050919050565b612d8b81612d78565b8114612d9657600080fd5b50565b600081359050612da881612d82565b92915050565b600060208284031215612dc457612dc3612bf8565b5b6000612dd284828501612d99565b91505092915050565b600073ffffffffffffffffffffffffffffffffffffffff82169050919050565b6000612e0682612ddb565b9050919050565b612e1681612dfb565b82525050565b6000602082019050612e316000830184612e0d565b92915050565b612e4081612dfb565b8114612e4b57600080fd5b50565b600081359050612e5d81612e37565b92915050565b60008060408385031215612e7a57612e79612bf8565b5b6000612e8885828601612e4e565b9250506020612e9985828601612d99565b9150509250929050565b612eac81612d78565b82525050565b6000602082019050612ec76000830184612ea3565b92915050565b600080600060608486031215612ee657612ee5612bf8565b5b6000612ef486828701612e4e565b9350506020612f0586828701612e4e565b9250506040612f1686828701612d99565b9150509250925092565b600080fd5b600080fd5b7f4e487b7100000000000000000000000000000000000000000000000000000000600052604160045260246000fd5b612f6282612d0c565b810181811067ffffffffffffffff82111715612f8157612f80612f2a565b5b80604052505050565b6000612f94612bee565b9050612fa08282612f59565b919050565b600067ffffffffffffffff821115612fc057612fbf612f2a565b5b612fc982612d0c565b9050602081019050919050565b82818337600083830152505050565b6000612ff8612ff384612fa5565b612f8a565b90508281526020810184848401111561301457613013612f25565b5b61301f848285612fd6565b509392505050565b600082601f83011261303c5761303b612f20565b5b813561304c848260208601612fe5565b91505092915050565b60006020828403121561306b5761306a612bf8565b5b600082013567ffffffffffffffff81111561308957613088612bfd565b5b61309584828501613027565b91505092915050565b6000602082840312156130b4576130b3612bf8565b5b60006130c284828501612e4e565b91505092915050565b6130d481612c87565b81146130df57600080fd5b50565b6000813590506130f1816130cb565b92915050565b6000806040838503121561310e5761310d612bf8565b5b600061311c85828601612e4e565b925050602061312d858286016130e2565b9150509250929050565b600067ffffffffffffffff82111561315257613151612f2a565b5b61315b82612d0c565b9050602081019050919050565b600061317b61317684613137565b612f8a565b90508281526020810184848401111561319757613196612f25565b5b6131a2848285612fd6565b509392505050565b600082601f8301126131bf576131be612f20565b5b81356131cf848260208601613168565b91505092915050565b600080600080608085870312156131f2576131f1612bf8565b5b600061320087828801612e4e565b945050602061321187828801612e4e565b935050604061322287828801612d99565b925050606085013567ffffffffffffffff81111561324357613242612bfd565b5b61324f878288016131aa565b91505092959194509250565b600067ffffffffffffffff82111561327657613275612f2a565b5b602082029050602081019050919050565b600080fd5b600061329f61329a8461325b565b612f8a565b905080838252602082019050602084028301858111156132c2576132c1613287565b5b835b818110156132eb57806132d78882612d99565b8452602084019350506020810190506132c4565b5050509392505050565b600082601f83011261330a57613309612f20565b5b813561331a84826020860161328c565b91505092915050565b60006020828403121561333957613338612bf8565b5b600082013567ffffffffffffffff81111561335757613356612bfd565b5b613363848285016132f5565b91505092915050565b6000806040838503121561338357613382612bf8565b5b600061339185828601612e4e565b92505060206133a285828601612e4e565b9150509250929050565b7f4e487b7100000000000000000000000000000000000000000000000000000000600052602260045260246000fd5b600060028204905060018216806133f357607f821691505b60208210811415613407576134066133ac565b5b50919050565b7f4552433732313a20617070726f76656420717565727920666f72206e6f6e657860008201527f697374656e7420746f6b656e0000000000000000000000000000000000000000602082015250565b6000613469602c83612cc8565b91506134748261340d565b604082019050919050565b600060208201905081810360008301526134988161345c565b9050919050565b7f4552433732313a20617070726f76616c20746f2063757272656e74206f776e6560008201527f7200000000000000000000000000000000000000000000000000000000000000602082015250565b60006134fb602183612cc8565b91506135068261349f565b604082019050919050565b6000602082019050818103600083015261352a816134ee565b9050919050565b7f4552433732313a20617070726f76652063616c6c6572206973206e6f74206f7760008201527f6e6572206e6f7220617070726f76656420666f7220616c6c0000000000000000602082015250565b600061358d603883612cc8565b915061359882613531565b604082019050919050565b600060208201905081810360008301526135bc81613580565b9050919050565b7f4552433732313a207472616e736665722063616c6c6572206973206e6f74206f60008201527f776e6572206e6f7220617070726f766564000000000000000000000000000000602082015250565b600061361f603183612cc8565b915061362a826135c3565b604082019050919050565b6000602082019050818103600083015261364e81613612565b9050919050565b7f455243373231456e756d657261626c653a206f776e657220696e646578206f7560008201527f74206f6620626f756e6473000000000000000000000000000000000000000000602082015250565b60006136b1602b83612cc8565b91506136bc82613655565b604082019050919050565b600060208201905081810360008301526136e0816136a4565b9050919050565b7f4f776e61626c653a2063616c6c6572206973206e6f7420746865206f776e6572600082015250565b600061371d602083612cc8565b9150613728826136e7565b602082019050919050565b6000602082019050818103600083015261374c81613710565b9050919050565b7f455243373231456e756d657261626c653a20676c6f62616c20696e646578206f60008201527f7574206f6620626f756e64730000000000000000000000000000000000000000602082015250565b60006137af602c83612cc8565b91506137ba82613753565b604082019050919050565b600060208201905081810360008301526137de816137a2565b9050919050565b7f4e487b7100000000000000000000000000000000000000000000000000000000600052603260045260246000fd5b7f4552433732313a206f776e657220717565727920666f72206e6f6e657869737460008201527f656e7420746f6b656e0000000000000000000000000000000000000000000000602082015250565b6000613870602983612cc8565b915061387b82613814565b604082019050919050565b6000602082019050818103600083015261389f81613863565b9050919050565b7f4552433732313a2062616c616e636520717565727920666f7220746865207a6560008201527f726f206164647265737300000000000000000000000000000000000000000000602082015250565b6000613902602a83612cc8565b915061390d826138a6565b604082019050919050565b60006020820190508181036000830152613931816138f5565b9050919050565b7f4552433732313a20617070726f766520746f2063616c6c657200000000000000600082015250565b600061396e601983612cc8565b915061397982613938565b602082019050919050565b6000602082019050818103600083015261399d81613961565b9050919050565b7f4552433732314d657461646174613a2055524920717565727920666f72206e6f60008201527f6e6578697374656e7420746f6b656e0000000000000000000000000000000000602082015250565b6000613a00602f83612cc8565b9150613a0b826139a4565b604082019050919050565b60006020820190508181036000830152613a2f816139f3565b9050919050565b600081905092915050565b6000613a4c82612cbd565b613a568185613a36565b9350613a66818560208601612cd9565b80840191505092915050565b6000613a7e8285613a41565b9150613a8a8284613a41565b91508190509392505050565b7f5265656e7472616e637947756172643a207265656e7472616e742063616c6c00600082015250565b6000613acc601f83612cc8565b9150613ad782613a96565b602082019050919050565b60006020820190508181036000830152613afb81613abf565b9050919050565b600081519050613b1181612e37565b92915050565b600060208284031215613b2d57613b2c612bf8565b5b6000613b3b84828501613b02565b91505092915050565b7f4e6f74206120446576656c6f7065722044414f20546f6b656e206f776e65722e600082015250565b6000613b7a602083612cc8565b9150613b8582613b44565b602082019050919050565b60006020820190508181036000830152613ba981613b6d565b9050919050565b7f4e487b7100000000000000000000000000000000000000000000000000000000600052601160045260246000fd5b6000613bea82612d78565b91507fffffffffffffffffffffffffffffffffffffffffffffffffffffffffffffffff821415613c1d57613c1c613bb0565b5b600182019050919050565b6000613c3382612d78565b9150613c3e83612d78565b9250817fffffffffffffffffffffffffffffffffffffffffffffffffffffffffffffffff0483118215151615613c7757613c76613bb0565b5b828202905092915050565b7f45746865722076616c75652073656e74206973206e6f7420636f727265637400600082015250565b6000613cb8601f83612cc8565b9150613cc382613c82565b602082019050919050565b60006020820190508181036000830152613ce781613cab565b9050919050565b7f4f776e61626c653a206e6577206f776e657220697320746865207a65726f206160008201527f6464726573730000000000000000000000000000000000000000000000000000602082015250565b6000613d4a602683612cc8565b9150613d5582613cee565b604082019050919050565b60006020820190508181036000830152613d7981613d3d565b9050919050565b7f4e6f7420612076616c696420446576656c6f7065722044414f20546f6b656e2060008201527f49442e0000000000000000000000000000000000000000000000000000000000602082015250565b6000613ddc602383612cc8565b9150613de782613d80565b604082019050919050565b60006020820190508181036000830152613e0b81613dcf565b9050919050565b7f4e6f7420656e6f7567682065746865722073656e740000000000000000000000600082015250565b6000613e48601583612cc8565b9150613e5382613e12565b602082019050919050565b60006020820190508181036000830152613e7781613e3b565b9050919050565b6000604082019050613e936000830185612e0d565b613ea06020830184612ea3565b9392505050565b60006040820190508181036000830152613ec18185612d1d565b9050613ed06020830184612e0d565b9392505050565b7f4552433732313a206f70657261746f7220717565727920666f72206e6f6e657860008201527f697374656e7420746f6b656e0000000000000000000000000000000000000000602082015250565b6000613f33602c83612cc8565b9150613f3e82613ed7565b604082019050919050565b60006020820190508181036000830152613f6281613f26565b9050919050565b7f4552433732313a207472616e73666572206f6620746f6b656e2074686174206960008201527f73206e6f74206f776e0000000000000000000000000000000000000000000000602082015250565b6000613fc5602983612cc8565b9150613fd082613f69565b604082019050919050565b60006020820190508181036000830152613ff481613fb8565b9050919050565b7f4552433732313a207472616e7366657220746f20746865207a65726f2061646460008201527f7265737300000000000000000000000000000000000000000000000000000000602082015250565b6000614057602483612cc8565b915061406282613ffb565b604082019050919050565b600060208201905081810360008301526140868161404a565b9050919050565b600061409882612d78565b91506140a383612d78565b9250828210156140b6576140b5613bb0565b5b828203905092915050565b60006140cc82612d78565b91506140d783612d78565b9250827fffffffffffffffffffffffffffffffffffffffffffffffffffffffffffffffff0382111561410c5761410b613bb0565b5b828201905092915050565b7f4552433732313a207472616e7366657220746f206e6f6e20455243373231526560008201527f63656976657220696d706c656d656e7465720000000000000000000000000000602082015250565b6000614173603283612cc8565b915061417e82614117565b604082019050919050565b600060208201905081810360008301526141a281614166565b9050919050565b7f4e487b7100000000000000000000000000000000000000000000000000000000600052601260045260246000fd5b60006141e382612d78565b91506141ee83612d78565b9250826141fe576141fd6141a9565b5b828204905092915050565b600061421482612d78565b915061421f83612d78565b92508261422f5761422e6141a9565b5b828206905092915050565b600060408201905081810360008301526142548185612d1d565b90506142636020830184612ea3565b9392505050565b600081519050919050565b600082825260208201905092915050565b60006142918261426a565b61429b8185614275565b93506142ab818560208601612cd9565b6142b481612d0c565b840191505092915050565b60006080820190506142d46000830187612e0d565b6142e16020830186612e0d565b6142ee6040830185612ea3565b81810360608301526143008184614286565b905095945050505050565b60008151905061431a81612c2e565b92915050565b60006020828403121561433657614335612bf8565b5b60006143448482850161430b565b91505092915050565b7f4e487b7100000000000000000000000000000000000000000000000000000000600052603160045260246000fd5b7f4552433732313a206d696e7420746f20746865207a65726f2061646472657373600082015250565b60006143b2602083612cc8565b91506143bd8261437c565b602082019050919050565b600060208201905081810360008301526143e1816143a5565b9050919050565b7f4552433732313a20746f6b656e20616c7265616479206d696e74656400000000600082015250565b600061441e601c83612cc8565b9150614429826143e8565b602082019050919050565b6000602082019050818103600083015261444d81614411565b905091905056fe6d756c74694d696e745769746844657644616f546f6b656e207c2027257327206d696e7465646d696e745769746844657644616f546f6b656e207c205f64657644616f546f6b656e496420272573276d756c74694d696e745769746844657644616f546f6b656e207c206d696e74696e672027257327202e2e2ea264697066735822122095976d6c09ed781409e6a7881d9050ed28fa4f6416e4138228b38c715eefb99064736f6c63430008090033697066733a2f2f516d555648353174696779454e7a7755687354763134645637657961566f366f486f654344334a48443972466e562f",
    "linkReferences": {},
    "deployedLinkReferences": {}
}