{
  "_format": "hh-sol-artifact-1",
  "contractName": "PixelAvatars",
  "sourceName": "contracts/PixelAvatars.sol",
  "abi": [
    {
      "anonymous": false,
      "inputs": [
        {
          "indexed": true,
          "internalType": "address",
          "name": "owner",
          "type": "address"
        },
        {
          "indexed": true,
          "internalType": "address",
          "name": "approved",
          "type": "address"
        },
        {
          "indexed": true,
          "internalType": "uint256",
          "name": "tokenId",
          "type": "uint256"
        }
      ],
      "name": "Approval",
      "type": "event"
    },
    {
      "anonymous": false,
      "inputs": [
        {
          "indexed": true,
          "internalType": "address",
          "name": "owner",
          "type": "address"
        },
        {
          "indexed": true,
          "internalType": "address",
          "name": "operator",
          "type": "address"
        },
        {
          "indexed": false,
          "internalType": "bool",
          "name": "approved",
          "type": "bool"
        }
      ],
      "name": "ApprovalForAll",
      "type": "event"
    },
    {
      "anonymous": false,
      "inputs": [
        {
          "indexed": false,
          "internalType": "address",
          "name": "minter",
          "type": "address"
        },
        {
          "indexed": false,
          "internalType": "uint256",
          "name": "tokenId",
          "type": "uint256"
        }
      ],
      "name": "LogTokenMinted",
      "type": "event"
    },
    {
      "anonymous": false,
      "inputs": [
        {
          "indexed": true,
          "internalType": "address",
          "name": "previousOwner",
          "type": "address"
        },
        {
          "indexed": true,
          "internalType": "address",
          "name": "newOwner",
          "type": "address"
        }
      ],
      "name": "OwnershipTransferred",
      "type": "event"
    },
    {
      "anonymous": false,
      "inputs": [
        {
          "indexed": true,
          "internalType": "address",
          "name": "from",
          "type": "address"
        },
        {
          "indexed": true,
          "internalType": "address",
          "name": "to",
          "type": "address"
        },
        {
          "indexed": true,
          "internalType": "uint256",
          "name": "tokenId",
          "type": "uint256"
        }
      ],
      "name": "Transfer",
      "type": "event"
    },
    {
      "inputs": [
        {
          "internalType": "address",
          "name": "to",
          "type": "address"
        },
        {
          "internalType": "uint256",
          "name": "tokenId",
          "type": "uint256"
        }
      ],
      "name": "approve",
      "outputs": [],
      "stateMutability": "nonpayable",
      "type": "function"
    },
    {
      "inputs": [
        {
          "internalType": "address",
          "name": "owner",
          "type": "address"
        }
      ],
      "name": "balanceOf",
      "outputs": [
        {
          "internalType": "uint256",
          "name": "",
          "type": "uint256"
        }
      ],
      "stateMutability": "view",
      "type": "function"
    },
    {
      "inputs": [],
      "name": "baseURI",
      "outputs": [
        {
          "internalType": "string",
          "name": "",
          "type": "string"
        }
      ],
      "stateMutability": "view",
      "type": "function"
    },
    {
      "inputs": [
        {
          "internalType": "uint256",
          "name": "tokenId",
          "type": "uint256"
        }
      ],
      "name": "getApproved",
      "outputs": [
        {
          "internalType": "address",
          "name": "",
          "type": "address"
        }
      ],
      "stateMutability": "view",
      "type": "function"
    },
    {
      "inputs": [],
      "name": "initialize",
      "outputs": [],
      "stateMutability": "nonpayable",
      "type": "function"
    },
    {
      "inputs": [
        {
          "internalType": "address",
          "name": "owner",
          "type": "address"
        },
        {
          "internalType": "address",
          "name": "operator",
          "type": "address"
        }
      ],
      "name": "isApprovedForAll",
      "outputs": [
        {
          "internalType": "bool",
          "name": "",
          "type": "bool"
        }
      ],
      "stateMutability": "view",
      "type": "function"
    },
    {
      "inputs": [],
      "name": "mintPrice",
      "outputs": [
        {
          "internalType": "uint256",
          "name": "",
          "type": "uint256"
        }
      ],
      "stateMutability": "view",
      "type": "function"
    },
    {
      "inputs": [
        {
          "internalType": "uint256",
          "name": "tokenId",
          "type": "uint256"
        },
        {
          "internalType": "uint256",
          "name": "deadline",
          "type": "uint256"
        },
        {
          "internalType": "uint8",
          "name": "v",
          "type": "uint8"
        },
        {
          "internalType": "bytes32",
          "name": "r",
          "type": "bytes32"
        },
        {
          "internalType": "bytes32",
          "name": "s",
          "type": "bytes32"
        }
      ],
      "name": "mintWithSignature",
      "outputs": [],
      "stateMutability": "payable",
      "type": "function"
    },
    {
      "inputs": [],
      "name": "name",
      "outputs": [
        {
          "internalType": "string",
          "name": "",
          "type": "string"
        }
      ],
      "stateMutability": "view",
      "type": "function"
    },
    {
      "inputs": [],
      "name": "owner",
      "outputs": [
        {
          "internalType": "address",
          "name": "",
          "type": "address"
        }
      ],
      "stateMutability": "view",
      "type": "function"
    },
    {
      "inputs": [
        {
          "internalType": "uint256",
          "name": "tokenId",
          "type": "uint256"
        }
      ],
      "name": "ownerOf",
      "outputs": [
        {
          "internalType": "address",
          "name": "",
          "type": "address"
        }
      ],
      "stateMutability": "view",
      "type": "function"
    },
    {
      "inputs": [],
      "name": "renounceOwnership",
      "outputs": [],
      "stateMutability": "nonpayable",
      "type": "function"
    },
    {
      "inputs": [
        {
          "internalType": "address",
          "name": "from",
          "type": "address"
        },
        {
          "internalType": "address",
          "name": "to",
          "type": "address"
        },
        {
          "internalType": "uint256",
          "name": "tokenId",
          "type": "uint256"
        }
      ],
      "name": "safeTransferFrom",
      "outputs": [],
      "stateMutability": "nonpayable",
      "type": "function"
    },
    {
      "inputs": [
        {
          "internalType": "address",
          "name": "from",
          "type": "address"
        },
        {
          "internalType": "address",
          "name": "to",
          "type": "address"
        },
        {
          "internalType": "uint256",
          "name": "tokenId",
          "type": "uint256"
        },
        {
          "internalType": "bytes",
          "name": "_data",
          "type": "bytes"
        }
      ],
      "name": "safeTransferFrom",
      "outputs": [],
      "stateMutability": "nonpayable",
      "type": "function"
    },
    {
      "inputs": [],
      "name": "serverAddress",
      "outputs": [
        {
          "internalType": "address",
          "name": "",
          "type": "address"
        }
      ],
      "stateMutability": "view",
      "type": "function"
    },
    {
      "inputs": [
        {
          "internalType": "address",
          "name": "operator",
          "type": "address"
        },
        {
          "internalType": "bool",
          "name": "approved",
          "type": "bool"
        }
      ],
      "name": "setApprovalForAll",
      "outputs": [],
      "stateMutability": "nonpayable",
      "type": "function"
    },
    {
      "inputs": [
        {
          "internalType": "string",
          "name": "_newBaseURI",
          "type": "string"
        }
      ],
      "name": "setBaseURI",
      "outputs": [],
      "stateMutability": "nonpayable",
      "type": "function"
    },
    {
      "inputs": [
        {
          "internalType": "uint256",
          "name": "_newPrice",
          "type": "uint256"
        }
      ],
      "name": "setMintPrice",
      "outputs": [],
      "stateMutability": "nonpayable",
      "type": "function"
    },
    {
      "inputs": [
        {
          "internalType": "address",
          "name": "_address",
          "type": "address"
        }
      ],
      "name": "setServerAddress",
      "outputs": [],
      "stateMutability": "nonpayable",
      "type": "function"
    },
    {
      "inputs": [
        {
          "internalType": "bytes4",
          "name": "interfaceId",
          "type": "bytes4"
        }
      ],
      "name": "supportsInterface",
      "outputs": [
        {
          "internalType": "bool",
          "name": "",
          "type": "bool"
        }
      ],
      "stateMutability": "view",
      "type": "function"
    },
    {
      "inputs": [],
      "name": "symbol",
      "outputs": [
        {
          "internalType": "string",
          "name": "",
          "type": "string"
        }
      ],
      "stateMutability": "view",
      "type": "function"
    },
    {
      "inputs": [
        {
          "internalType": "uint256",
          "name": "index",
          "type": "uint256"
        }
      ],
      "name": "tokenByIndex",
      "outputs": [
        {
          "internalType": "uint256",
          "name": "",
          "type": "uint256"
        }
      ],
      "stateMutability": "view",
      "type": "function"
    },
    {
      "inputs": [
        {
          "internalType": "address",
          "name": "owner",
          "type": "address"
        },
        {
          "internalType": "uint256",
          "name": "index",
          "type": "uint256"
        }
      ],
      "name": "tokenOfOwnerByIndex",
      "outputs": [
        {
          "internalType": "uint256",
          "name": "",
          "type": "uint256"
        }
      ],
      "stateMutability": "view",
      "type": "function"
    },
    {
      "inputs": [
        {
          "internalType": "uint256",
          "name": "tokenId",
          "type": "uint256"
        }
      ],
      "name": "tokenURI",
      "outputs": [
        {
          "internalType": "string",
          "name": "",
          "type": "string"
        }
      ],
      "stateMutability": "view",
      "type": "function"
    },
    {
      "inputs": [],
      "name": "totalSupply",
      "outputs": [
        {
          "internalType": "uint256",
          "name": "",
          "type": "uint256"
        }
      ],
      "stateMutability": "view",
      "type": "function"
    },
    {
      "inputs": [
        {
          "internalType": "address",
          "name": "from",
          "type": "address"
        },
        {
          "internalType": "address",
          "name": "to",
          "type": "address"
        },
        {
          "internalType": "uint256",
          "name": "tokenId",
          "type": "uint256"
        }
      ],
      "name": "transferFrom",
      "outputs": [],
      "stateMutability": "nonpayable",
      "type": "function"
    },
    {
      "inputs": [
        {
          "internalType": "address",
          "name": "newOwner",
          "type": "address"
        }
      ],
      "name": "transferOwnership",
      "outputs": [],
      "stateMutability": "nonpayable",
      "type": "function"
    },
    {
      "inputs": [],
      "name": "withdraw",
      "outputs": [],
      "stateMutability": "nonpayable",
      "type": "function"
    }
  ],
  "bytecode": "0x608060405234801561001057600080fd5b506146e0806100206000396000f3fe6080604052600436106101b75760003560e01c80636c0360eb116100ec578063a22cb4651161008a578063db420fe311610064578063db420fe3146105e9578063e985e9c514610614578063f2fde38b14610651578063f4a0a5281461067a576101b7565b8063a22cb4651461055a578063b88d4fde14610583578063c87b56dd146105ac576101b7565b8063715018a6116100c6578063715018a6146104d65780638129fc1c146104ed5780638da5cb5b1461050457806395d89b411461052f576101b7565b80636c0360eb1461045257806370485b661461047d57806370a0823114610499576101b7565b80633ccfd60b116101595780634f6ccce7116101335780634f6ccce71461038457806355f804b3146103c15780636352211e146103ea5780636817c76c14610427576101b7565b80633ccfd60b1461031b57806342842e0e1461033257806347b64eb01461035b576101b7565b8063095ea7b311610195578063095ea7b31461026157806318160ddd1461028a57806323b872dd146102b55780632f745c59146102de576101b7565b806301ffc9a7146101bc57806306fdde03146101f9578063081812fc14610224575b600080fd5b3480156101c857600080fd5b506101e360048036038101906101de9190612d92565b6106a3565b6040516101f09190612dda565b60405180910390f35b34801561020557600080fd5b5061020e61071d565b60405161021b9190612e8e565b60405180910390f35b34801561023057600080fd5b5061024b60048036038101906102469190612ee6565b6107af565b6040516102589190612f54565b60405180910390f35b34801561026d57600080fd5b5061028860048036038101906102839190612f9b565b610834565b005b34801561029657600080fd5b5061029f61094c565b6040516102ac9190612fea565b60405180910390f35b3480156102c157600080fd5b506102dc60048036038101906102d79190613005565b610959565b005b3480156102ea57600080fd5b5061030560048036038101906103009190612f9b565b6109b9565b6040516103129190612fea565b60405180910390f35b34801561032757600080fd5b50610330610a5e565b005b34801561033e57600080fd5b5061035960048036038101906103549190613005565b610b23565b005b34801561036757600080fd5b50610382600480360381019061037d9190613058565b610b43565b005b34801561039057600080fd5b506103ab60048036038101906103a69190612ee6565b610c04565b6040516103b89190612fea565b60405180910390f35b3480156103cd57600080fd5b506103e860048036038101906103e391906131ba565b610c75565b005b3480156103f657600080fd5b50610411600480360381019061040c9190612ee6565b610d0c565b60405161041e9190612f54565b60405180910390f35b34801561043357600080fd5b5061043c610dbe565b6040516104499190612fea565b60405180910390f35b34801561045e57600080fd5b50610467610dc5565b6040516104749190612e8e565b60405180910390f35b61049760048036038101906104929190613272565b610e54565b005b3480156104a557600080fd5b506104c060048036038101906104bb9190613058565b6110e5565b6040516104cd9190612fea565b60405180910390f35b3480156104e257600080fd5b506104eb61119d565b005b3480156104f957600080fd5b50610502611225565b005b34801561051057600080fd5b506105196113c5565b6040516105269190612f54565b60405180910390f35b34801561053b57600080fd5b506105446113ef565b6040516105519190612e8e565b60405180910390f35b34801561056657600080fd5b50610581600480360381019061057c9190613319565b611481565b005b34801561058f57600080fd5b506105aa60048036038101906105a591906133fa565b611497565b005b3480156105b857600080fd5b506105d360048036038101906105ce9190612ee6565b6114f9565b6040516105e09190612e8e565b60405180910390f35b3480156105f557600080fd5b506105fe6115a0565b60405161060b9190612f54565b60405180910390f35b34801561062057600080fd5b5061063b6004803603810190610636919061347d565b6115c7565b6040516106489190612dda565b60405180910390f35b34801561065d57600080fd5b5061067860048036038101906106739190613058565b61165b565b005b34801561068657600080fd5b506106a1600480360381019061069c9190612ee6565b611753565b005b60007f780e9d63000000000000000000000000000000000000000000000000000000007bffffffffffffffffffffffffffffffffffffffffffffffffffffffff1916827bffffffffffffffffffffffffffffffffffffffffffffffffffffffff191614806107165750610715826117da565b5b9050919050565b60606065805461072c906134ec565b80601f0160208091040260200160405190810160405280929190818152602001828054610758906134ec565b80156107a55780601f1061077a576101008083540402835291602001916107a5565b820191906000526020600020905b81548152906001019060200180831161078857829003601f168201915b5050505050905090565b60006107ba826118bc565b6107f9576040517f08c379a00000000000000000000000000000000000000000000000000000000081526004016107f090613590565b60405180910390fd5b6069600083815260200190815260200160002060009054906101000a900473ffffffffffffffffffffffffffffffffffffffff169050919050565b600061083f82610d0c565b90508073ffffffffffffffffffffffffffffffffffffffff168373ffffffffffffffffffffffffffffffffffffffff1614156108b0576040517f08c379a00000000000000000000000000000000000000000000000000000000081526004016108a790613622565b60405180910390fd5b8073ffffffffffffffffffffffffffffffffffffffff166108cf611928565b73ffffffffffffffffffffffffffffffffffffffff1614806108fe57506108fd816108f8611928565b6115c7565b5b61093d576040517f08c379a0000000000000000000000000000000000000000000000000000000008152600401610934906136b4565b60405180910390fd5b6109478383611930565b505050565b6000609980549050905090565b61096a610964611928565b826119e9565b6109a9576040517f08c379a00000000000000000000000000000000000000000000000000000000081526004016109a090613746565b60405180910390fd5b6109b4838383611ac7565b505050565b60006109c4836110e5565b8210610a05576040517f08c379a00000000000000000000000000000000000000000000000000000000081526004016109fc906137d8565b60405180910390fd5b609760008473ffffffffffffffffffffffffffffffffffffffff1673ffffffffffffffffffffffffffffffffffffffff168152602001908152602001600020600083815260200190815260200160002054905092915050565b610a66611928565b73ffffffffffffffffffffffffffffffffffffffff16610a846113c5565b73ffffffffffffffffffffffffffffffffffffffff1614610ada576040517f08c379a0000000000000000000000000000000000000000000000000000000008152600401610ad190613844565b60405180910390fd5b3373ffffffffffffffffffffffffffffffffffffffff166108fc479081150290604051600060405180830381858888f19350505050158015610b20573d6000803e3d6000fd5b50565b610b3e83838360405180602001604052806000815250611497565b505050565b610b4b611928565b73ffffffffffffffffffffffffffffffffffffffff16610b696113c5565b73ffffffffffffffffffffffffffffffffffffffff1614610bbf576040517f08c379a0000000000000000000000000000000000000000000000000000000008152600401610bb690613844565b60405180910390fd5b8061012f60006101000a81548173ffffffffffffffffffffffffffffffffffffffff021916908373ffffffffffffffffffffffffffffffffffffffff16021790555050565b6000610c0e61094c565b8210610c4f576040517f08c379a0000000000000000000000000000000000000000000000000000000008152600401610c46906138d6565b60405180910390fd5b60998281548110610c6357610c626138f6565b5b90600052602060002001549050919050565b610c7d611928565b73ffffffffffffffffffffffffffffffffffffffff16610c9b6113c5565b73ffffffffffffffffffffffffffffffffffffffff1614610cf1576040517f08c379a0000000000000000000000000000000000000000000000000000000008152600401610ce890613844565b60405180910390fd5b8061012d9080519060200190610d08929190612c83565b5050565b6000806067600084815260200190815260200160002060009054906101000a900473ffffffffffffffffffffffffffffffffffffffff169050600073ffffffffffffffffffffffffffffffffffffffff168173ffffffffffffffffffffffffffffffffffffffff161415610db5576040517f08c379a0000000000000000000000000000000000000000000000000000000008152600401610dac90613997565b60405180910390fd5b80915050919050565b61012e5481565b61012d8054610dd3906134ec565b80601f0160208091040260200160405190810160405280929190818152602001828054610dff906134ec565b8015610e4c5780601f10610e2157610100808354040283529160200191610e4c565b820191906000526020600020905b815481529060010190602001808311610e2f57829003601f168201915b505050505081565b600260c9541415610e9a576040517f08c379a0000000000000000000000000000000000000000000000000000000008152600401610e9190613a03565b60405180910390fd5b600260c98190555084848484846000610eb286611d23565b33610ebc87611d23565b604051602001610ece93929190613b8b565b604051602081830303815290604052905060006001828051906020012086868660405160008152602001604052604051610f0b9493929190613bff565b6020604051602081039080840390855afa158015610f2d573d6000803e3d6000fd5b50505060206040510351905061012f60009054906101000a900473ffffffffffffffffffffffffffffffffffffffff1673ffffffffffffffffffffffffffffffffffffffff168173ffffffffffffffffffffffffffffffffffffffff16146040518060400160405280601881526020017f496e76616c696420736572766572207369676e6174757265000000000000000081525090611002576040517f08c379a0000000000000000000000000000000000000000000000000000000008152600401610ff99190612e8e565b60405180910390fd5b5085421115611046576040517f08c379a000000000000000000000000000000000000000000000000000000000815260040161103d90613c90565b60405180910390fd5b3461012e54111561108c576040517f08c379a000000000000000000000000000000000000000000000000000000000815260040161108390613cfc565b60405180910390fd5b611096338d611e84565b7ff63a93365d60efe8aa58f99ad14d3d0689101e5ed3937e83089863d1812f4b64338d6040516110c7929190613d1c565b60405180910390a150505050505050600160c9819055505050505050565b60008073ffffffffffffffffffffffffffffffffffffffff168273ffffffffffffffffffffffffffffffffffffffff161415611156576040517f08c379a000000000000000000000000000000000000000000000000000000000815260040161114d90613db7565b60405180910390fd5b606860008373ffffffffffffffffffffffffffffffffffffffff1673ffffffffffffffffffffffffffffffffffffffff168152602001908152602001600020549050919050565b6111a5611928565b73ffffffffffffffffffffffffffffffffffffffff166111c36113c5565b73ffffffffffffffffffffffffffffffffffffffff1614611219576040517f08c379a000000000000000000000000000000000000000000000000000000000815260040161121090613844565b60405180910390fd5b6112236000611ea2565b565b600060019054906101000a900460ff1661124d5760008054906101000a900460ff1615611256565b611255611f68565b5b611295576040517f08c379a000000000000000000000000000000000000000000000000000000000815260040161128c90613e49565b60405180910390fd5b60008060019054906101000a900460ff1615905080156112e5576001600060016101000a81548160ff02191690831515021790555060016000806101000a81548160ff0219169083151502179055505b6113596040518060400160405280600d81526020017f506978656c2041766174617273000000000000000000000000000000000000008152506040518060400160405280600781526020017f50584c4156545200000000000000000000000000000000000000000000000000815250611f79565b611361611fe6565b6040518060600160405280603681526020016146756036913961012d9080519060200190611390929190612c83565b506753444835ec58000061012e8190555080156113c25760008060016101000a81548160ff0219169083151502179055505b50565b600060fb60009054906101000a900473ffffffffffffffffffffffffffffffffffffffff16905090565b6060606680546113fe906134ec565b80601f016020809104026020016040519081016040528092919081815260200182805461142a906134ec565b80156114775780601f1061144c57610100808354040283529160200191611477565b820191906000526020600020905b81548152906001019060200180831161145a57829003601f168201915b5050505050905090565b61149361148c611928565b8383612047565b5050565b6114a86114a2611928565b836119e9565b6114e7576040517f08c379a00000000000000000000000000000000000000000000000000000000081526004016114de90613746565b60405180910390fd5b6114f3848484846121b4565b50505050565b6060611504826118bc565b611543576040517f08c379a000000000000000000000000000000000000000000000000000000000815260040161153a90613edb565b60405180910390fd5b600061154d612210565b9050600081511161156d5760405180602001604052806000815250611598565b8061157784611d23565b604051602001611588929190613efb565b6040516020818303038152906040525b915050919050565b61012f60009054906101000a900473ffffffffffffffffffffffffffffffffffffffff1681565b6000606a60008473ffffffffffffffffffffffffffffffffffffffff1673ffffffffffffffffffffffffffffffffffffffff16815260200190815260200160002060008373ffffffffffffffffffffffffffffffffffffffff1673ffffffffffffffffffffffffffffffffffffffff16815260200190815260200160002060009054906101000a900460ff16905092915050565b611663611928565b73ffffffffffffffffffffffffffffffffffffffff166116816113c5565b73ffffffffffffffffffffffffffffffffffffffff16146116d7576040517f08c379a00000000000000000000000000000000000000000000000000000000081526004016116ce90613844565b60405180910390fd5b600073ffffffffffffffffffffffffffffffffffffffff168173ffffffffffffffffffffffffffffffffffffffff161415611747576040517f08c379a000000000000000000000000000000000000000000000000000000000815260040161173e90613f91565b60405180910390fd5b61175081611ea2565b50565b61175b611928565b73ffffffffffffffffffffffffffffffffffffffff166117796113c5565b73ffffffffffffffffffffffffffffffffffffffff16146117cf576040517f08c379a00000000000000000000000000000000000000000000000000000000081526004016117c690613844565b60405180910390fd5b8061012e8190555050565b60007f80ac58cd000000000000000000000000000000000000000000000000000000007bffffffffffffffffffffffffffffffffffffffffffffffffffffffff1916827bffffffffffffffffffffffffffffffffffffffffffffffffffffffff191614806118a557507f5b5e139f000000000000000000000000000000000000000000000000000000007bffffffffffffffffffffffffffffffffffffffffffffffffffffffff1916827bffffffffffffffffffffffffffffffffffffffffffffffffffffffff1916145b806118b557506118b4826122a3565b5b9050919050565b60008073ffffffffffffffffffffffffffffffffffffffff166067600084815260200190815260200160002060009054906101000a900473ffffffffffffffffffffffffffffffffffffffff1673ffffffffffffffffffffffffffffffffffffffff1614159050919050565b600033905090565b816069600083815260200190815260200160002060006101000a81548173ffffffffffffffffffffffffffffffffffffffff021916908373ffffffffffffffffffffffffffffffffffffffff160217905550808273ffffffffffffffffffffffffffffffffffffffff166119a383610d0c565b73ffffffffffffffffffffffffffffffffffffffff167f8c5be1e5ebec7d5bd14f71427d1e84f3dd0314c0f7b2291e5b200ac8c7c3b92560405160405180910390a45050565b60006119f4826118bc565b611a33576040517f08c379a0000000000000000000000000000000000000000000000000000000008152600401611a2a90614023565b60405180910390fd5b6000611a3e83610d0c565b90508073ffffffffffffffffffffffffffffffffffffffff168473ffffffffffffffffffffffffffffffffffffffff161480611aad57508373ffffffffffffffffffffffffffffffffffffffff16611a95846107af565b73ffffffffffffffffffffffffffffffffffffffff16145b80611abe5750611abd81856115c7565b5b91505092915050565b8273ffffffffffffffffffffffffffffffffffffffff16611ae782610d0c565b73ffffffffffffffffffffffffffffffffffffffff1614611b3d576040517f08c379a0000000000000000000000000000000000000000000000000000000008152600401611b34906140b5565b60405180910390fd5b600073ffffffffffffffffffffffffffffffffffffffff168273ffffffffffffffffffffffffffffffffffffffff161415611bad576040517f08c379a0000000000000000000000000000000000000000000000000000000008152600401611ba490614147565b60405180910390fd5b611bb883838361230d565b611bc3600082611930565b6001606860008573ffffffffffffffffffffffffffffffffffffffff1673ffffffffffffffffffffffffffffffffffffffff1681526020019081526020016000206000828254611c139190614196565b925050819055506001606860008473ffffffffffffffffffffffffffffffffffffffff1673ffffffffffffffffffffffffffffffffffffffff1681526020019081526020016000206000828254611c6a91906141ca565b92505081905550816067600083815260200190815260200160002060006101000a81548173ffffffffffffffffffffffffffffffffffffffff021916908373ffffffffffffffffffffffffffffffffffffffff160217905550808273ffffffffffffffffffffffffffffffffffffffff168473ffffffffffffffffffffffffffffffffffffffff167fddf252ad1be2c89b69c2b068fc378daa952ba7f163c4a11628f55a4df523b3ef60405160405180910390a4505050565b60606000821415611d6b576040518060400160405280600181526020017f30000000000000000000000000000000000000000000000000000000000000008152509050611e7f565b600082905060005b60008214611d9d578080611d8690614220565b915050600a82611d969190614298565b9150611d73565b60008167ffffffffffffffff811115611db957611db861308f565b5b6040519080825280601f01601f191660200182016040528015611deb5781602001600182028036833780820191505090505b5090505b60008514611e7857600182611e049190614196565b9150600a85611e1391906142c9565b6030611e1f91906141ca565b60f81b818381518110611e3557611e346138f6565b5b60200101907effffffffffffffffffffffffffffffffffffffffffffffffffffffffffffff1916908160001a905350600a85611e719190614298565b9450611def565b8093505050505b919050565b611e9e828260405180602001604052806000815250612421565b5050565b600060fb60009054906101000a900473ffffffffffffffffffffffffffffffffffffffff1690508160fb60006101000a81548173ffffffffffffffffffffffffffffffffffffffff021916908373ffffffffffffffffffffffffffffffffffffffff1602179055508173ffffffffffffffffffffffffffffffffffffffff168173ffffffffffffffffffffffffffffffffffffffff167f8be0079c531659141344cd1fd0a4f28419497f9722a3daafe3b4186f6b6457e060405160405180910390a35050565b6000611f733061247c565b15905090565b600060019054906101000a900460ff16611fc8576040517f08c379a0000000000000000000000000000000000000000000000000000000008152600401611fbf9061436c565b60405180910390fd5b611fd061248f565b611fd86124e0565b611fe28282612531565b5050565b600060019054906101000a900460ff16612035576040517f08c379a000000000000000000000000000000000000000000000000000000000815260040161202c9061436c565b60405180910390fd5b61203d61248f565b6120456125b2565b565b8173ffffffffffffffffffffffffffffffffffffffff168373ffffffffffffffffffffffffffffffffffffffff1614156120b6576040517f08c379a00000000000000000000000000000000000000000000000000000000081526004016120ad906143d8565b60405180910390fd5b80606a60008573ffffffffffffffffffffffffffffffffffffffff1673ffffffffffffffffffffffffffffffffffffffff16815260200190815260200160002060008473ffffffffffffffffffffffffffffffffffffffff1673ffffffffffffffffffffffffffffffffffffffff16815260200190815260200160002060006101000a81548160ff0219169083151502179055508173ffffffffffffffffffffffffffffffffffffffff168373ffffffffffffffffffffffffffffffffffffffff167f17307eab39ab6107e8899845ad3d59bd9653f200f220920489ca2b5937696c31836040516121a79190612dda565b60405180910390a3505050565b6121bf848484611ac7565b6121cb84848484612613565b61220a576040517f08c379a00000000000000000000000000000000000000000000000000000000081526004016122019061446a565b60405180910390fd5b50505050565b606061012d8054612220906134ec565b80601f016020809104026020016040519081016040528092919081815260200182805461224c906134ec565b80156122995780601f1061226e57610100808354040283529160200191612299565b820191906000526020600020905b81548152906001019060200180831161227c57829003601f168201915b5050505050905090565b60007f01ffc9a7000000000000000000000000000000000000000000000000000000007bffffffffffffffffffffffffffffffffffffffffffffffffffffffff1916827bffffffffffffffffffffffffffffffffffffffffffffffffffffffff1916149050919050565b6123188383836127aa565b600073ffffffffffffffffffffffffffffffffffffffff168373ffffffffffffffffffffffffffffffffffffffff16141561235b57612356816127af565b61239a565b8173ffffffffffffffffffffffffffffffffffffffff168373ffffffffffffffffffffffffffffffffffffffff16146123995761239883826127f8565b5b5b600073ffffffffffffffffffffffffffffffffffffffff168273ffffffffffffffffffffffffffffffffffffffff1614156123dd576123d881612965565b61241c565b8273ffffffffffffffffffffffffffffffffffffffff168273ffffffffffffffffffffffffffffffffffffffff161461241b5761241a8282612a36565b5b5b505050565b61242b8383612ab5565b6124386000848484612613565b612477576040517f08c379a000000000000000000000000000000000000000000000000000000000815260040161246e9061446a565b60405180910390fd5b505050565b600080823b905060008111915050919050565b600060019054906101000a900460ff166124de576040517f08c379a00000000000000000000000000000000000000000000000000000000081526004016124d59061436c565b60405180910390fd5b565b600060019054906101000a900460ff1661252f576040517f08c379a00000000000000000000000000000000000000000000000000000000081526004016125269061436c565b60405180910390fd5b565b600060019054906101000a900460ff16612580576040517f08c379a00000000000000000000000000000000000000000000000000000000081526004016125779061436c565b60405180910390fd5b8160659080519060200190612596929190612c83565b5080606690805190602001906125ad929190612c83565b505050565b600060019054906101000a900460ff16612601576040517f08c379a00000000000000000000000000000000000000000000000000000000081526004016125f89061436c565b60405180910390fd5b61261161260c611928565b611ea2565b565b60006126348473ffffffffffffffffffffffffffffffffffffffff1661247c565b1561279d578373ffffffffffffffffffffffffffffffffffffffff1663150b7a0261265d611928565b8786866040518563ffffffff1660e01b815260040161267f94939291906144df565b602060405180830381600087803b15801561269957600080fd5b505af19250505080156126ca57506040513d601f19601f820116820180604052508101906126c79190614540565b60015b61274d573d80600081146126fa576040519150601f19603f3d011682016040523d82523d6000602084013e6126ff565b606091505b50600081511415612745576040517f08c379a000000000000000000000000000000000000000000000000000000000815260040161273c9061446a565b60405180910390fd5b805181602001fd5b63150b7a0260e01b7bffffffffffffffffffffffffffffffffffffffffffffffffffffffff1916817bffffffffffffffffffffffffffffffffffffffffffffffffffffffff1916149150506127a2565b600190505b949350505050565b505050565b609980549050609a600083815260200190815260200160002081905550609981908060018154018082558091505060019003906000526020600020016000909190919091505550565b60006001612805846110e5565b61280f9190614196565b90506000609860008481526020019081526020016000205490508181146128f4576000609760008673ffffffffffffffffffffffffffffffffffffffff1673ffffffffffffffffffffffffffffffffffffffff168152602001908152602001600020600084815260200190815260200160002054905080609760008773ffffffffffffffffffffffffffffffffffffffff1673ffffffffffffffffffffffffffffffffffffffff168152602001908152602001600020600084815260200190815260200160002081905550816098600083815260200190815260200160002081905550505b6098600084815260200190815260200160002060009055609760008573ffffffffffffffffffffffffffffffffffffffff1673ffffffffffffffffffffffffffffffffffffffff16815260200190815260200160002060008381526020019081526020016000206000905550505050565b600060016099805490506129799190614196565b90506000609a60008481526020019081526020016000205490506000609983815481106129a9576129a86138f6565b5b9060005260206000200154905080609983815481106129cb576129ca6138f6565b5b906000526020600020018190555081609a600083815260200190815260200160002081905550609a6000858152602001908152602001600020600090556099805480612a1a57612a1961456d565b5b6001900381819060005260206000200160009055905550505050565b6000612a41836110e5565b905081609760008573ffffffffffffffffffffffffffffffffffffffff1673ffffffffffffffffffffffffffffffffffffffff168152602001908152602001600020600083815260200190815260200160002081905550806098600084815260200190815260200160002081905550505050565b600073ffffffffffffffffffffffffffffffffffffffff168273ffffffffffffffffffffffffffffffffffffffff161415612b25576040517f08c379a0000000000000000000000000000000000000000000000000000000008152600401612b1c906145e8565b60405180910390fd5b612b2e816118bc565b15612b6e576040517f08c379a0000000000000000000000000000000000000000000000000000000008152600401612b6590614654565b60405180910390fd5b612b7a6000838361230d565b6001606860008473ffffffffffffffffffffffffffffffffffffffff1673ffffffffffffffffffffffffffffffffffffffff1681526020019081526020016000206000828254612bca91906141ca565b92505081905550816067600083815260200190815260200160002060006101000a81548173ffffffffffffffffffffffffffffffffffffffff021916908373ffffffffffffffffffffffffffffffffffffffff160217905550808273ffffffffffffffffffffffffffffffffffffffff16600073ffffffffffffffffffffffffffffffffffffffff167fddf252ad1be2c89b69c2b068fc378daa952ba7f163c4a11628f55a4df523b3ef60405160405180910390a45050565b828054612c8f906134ec565b90600052602060002090601f016020900481019282612cb15760008555612cf8565b82601f10612cca57805160ff1916838001178555612cf8565b82800160010185558215612cf8579182015b82811115612cf7578251825591602001919060010190612cdc565b5b509050612d059190612d09565b5090565b5b80821115612d22576000816000905550600101612d0a565b5090565b6000604051905090565b600080fd5b600080fd5b60007fffffffff0000000000000000000000000000000000000000000000000000000082169050919050565b612d6f81612d3a565b8114612d7a57600080fd5b50565b600081359050612d8c81612d66565b92915050565b600060208284031215612da857612da7612d30565b5b6000612db684828501612d7d565b91505092915050565b60008115159050919050565b612dd481612dbf565b82525050565b6000602082019050612def6000830184612dcb565b92915050565b600081519050919050565b600082825260208201905092915050565b60005b83811015612e2f578082015181840152602081019050612e14565b83811115612e3e576000848401525b50505050565b6000601f19601f8301169050919050565b6000612e6082612df5565b612e6a8185612e00565b9350612e7a818560208601612e11565b612e8381612e44565b840191505092915050565b60006020820190508181036000830152612ea88184612e55565b905092915050565b6000819050919050565b612ec381612eb0565b8114612ece57600080fd5b50565b600081359050612ee081612eba565b92915050565b600060208284031215612efc57612efb612d30565b5b6000612f0a84828501612ed1565b91505092915050565b600073ffffffffffffffffffffffffffffffffffffffff82169050919050565b6000612f3e82612f13565b9050919050565b612f4e81612f33565b82525050565b6000602082019050612f696000830184612f45565b92915050565b612f7881612f33565b8114612f8357600080fd5b50565b600081359050612f9581612f6f565b92915050565b60008060408385031215612fb257612fb1612d30565b5b6000612fc085828601612f86565b9250506020612fd185828601612ed1565b9150509250929050565b612fe481612eb0565b82525050565b6000602082019050612fff6000830184612fdb565b92915050565b60008060006060848603121561301e5761301d612d30565b5b600061302c86828701612f86565b935050602061303d86828701612f86565b925050604061304e86828701612ed1565b9150509250925092565b60006020828403121561306e5761306d612d30565b5b600061307c84828501612f86565b91505092915050565b600080fd5b600080fd5b7f4e487b7100000000000000000000000000000000000000000000000000000000600052604160045260246000fd5b6130c782612e44565b810181811067ffffffffffffffff821117156130e6576130e561308f565b5b80604052505050565b60006130f9612d26565b905061310582826130be565b919050565b600067ffffffffffffffff8211156131255761312461308f565b5b61312e82612e44565b9050602081019050919050565b82818337600083830152505050565b600061315d6131588461310a565b6130ef565b9050828152602081018484840111156131795761317861308a565b5b61318484828561313b565b509392505050565b600082601f8301126131a1576131a0613085565b5b81356131b184826020860161314a565b91505092915050565b6000602082840312156131d0576131cf612d30565b5b600082013567ffffffffffffffff8111156131ee576131ed612d35565b5b6131fa8482850161318c565b91505092915050565b600060ff82169050919050565b61321981613203565b811461322457600080fd5b50565b60008135905061323681613210565b92915050565b6000819050919050565b61324f8161323c565b811461325a57600080fd5b50565b60008135905061326c81613246565b92915050565b600080600080600060a0868803121561328e5761328d612d30565b5b600061329c88828901612ed1565b95505060206132ad88828901612ed1565b94505060406132be88828901613227565b93505060606132cf8882890161325d565b92505060806132e08882890161325d565b9150509295509295909350565b6132f681612dbf565b811461330157600080fd5b50565b600081359050613313816132ed565b92915050565b600080604083850312156133305761332f612d30565b5b600061333e85828601612f86565b925050602061334f85828601613304565b9150509250929050565b600067ffffffffffffffff8211156133745761337361308f565b5b61337d82612e44565b9050602081019050919050565b600061339d61339884613359565b6130ef565b9050828152602081018484840111156133b9576133b861308a565b5b6133c484828561313b565b509392505050565b600082601f8301126133e1576133e0613085565b5b81356133f184826020860161338a565b91505092915050565b6000806000806080858703121561341457613413612d30565b5b600061342287828801612f86565b945050602061343387828801612f86565b935050604061344487828801612ed1565b925050606085013567ffffffffffffffff81111561346557613464612d35565b5b613471878288016133cc565b91505092959194509250565b6000806040838503121561349457613493612d30565b5b60006134a285828601612f86565b92505060206134b385828601612f86565b9150509250929050565b7f4e487b7100000000000000000000000000000000000000000000000000000000600052602260045260246000fd5b6000600282049050600182168061350457607f821691505b60208210811415613518576135176134bd565b5b50919050565b7f4552433732313a20617070726f76656420717565727920666f72206e6f6e657860008201527f697374656e7420746f6b656e0000000000000000000000000000000000000000602082015250565b600061357a602c83612e00565b91506135858261351e565b604082019050919050565b600060208201905081810360008301526135a98161356d565b9050919050565b7f4552433732313a20617070726f76616c20746f2063757272656e74206f776e6560008201527f7200000000000000000000000000000000000000000000000000000000000000602082015250565b600061360c602183612e00565b9150613617826135b0565b604082019050919050565b6000602082019050818103600083015261363b816135ff565b9050919050565b7f4552433732313a20617070726f76652063616c6c6572206973206e6f74206f7760008201527f6e6572206e6f7220617070726f76656420666f7220616c6c0000000000000000602082015250565b600061369e603883612e00565b91506136a982613642565b604082019050919050565b600060208201905081810360008301526136cd81613691565b9050919050565b7f4552433732313a207472616e736665722063616c6c6572206973206e6f74206f60008201527f776e6572206e6f7220617070726f766564000000000000000000000000000000602082015250565b6000613730603183612e00565b915061373b826136d4565b604082019050919050565b6000602082019050818103600083015261375f81613723565b9050919050565b7f455243373231456e756d657261626c653a206f776e657220696e646578206f7560008201527f74206f6620626f756e6473000000000000000000000000000000000000000000602082015250565b60006137c2602b83612e00565b91506137cd82613766565b604082019050919050565b600060208201905081810360008301526137f1816137b5565b9050919050565b7f4f776e61626c653a2063616c6c6572206973206e6f7420746865206f776e6572600082015250565b600061382e602083612e00565b9150613839826137f8565b602082019050919050565b6000602082019050818103600083015261385d81613821565b9050919050565b7f455243373231456e756d657261626c653a20676c6f62616c20696e646578206f60008201527f7574206f6620626f756e64730000000000000000000000000000000000000000602082015250565b60006138c0602c83612e00565b91506138cb82613864565b604082019050919050565b600060208201905081810360008301526138ef816138b3565b9050919050565b7f4e487b7100000000000000000000000000000000000000000000000000000000600052603260045260246000fd5b7f4552433732313a206f776e657220717565727920666f72206e6f6e657869737460008201527f656e7420746f6b656e0000000000000000000000000000000000000000000000602082015250565b6000613981602983612e00565b915061398c82613925565b604082019050919050565b600060208201905081810360008301526139b081613974565b9050919050565b7f5265656e7472616e637947756172643a207265656e7472616e742063616c6c00600082015250565b60006139ed601f83612e00565b91506139f8826139b7565b602082019050919050565b60006020820190508181036000830152613a1c816139e0565b9050919050565b600081905092915050565b7f546f6b656e49643a000000000000000000000000000000000000000000000000600082015250565b6000613a64600883613a23565b9150613a6f82613a2e565b600882019050919050565b6000613a8582612df5565b613a8f8185613a23565b9350613a9f818560208601612e11565b80840191505092915050565b7f416464726573733a000000000000000000000000000000000000000000000000600082015250565b6000613ae1600883613a23565b9150613aec82613aab565b600882019050919050565b60008160601b9050919050565b6000613b0f82613af7565b9050919050565b6000613b2182613b04565b9050919050565b613b39613b3482612f33565b613b16565b82525050565b7f446561646c696e653a0000000000000000000000000000000000000000000000600082015250565b6000613b75600983613a23565b9150613b8082613b3f565b600982019050919050565b6000613b9682613a57565b9150613ba28286613a7a565b9150613bad82613ad4565b9150613bb98285613b28565b601482019150613bc882613b68565b9150613bd48284613a7a565b9150819050949350505050565b613bea8161323c565b82525050565b613bf981613203565b82525050565b6000608082019050613c146000830187613be1565b613c216020830186613bf0565b613c2e6040830185613be1565b613c3b6060830184613be1565b95945050505050565b7f5369676e61747572652065787069726564000000000000000000000000000000600082015250565b6000613c7a601183612e00565b9150613c8582613c44565b602082019050919050565b60006020820190508181036000830152613ca981613c6d565b9050919050565b7f4e6f7420656e6f7567682065746865722073656e740000000000000000000000600082015250565b6000613ce6601583612e00565b9150613cf182613cb0565b602082019050919050565b60006020820190508181036000830152613d1581613cd9565b9050919050565b6000604082019050613d316000830185612f45565b613d3e6020830184612fdb565b9392505050565b7f4552433732313a2062616c616e636520717565727920666f7220746865207a6560008201527f726f206164647265737300000000000000000000000000000000000000000000602082015250565b6000613da1602a83612e00565b9150613dac82613d45565b604082019050919050565b60006020820190508181036000830152613dd081613d94565b9050919050565b7f496e697469616c697a61626c653a20636f6e747261637420697320616c72656160008201527f647920696e697469616c697a6564000000000000000000000000000000000000602082015250565b6000613e33602e83612e00565b9150613e3e82613dd7565b604082019050919050565b60006020820190508181036000830152613e6281613e26565b9050919050565b7f4552433732314d657461646174613a2055524920717565727920666f72206e6f60008201527f6e6578697374656e7420746f6b656e0000000000000000000000000000000000602082015250565b6000613ec5602f83612e00565b9150613ed082613e69565b604082019050919050565b60006020820190508181036000830152613ef481613eb8565b9050919050565b6000613f078285613a7a565b9150613f138284613a7a565b91508190509392505050565b7f4f776e61626c653a206e6577206f776e657220697320746865207a65726f206160008201527f6464726573730000000000000000000000000000000000000000000000000000602082015250565b6000613f7b602683612e00565b9150613f8682613f1f565b604082019050919050565b60006020820190508181036000830152613faa81613f6e565b9050919050565b7f4552433732313a206f70657261746f7220717565727920666f72206e6f6e657860008201527f697374656e7420746f6b656e0000000000000000000000000000000000000000602082015250565b600061400d602c83612e00565b915061401882613fb1565b604082019050919050565b6000602082019050818103600083015261403c81614000565b9050919050565b7f4552433732313a207472616e73666572206f6620746f6b656e2074686174206960008201527f73206e6f74206f776e0000000000000000000000000000000000000000000000602082015250565b600061409f602983612e00565b91506140aa82614043565b604082019050919050565b600060208201905081810360008301526140ce81614092565b9050919050565b7f4552433732313a207472616e7366657220746f20746865207a65726f2061646460008201527f7265737300000000000000000000000000000000000000000000000000000000602082015250565b6000614131602483612e00565b915061413c826140d5565b604082019050919050565b6000602082019050818103600083015261416081614124565b9050919050565b7f4e487b7100000000000000000000000000000000000000000000000000000000600052601160045260246000fd5b60006141a182612eb0565b91506141ac83612eb0565b9250828210156141bf576141be614167565b5b828203905092915050565b60006141d582612eb0565b91506141e083612eb0565b9250827fffffffffffffffffffffffffffffffffffffffffffffffffffffffffffffffff0382111561421557614214614167565b5b828201905092915050565b600061422b82612eb0565b91507fffffffffffffffffffffffffffffffffffffffffffffffffffffffffffffffff82141561425e5761425d614167565b5b600182019050919050565b7f4e487b7100000000000000000000000000000000000000000000000000000000600052601260045260246000fd5b60006142a382612eb0565b91506142ae83612eb0565b9250826142be576142bd614269565b5b828204905092915050565b60006142d482612eb0565b91506142df83612eb0565b9250826142ef576142ee614269565b5b828206905092915050565b7f496e697469616c697a61626c653a20636f6e7472616374206973206e6f74206960008201527f6e697469616c697a696e67000000000000000000000000000000000000000000602082015250565b6000614356602b83612e00565b9150614361826142fa565b604082019050919050565b6000602082019050818103600083015261438581614349565b9050919050565b7f4552433732313a20617070726f766520746f2063616c6c657200000000000000600082015250565b60006143c2601983612e00565b91506143cd8261438c565b602082019050919050565b600060208201905081810360008301526143f1816143b5565b9050919050565b7f4552433732313a207472616e7366657220746f206e6f6e20455243373231526560008201527f63656976657220696d706c656d656e7465720000000000000000000000000000602082015250565b6000614454603283612e00565b915061445f826143f8565b604082019050919050565b6000602082019050818103600083015261448381614447565b9050919050565b600081519050919050565b600082825260208201905092915050565b60006144b18261448a565b6144bb8185614495565b93506144cb818560208601612e11565b6144d481612e44565b840191505092915050565b60006080820190506144f46000830187612f45565b6145016020830186612f45565b61450e6040830185612fdb565b818103606083015261452081846144a6565b905095945050505050565b60008151905061453a81612d66565b92915050565b60006020828403121561455657614555612d30565b5b60006145648482850161452b565b91505092915050565b7f4e487b7100000000000000000000000000000000000000000000000000000000600052603160045260246000fd5b7f4552433732313a206d696e7420746f20746865207a65726f2061646472657373600082015250565b60006145d2602083612e00565b91506145dd8261459c565b602082019050919050565b60006020820190508181036000830152614601816145c5565b9050919050565b7f4552433732313a20746f6b656e20616c7265616479206d696e74656400000000600082015250565b600061463e601c83612e00565b915061464982614608565b602082019050919050565b6000602082019050818103600083015261466d81614631565b905091905056fe697066733a2f2f516d555648353174696779454e7a7755687354763134645637657961566f366f486f654344334a48443972466e562fa264697066735822122037ed717e370558ac478e2d61ff9d60bac20325d2b7dc7430377331ae8a368af764736f6c63430008090033",
  "linkReferences": {},
  "deployedLinkReferences": {}
}