{
  "_format": "hh-sol-artifact-1",
  "contractName": "PixelAvatars",
  "sourceName": "contracts/PixelAvatars.sol",
  "abi": [
    {
      "inputs": [],
      "stateMutability": "nonpayable",
      "type": "constructor"
    },
    {
      "anonymous": false,
      "inputs": [
        {
          "indexed": true,
          "internalType": "address",
          "name": "owner",
          "type": "address"
        },
        {
          "indexed": true,
          "internalType": "address",
          "name": "approved",
          "type": "address"
        },
        {
          "indexed": true,
          "internalType": "uint256",
          "name": "tokenId",
          "type": "uint256"
        }
      ],
      "name": "Approval",
      "type": "event"
    },
    {
      "anonymous": false,
      "inputs": [
        {
          "indexed": true,
          "internalType": "address",
          "name": "owner",
          "type": "address"
        },
        {
          "indexed": true,
          "internalType": "address",
          "name": "operator",
          "type": "address"
        },
        {
          "indexed": false,
          "internalType": "bool",
          "name": "approved",
          "type": "bool"
        }
      ],
      "name": "ApprovalForAll",
      "type": "event"
    },
    {
      "anonymous": false,
      "inputs": [
        {
          "indexed": false,
          "internalType": "address",
          "name": "minter",
          "type": "address"
        },
        {
          "indexed": false,
          "internalType": "uint256",
          "name": "tokenId",
          "type": "uint256"
        }
      ],
      "name": "LogTokenMinted",
      "type": "event"
    },
    {
      "anonymous": false,
      "inputs": [
        {
          "indexed": true,
          "internalType": "address",
          "name": "previousOwner",
          "type": "address"
        },
        {
          "indexed": true,
          "internalType": "address",
          "name": "newOwner",
          "type": "address"
        }
      ],
      "name": "OwnershipTransferred",
      "type": "event"
    },
    {
      "anonymous": false,
      "inputs": [
        {
          "indexed": true,
          "internalType": "address",
          "name": "from",
          "type": "address"
        },
        {
          "indexed": true,
          "internalType": "address",
          "name": "to",
          "type": "address"
        },
        {
          "indexed": true,
          "internalType": "uint256",
          "name": "tokenId",
          "type": "uint256"
        }
      ],
      "name": "Transfer",
      "type": "event"
    },
    {
      "inputs": [
        {
          "internalType": "address",
          "name": "to",
          "type": "address"
        },
        {
          "internalType": "uint256",
          "name": "tokenId",
          "type": "uint256"
        }
      ],
      "name": "approve",
      "outputs": [],
      "stateMutability": "nonpayable",
      "type": "function"
    },
    {
      "inputs": [
        {
          "internalType": "address",
          "name": "owner",
          "type": "address"
        }
      ],
      "name": "balanceOf",
      "outputs": [
        {
          "internalType": "uint256",
          "name": "",
          "type": "uint256"
        }
      ],
      "stateMutability": "view",
      "type": "function"
    },
    {
      "inputs": [],
      "name": "baseURI",
      "outputs": [
        {
          "internalType": "string",
          "name": "",
          "type": "string"
        }
      ],
      "stateMutability": "view",
      "type": "function"
    },
    {
      "inputs": [
        {
          "internalType": "uint256",
          "name": "tokenId",
          "type": "uint256"
        }
      ],
      "name": "getApproved",
      "outputs": [
        {
          "internalType": "address",
          "name": "",
          "type": "address"
        }
      ],
      "stateMutability": "view",
      "type": "function"
    },
    {
      "inputs": [
        {
          "internalType": "address",
          "name": "owner",
          "type": "address"
        },
        {
          "internalType": "address",
          "name": "operator",
          "type": "address"
        }
      ],
      "name": "isApprovedForAll",
      "outputs": [
        {
          "internalType": "bool",
          "name": "",
          "type": "bool"
        }
      ],
      "stateMutability": "view",
      "type": "function"
    },
    {
      "inputs": [],
      "name": "mintPrice",
      "outputs": [
        {
          "internalType": "uint256",
          "name": "",
          "type": "uint256"
        }
      ],
      "stateMutability": "view",
      "type": "function"
    },
    {
      "inputs": [
        {
          "internalType": "uint256",
          "name": "tokenId",
          "type": "uint256"
        },
        {
          "internalType": "uint256",
          "name": "deadline",
          "type": "uint256"
        },
        {
          "internalType": "uint8",
          "name": "v",
          "type": "uint8"
        },
        {
          "internalType": "bytes32",
          "name": "r",
          "type": "bytes32"
        },
        {
          "internalType": "bytes32",
          "name": "s",
          "type": "bytes32"
        }
      ],
      "name": "mintWithSignature",
      "outputs": [],
      "stateMutability": "payable",
      "type": "function"
    },
    {
      "inputs": [],
      "name": "name",
      "outputs": [
        {
          "internalType": "string",
          "name": "",
          "type": "string"
        }
      ],
      "stateMutability": "view",
      "type": "function"
    },
    {
      "inputs": [],
      "name": "owner",
      "outputs": [
        {
          "internalType": "address",
          "name": "",
          "type": "address"
        }
      ],
      "stateMutability": "view",
      "type": "function"
    },
    {
      "inputs": [
        {
          "internalType": "uint256",
          "name": "tokenId",
          "type": "uint256"
        }
      ],
      "name": "ownerOf",
      "outputs": [
        {
          "internalType": "address",
          "name": "",
          "type": "address"
        }
      ],
      "stateMutability": "view",
      "type": "function"
    },
    {
      "inputs": [],
      "name": "renounceOwnership",
      "outputs": [],
      "stateMutability": "nonpayable",
      "type": "function"
    },
    {
      "inputs": [
        {
          "internalType": "address",
          "name": "from",
          "type": "address"
        },
        {
          "internalType": "address",
          "name": "to",
          "type": "address"
        },
        {
          "internalType": "uint256",
          "name": "tokenId",
          "type": "uint256"
        }
      ],
      "name": "safeTransferFrom",
      "outputs": [],
      "stateMutability": "nonpayable",
      "type": "function"
    },
    {
      "inputs": [
        {
          "internalType": "address",
          "name": "from",
          "type": "address"
        },
        {
          "internalType": "address",
          "name": "to",
          "type": "address"
        },
        {
          "internalType": "uint256",
          "name": "tokenId",
          "type": "uint256"
        },
        {
          "internalType": "bytes",
          "name": "_data",
          "type": "bytes"
        }
      ],
      "name": "safeTransferFrom",
      "outputs": [],
      "stateMutability": "nonpayable",
      "type": "function"
    },
    {
      "inputs": [],
      "name": "serverAddress",
      "outputs": [
        {
          "internalType": "address",
          "name": "",
          "type": "address"
        }
      ],
      "stateMutability": "view",
      "type": "function"
    },
    {
      "inputs": [
        {
          "internalType": "address",
          "name": "operator",
          "type": "address"
        },
        {
          "internalType": "bool",
          "name": "approved",
          "type": "bool"
        }
      ],
      "name": "setApprovalForAll",
      "outputs": [],
      "stateMutability": "nonpayable",
      "type": "function"
    },
    {
      "inputs": [
        {
          "internalType": "string",
          "name": "_newBaseURI",
          "type": "string"
        }
      ],
      "name": "setBaseURI",
      "outputs": [],
      "stateMutability": "nonpayable",
      "type": "function"
    },
    {
      "inputs": [
        {
          "internalType": "uint256",
          "name": "_newPrice",
          "type": "uint256"
        }
      ],
      "name": "setMintPrice",
      "outputs": [],
      "stateMutability": "nonpayable",
      "type": "function"
    },
    {
      "inputs": [
        {
          "internalType": "address",
          "name": "_address",
          "type": "address"
        }
      ],
      "name": "setServerAddress",
      "outputs": [],
      "stateMutability": "nonpayable",
      "type": "function"
    },
    {
      "inputs": [
        {
          "internalType": "bytes4",
          "name": "interfaceId",
          "type": "bytes4"
        }
      ],
      "name": "supportsInterface",
      "outputs": [
        {
          "internalType": "bool",
          "name": "",
          "type": "bool"
        }
      ],
      "stateMutability": "view",
      "type": "function"
    },
    {
      "inputs": [],
      "name": "symbol",
      "outputs": [
        {
          "internalType": "string",
          "name": "",
          "type": "string"
        }
      ],
      "stateMutability": "view",
      "type": "function"
    },
    {
      "inputs": [
        {
          "internalType": "uint256",
          "name": "index",
          "type": "uint256"
        }
      ],
      "name": "tokenByIndex",
      "outputs": [
        {
          "internalType": "uint256",
          "name": "",
          "type": "uint256"
        }
      ],
      "stateMutability": "view",
      "type": "function"
    },
    {
      "inputs": [
        {
          "internalType": "address",
          "name": "owner",
          "type": "address"
        },
        {
          "internalType": "uint256",
          "name": "index",
          "type": "uint256"
        }
      ],
      "name": "tokenOfOwnerByIndex",
      "outputs": [
        {
          "internalType": "uint256",
          "name": "",
          "type": "uint256"
        }
      ],
      "stateMutability": "view",
      "type": "function"
    },
    {
      "inputs": [
        {
          "internalType": "uint256",
          "name": "tokenId",
          "type": "uint256"
        }
      ],
      "name": "tokenURI",
      "outputs": [
        {
          "internalType": "string",
          "name": "",
          "type": "string"
        }
      ],
      "stateMutability": "view",
      "type": "function"
    },
    {
      "inputs": [],
      "name": "totalSupply",
      "outputs": [
        {
          "internalType": "uint256",
          "name": "",
          "type": "uint256"
        }
      ],
      "stateMutability": "view",
      "type": "function"
    },
    {
      "inputs": [
        {
          "internalType": "address",
          "name": "from",
          "type": "address"
        },
        {
          "internalType": "address",
          "name": "to",
          "type": "address"
        },
        {
          "internalType": "uint256",
          "name": "tokenId",
          "type": "uint256"
        }
      ],
      "name": "transferFrom",
      "outputs": [],
      "stateMutability": "nonpayable",
      "type": "function"
    },
    {
      "inputs": [
        {
          "internalType": "address",
          "name": "newOwner",
          "type": "address"
        }
      ],
      "name": "transferOwnership",
      "outputs": [],
      "stateMutability": "nonpayable",
      "type": "function"
    },
    {
      "inputs": [],
      "name": "withdraw",
      "outputs": [],
      "stateMutability": "nonpayable",
      "type": "function"
    }
  ],
  "bytecode": "0x60806040526040518060600160405280603681526020016200478460369139600c90805190602001906200003592919062000307565b506753444835ec580000600d553480156200004f57600080fd5b506040518060400160405280600d81526020017f506978656c2041766174617273000000000000000000000000000000000000008152506040518060400160405280600781526020017f50584c41565452000000000000000000000000000000000000000000000000008152508160009080519060200190620000d492919062000307565b508060019080519060200190620000ed92919062000307565b5050506001600a81905550620001186200010c6200016a60201b60201c565b6200017260201b60201c565b620001646040518060400160405280601d81526020017f506978656c41766174617273206465706c6f7965642062792027257327000000815250336200023860201b6200176b1760201c565b62000539565b600033905090565b6000600b60009054906101000a900473ffffffffffffffffffffffffffffffffffffffff16905081600b60006101000a81548173ffffffffffffffffffffffffffffffffffffffff021916908373ffffffffffffffffffffffffffffffffffffffff1602179055508173ffffffffffffffffffffffffffffffffffffffff168173ffffffffffffffffffffffffffffffffffffffff167f8be0079c531659141344cd1fd0a4f28419497f9722a3daafe3b4186f6b6457e060405160405180910390a35050565b620002da828260405160240162000251929190620004a0565b6040516020818303038152906040527f319af333000000000000000000000000000000000000000000000000000000007bffffffffffffffffffffffffffffffffffffffffffffffffffffffff19166020820180517bffffffffffffffffffffffffffffffffffffffffffffffffffffffff8381831617835250505050620002de60201b60201c565b5050565b60008151905060006a636f6e736f6c652e6c6f679050602083016000808483855afa5050505050565b828054620003159062000503565b90600052602060002090601f01602090048101928262000339576000855562000385565b82601f106200035457805160ff191683800117855562000385565b8280016001018555821562000385579182015b828111156200038457825182559160200191906001019062000367565b5b50905062000394919062000398565b5090565b5b80821115620003b357600081600090555060010162000399565b5090565b600081519050919050565b600082825260208201905092915050565b60005b83811015620003f3578082015181840152602081019050620003d6565b8381111562000403576000848401525b50505050565b6000601f19601f8301169050919050565b60006200042782620003b7565b620004338185620003c2565b935062000445818560208601620003d3565b620004508162000409565b840191505092915050565b600073ffffffffffffffffffffffffffffffffffffffff82169050919050565b600062000488826200045b565b9050919050565b6200049a816200047b565b82525050565b60006040820190508181036000830152620004bc81856200041a565b9050620004cd60208301846200048f565b9392505050565b7f4e487b7100000000000000000000000000000000000000000000000000000000600052602260045260246000fd5b600060028204905060018216806200051c57607f821691505b60208210811415620005335762000532620004d4565b5b50919050565b61423b80620005496000396000f3fe60806040526004361061019c5760003560e01c80636817c76c116100ec578063a22cb4651161008a578063db420fe311610064578063db420fe3146105b7578063e985e9c5146105e2578063f2fde38b1461061f578063f4a0a528146106485761019c565b8063a22cb46514610528578063b88d4fde14610551578063c87b56dd1461057a5761019c565b806370a08231116100c657806370a082311461047e578063715018a6146104bb5780638da5cb5b146104d257806395d89b41146104fd5761019c565b80636817c76c1461040c5780636c0360eb1461043757806370485b66146104625761019c565b80632f745c591161015957806347b64eb01161013357806347b64eb0146103405780634f6ccce71461036957806355f804b3146103a65780636352211e146103cf5761019c565b80632f745c59146102c35780633ccfd60b1461030057806342842e0e146103175761019c565b806301ffc9a7146101a157806306fdde03146101de578063081812fc14610209578063095ea7b31461024657806318160ddd1461026f57806323b872dd1461029a575b600080fd5b3480156101ad57600080fd5b506101c860048036038101906101c39190612a17565b610671565b6040516101d59190612a5f565b60405180910390f35b3480156101ea57600080fd5b506101f36106eb565b6040516102009190612b13565b60405180910390f35b34801561021557600080fd5b50610230600480360381019061022b9190612b6b565b61077d565b60405161023d9190612bd9565b60405180910390f35b34801561025257600080fd5b5061026d60048036038101906102689190612c20565b610802565b005b34801561027b57600080fd5b5061028461091a565b6040516102919190612c6f565b60405180910390f35b3480156102a657600080fd5b506102c160048036038101906102bc9190612c8a565b610927565b005b3480156102cf57600080fd5b506102ea60048036038101906102e59190612c20565b610987565b6040516102f79190612c6f565b60405180910390f35b34801561030c57600080fd5b50610315610a2c565b005b34801561032357600080fd5b5061033e60048036038101906103399190612c8a565b610af1565b005b34801561034c57600080fd5b5061036760048036038101906103629190612cdd565b610b11565b005b34801561037557600080fd5b50610390600480360381019061038b9190612b6b565b610bd1565b60405161039d9190612c6f565b60405180910390f35b3480156103b257600080fd5b506103cd60048036038101906103c89190612e3f565b610c42565b005b3480156103db57600080fd5b506103f660048036038101906103f19190612b6b565b610cd8565b6040516104039190612bd9565b60405180910390f35b34801561041857600080fd5b50610421610d8a565b60405161042e9190612c6f565b60405180910390f35b34801561044357600080fd5b5061044c610d90565b6040516104599190612b13565b60405180910390f35b61047c60048036038101906104779190612ef7565b610e1e565b005b34801561048a57600080fd5b506104a560048036038101906104a09190612cdd565b6110ad565b6040516104b29190612c6f565b60405180910390f35b3480156104c757600080fd5b506104d0611165565b005b3480156104de57600080fd5b506104e76111ed565b6040516104f49190612bd9565b60405180910390f35b34801561050957600080fd5b50610512611217565b60405161051f9190612b13565b60405180910390f35b34801561053457600080fd5b5061054f600480360381019061054a9190612f9e565b6112a9565b005b34801561055d57600080fd5b506105786004803603810190610573919061307f565b61142a565b005b34801561058657600080fd5b506105a1600480360381019061059c9190612b6b565b61148c565b6040516105ae9190612b13565b60405180910390f35b3480156105c357600080fd5b506105cc611533565b6040516105d99190612bd9565b60405180910390f35b3480156105ee57600080fd5b5061060960048036038101906106049190613102565b611559565b6040516106169190612a5f565b60405180910390f35b34801561062b57600080fd5b5061064660048036038101906106419190612cdd565b6115ed565b005b34801561065457600080fd5b5061066f600480360381019061066a9190612b6b565b6116e5565b005b60007f780e9d63000000000000000000000000000000000000000000000000000000007bffffffffffffffffffffffffffffffffffffffffffffffffffffffff1916827bffffffffffffffffffffffffffffffffffffffffffffffffffffffff191614806106e457506106e382611807565b5b9050919050565b6060600080546106fa90613171565b80601f016020809104026020016040519081016040528092919081815260200182805461072690613171565b80156107735780601f1061074857610100808354040283529160200191610773565b820191906000526020600020905b81548152906001019060200180831161075657829003601f168201915b5050505050905090565b6000610788826118e9565b6107c7576040517f08c379a00000000000000000000000000000000000000000000000000000000081526004016107be90613215565b60405180910390fd5b6004600083815260200190815260200160002060009054906101000a900473ffffffffffffffffffffffffffffffffffffffff169050919050565b600061080d82610cd8565b90508073ffffffffffffffffffffffffffffffffffffffff168373ffffffffffffffffffffffffffffffffffffffff16141561087e576040517f08c379a0000000000000000000000000000000000000000000000000000000008152600401610875906132a7565b60405180910390fd5b8073ffffffffffffffffffffffffffffffffffffffff1661089d611955565b73ffffffffffffffffffffffffffffffffffffffff1614806108cc57506108cb816108c6611955565b611559565b5b61090b576040517f08c379a000000000000000000000000000000000000000000000000000000000815260040161090290613339565b60405180910390fd5b610915838361195d565b505050565b6000600880549050905090565b610938610932611955565b82611a16565b610977576040517f08c379a000000000000000000000000000000000000000000000000000000000815260040161096e906133cb565b60405180910390fd5b610982838383611af4565b505050565b6000610992836110ad565b82106109d3576040517f08c379a00000000000000000000000000000000000000000000000000000000081526004016109ca9061345d565b60405180910390fd5b600660008473ffffffffffffffffffffffffffffffffffffffff1673ffffffffffffffffffffffffffffffffffffffff168152602001908152602001600020600083815260200190815260200160002054905092915050565b610a34611955565b73ffffffffffffffffffffffffffffffffffffffff16610a526111ed565b73ffffffffffffffffffffffffffffffffffffffff1614610aa8576040517f08c379a0000000000000000000000000000000000000000000000000000000008152600401610a9f906134c9565b60405180910390fd5b3373ffffffffffffffffffffffffffffffffffffffff166108fc479081150290604051600060405180830381858888f19350505050158015610aee573d6000803e3d6000fd5b50565b610b0c8383836040518060200160405280600081525061142a565b505050565b610b19611955565b73ffffffffffffffffffffffffffffffffffffffff16610b376111ed565b73ffffffffffffffffffffffffffffffffffffffff1614610b8d576040517f08c379a0000000000000000000000000000000000000000000000000000000008152600401610b84906134c9565b60405180910390fd5b80600e60006101000a81548173ffffffffffffffffffffffffffffffffffffffff021916908373ffffffffffffffffffffffffffffffffffffffff16021790555050565b6000610bdb61091a565b8210610c1c576040517f08c379a0000000000000000000000000000000000000000000000000000000008152600401610c139061355b565b60405180910390fd5b60088281548110610c3057610c2f61357b565b5b90600052602060002001549050919050565b610c4a611955565b73ffffffffffffffffffffffffffffffffffffffff16610c686111ed565b73ffffffffffffffffffffffffffffffffffffffff1614610cbe576040517f08c379a0000000000000000000000000000000000000000000000000000000008152600401610cb5906134c9565b60405180910390fd5b80600c9080519060200190610cd4929190612908565b5050565b6000806002600084815260200190815260200160002060009054906101000a900473ffffffffffffffffffffffffffffffffffffffff169050600073ffffffffffffffffffffffffffffffffffffffff168173ffffffffffffffffffffffffffffffffffffffff161415610d81576040517f08c379a0000000000000000000000000000000000000000000000000000000008152600401610d789061361c565b60405180910390fd5b80915050919050565b600d5481565b600c8054610d9d90613171565b80601f0160208091040260200160405190810160405280929190818152602001828054610dc990613171565b8015610e165780601f10610deb57610100808354040283529160200191610e16565b820191906000526020600020905b815481529060010190602001808311610df957829003601f168201915b505050505081565b6002600a541415610e64576040517f08c379a0000000000000000000000000000000000000000000000000000000008152600401610e5b90613688565b60405180910390fd5b6002600a8190555084848484846000610e7c86611d50565b33610e8687611d50565b604051602001610e9893929190613810565b604051602081830303815290604052905060006001828051906020012086868660405160008152602001604052604051610ed59493929190613884565b6020604051602081039080840390855afa158015610ef7573d6000803e3d6000fd5b505050602060405103519050600e60009054906101000a900473ffffffffffffffffffffffffffffffffffffffff1673ffffffffffffffffffffffffffffffffffffffff168173ffffffffffffffffffffffffffffffffffffffff16146040518060400160405280601881526020017f496e76616c696420736572766572207369676e6174757265000000000000000081525090610fcb576040517f08c379a0000000000000000000000000000000000000000000000000000000008152600401610fc29190612b13565b60405180910390fd5b508542111561100f576040517f08c379a000000000000000000000000000000000000000000000000000000000815260040161100690613915565b60405180910390fd5b34600d541115611054576040517f08c379a000000000000000000000000000000000000000000000000000000000815260040161104b90613981565b60405180910390fd5b61105e338d611eb1565b7ff63a93365d60efe8aa58f99ad14d3d0689101e5ed3937e83089863d1812f4b64338d60405161108f9291906139a1565b60405180910390a1505050505050506001600a819055505050505050565b60008073ffffffffffffffffffffffffffffffffffffffff168273ffffffffffffffffffffffffffffffffffffffff16141561111e576040517f08c379a000000000000000000000000000000000000000000000000000000000815260040161111590613a3c565b60405180910390fd5b600360008373ffffffffffffffffffffffffffffffffffffffff1673ffffffffffffffffffffffffffffffffffffffff168152602001908152602001600020549050919050565b61116d611955565b73ffffffffffffffffffffffffffffffffffffffff1661118b6111ed565b73ffffffffffffffffffffffffffffffffffffffff16146111e1576040517f08c379a00000000000000000000000000000000000000000000000000000000081526004016111d8906134c9565b60405180910390fd5b6111eb6000611ecf565b565b6000600b60009054906101000a900473ffffffffffffffffffffffffffffffffffffffff16905090565b60606001805461122690613171565b80601f016020809104026020016040519081016040528092919081815260200182805461125290613171565b801561129f5780601f106112745761010080835404028352916020019161129f565b820191906000526020600020905b81548152906001019060200180831161128257829003601f168201915b5050505050905090565b6112b1611955565b73ffffffffffffffffffffffffffffffffffffffff168273ffffffffffffffffffffffffffffffffffffffff16141561131f576040517f08c379a000000000000000000000000000000000000000000000000000000000815260040161131690613aa8565b60405180910390fd5b806005600061132c611955565b73ffffffffffffffffffffffffffffffffffffffff1673ffffffffffffffffffffffffffffffffffffffff16815260200190815260200160002060008473ffffffffffffffffffffffffffffffffffffffff1673ffffffffffffffffffffffffffffffffffffffff16815260200190815260200160002060006101000a81548160ff0219169083151502179055508173ffffffffffffffffffffffffffffffffffffffff166113d9611955565b73ffffffffffffffffffffffffffffffffffffffff167f17307eab39ab6107e8899845ad3d59bd9653f200f220920489ca2b5937696c318360405161141e9190612a5f565b60405180910390a35050565b61143b611435611955565b83611a16565b61147a576040517f08c379a0000000000000000000000000000000000000000000000000000000008152600401611471906133cb565b60405180910390fd5b61148684848484611f95565b50505050565b6060611497826118e9565b6114d6576040517f08c379a00000000000000000000000000000000000000000000000000000000081526004016114cd90613b3a565b60405180910390fd5b60006114e0611ff1565b90506000815111611500576040518060200160405280600081525061152b565b8061150a84611d50565b60405160200161151b929190613b5a565b6040516020818303038152906040525b915050919050565b600e60009054906101000a900473ffffffffffffffffffffffffffffffffffffffff1681565b6000600560008473ffffffffffffffffffffffffffffffffffffffff1673ffffffffffffffffffffffffffffffffffffffff16815260200190815260200160002060008373ffffffffffffffffffffffffffffffffffffffff1673ffffffffffffffffffffffffffffffffffffffff16815260200190815260200160002060009054906101000a900460ff16905092915050565b6115f5611955565b73ffffffffffffffffffffffffffffffffffffffff166116136111ed565b73ffffffffffffffffffffffffffffffffffffffff1614611669576040517f08c379a0000000000000000000000000000000000000000000000000000000008152600401611660906134c9565b60405180910390fd5b600073ffffffffffffffffffffffffffffffffffffffff168173ffffffffffffffffffffffffffffffffffffffff1614156116d9576040517f08c379a00000000000000000000000000000000000000000000000000000000081526004016116d090613bf0565b60405180910390fd5b6116e281611ecf565b50565b6116ed611955565b73ffffffffffffffffffffffffffffffffffffffff1661170b6111ed565b73ffffffffffffffffffffffffffffffffffffffff1614611761576040517f08c379a0000000000000000000000000000000000000000000000000000000008152600401611758906134c9565b60405180910390fd5b80600d8190555050565b6118038282604051602401611781929190613c10565b6040516020818303038152906040527f319af333000000000000000000000000000000000000000000000000000000007bffffffffffffffffffffffffffffffffffffffffffffffffffffffff19166020820180517bffffffffffffffffffffffffffffffffffffffffffffffffffffffff8381831617835250505050612083565b5050565b60007f80ac58cd000000000000000000000000000000000000000000000000000000007bffffffffffffffffffffffffffffffffffffffffffffffffffffffff1916827bffffffffffffffffffffffffffffffffffffffffffffffffffffffff191614806118d257507f5b5e139f000000000000000000000000000000000000000000000000000000007bffffffffffffffffffffffffffffffffffffffffffffffffffffffff1916827bffffffffffffffffffffffffffffffffffffffffffffffffffffffff1916145b806118e257506118e1826120ac565b5b9050919050565b60008073ffffffffffffffffffffffffffffffffffffffff166002600084815260200190815260200160002060009054906101000a900473ffffffffffffffffffffffffffffffffffffffff1673ffffffffffffffffffffffffffffffffffffffff1614159050919050565b600033905090565b816004600083815260200190815260200160002060006101000a81548173ffffffffffffffffffffffffffffffffffffffff021916908373ffffffffffffffffffffffffffffffffffffffff160217905550808273ffffffffffffffffffffffffffffffffffffffff166119d083610cd8565b73ffffffffffffffffffffffffffffffffffffffff167f8c5be1e5ebec7d5bd14f71427d1e84f3dd0314c0f7b2291e5b200ac8c7c3b92560405160405180910390a45050565b6000611a21826118e9565b611a60576040517f08c379a0000000000000000000000000000000000000000000000000000000008152600401611a5790613cb2565b60405180910390fd5b6000611a6b83610cd8565b90508073ffffffffffffffffffffffffffffffffffffffff168473ffffffffffffffffffffffffffffffffffffffff161480611ada57508373ffffffffffffffffffffffffffffffffffffffff16611ac28461077d565b73ffffffffffffffffffffffffffffffffffffffff16145b80611aeb5750611aea8185611559565b5b91505092915050565b8273ffffffffffffffffffffffffffffffffffffffff16611b1482610cd8565b73ffffffffffffffffffffffffffffffffffffffff1614611b6a576040517f08c379a0000000000000000000000000000000000000000000000000000000008152600401611b6190613d44565b60405180910390fd5b600073ffffffffffffffffffffffffffffffffffffffff168273ffffffffffffffffffffffffffffffffffffffff161415611bda576040517f08c379a0000000000000000000000000000000000000000000000000000000008152600401611bd190613dd6565b60405180910390fd5b611be5838383612116565b611bf060008261195d565b6001600360008573ffffffffffffffffffffffffffffffffffffffff1673ffffffffffffffffffffffffffffffffffffffff1681526020019081526020016000206000828254611c409190613e25565b925050819055506001600360008473ffffffffffffffffffffffffffffffffffffffff1673ffffffffffffffffffffffffffffffffffffffff1681526020019081526020016000206000828254611c979190613e59565b92505081905550816002600083815260200190815260200160002060006101000a81548173ffffffffffffffffffffffffffffffffffffffff021916908373ffffffffffffffffffffffffffffffffffffffff160217905550808273ffffffffffffffffffffffffffffffffffffffff168473ffffffffffffffffffffffffffffffffffffffff167fddf252ad1be2c89b69c2b068fc378daa952ba7f163c4a11628f55a4df523b3ef60405160405180910390a4505050565b60606000821415611d98576040518060400160405280600181526020017f30000000000000000000000000000000000000000000000000000000000000008152509050611eac565b600082905060005b60008214611dca578080611db390613eaf565b915050600a82611dc39190613f27565b9150611da0565b60008167ffffffffffffffff811115611de657611de5612d14565b5b6040519080825280601f01601f191660200182016040528015611e185781602001600182028036833780820191505090505b5090505b60008514611ea557600182611e319190613e25565b9150600a85611e409190613f58565b6030611e4c9190613e59565b60f81b818381518110611e6257611e6161357b565b5b60200101907effffffffffffffffffffffffffffffffffffffffffffffffffffffffffffff1916908160001a905350600a85611e9e9190613f27565b9450611e1c565b8093505050505b919050565b611ecb82826040518060200160405280600081525061222a565b5050565b6000600b60009054906101000a900473ffffffffffffffffffffffffffffffffffffffff16905081600b60006101000a81548173ffffffffffffffffffffffffffffffffffffffff021916908373ffffffffffffffffffffffffffffffffffffffff1602179055508173ffffffffffffffffffffffffffffffffffffffff168173ffffffffffffffffffffffffffffffffffffffff167f8be0079c531659141344cd1fd0a4f28419497f9722a3daafe3b4186f6b6457e060405160405180910390a35050565b611fa0848484611af4565b611fac84848484612285565b611feb576040517f08c379a0000000000000000000000000000000000000000000000000000000008152600401611fe290613ffb565b60405180910390fd5b50505050565b6060600c805461200090613171565b80601f016020809104026020016040519081016040528092919081815260200182805461202c90613171565b80156120795780601f1061204e57610100808354040283529160200191612079565b820191906000526020600020905b81548152906001019060200180831161205c57829003601f168201915b5050505050905090565b60008151905060006a636f6e736f6c652e6c6f679050602083016000808483855afa5050505050565b60007f01ffc9a7000000000000000000000000000000000000000000000000000000007bffffffffffffffffffffffffffffffffffffffffffffffffffffffff1916827bffffffffffffffffffffffffffffffffffffffffffffffffffffffff1916149050919050565b61212183838361241c565b600073ffffffffffffffffffffffffffffffffffffffff168373ffffffffffffffffffffffffffffffffffffffff1614156121645761215f81612421565b6121a3565b8173ffffffffffffffffffffffffffffffffffffffff168373ffffffffffffffffffffffffffffffffffffffff16146121a2576121a1838261246a565b5b5b600073ffffffffffffffffffffffffffffffffffffffff168273ffffffffffffffffffffffffffffffffffffffff1614156121e6576121e1816125d7565b612225565b8273ffffffffffffffffffffffffffffffffffffffff168273ffffffffffffffffffffffffffffffffffffffff16146122245761222382826126a8565b5b5b505050565b6122348383612727565b6122416000848484612285565b612280576040517f08c379a000000000000000000000000000000000000000000000000000000000815260040161227790613ffb565b60405180910390fd5b505050565b60006122a68473ffffffffffffffffffffffffffffffffffffffff166128f5565b1561240f578373ffffffffffffffffffffffffffffffffffffffff1663150b7a026122cf611955565b8786866040518563ffffffff1660e01b81526004016122f19493929190614070565b602060405180830381600087803b15801561230b57600080fd5b505af192505050801561233c57506040513d601f19601f8201168201806040525081019061233991906140d1565b60015b6123bf573d806000811461236c576040519150601f19603f3d011682016040523d82523d6000602084013e612371565b606091505b506000815114156123b7576040517f08c379a00000000000000000000000000000000000000000000000000000000081526004016123ae90613ffb565b60405180910390fd5b805181602001fd5b63150b7a0260e01b7bffffffffffffffffffffffffffffffffffffffffffffffffffffffff1916817bffffffffffffffffffffffffffffffffffffffffffffffffffffffff191614915050612414565b600190505b949350505050565b505050565b6008805490506009600083815260200190815260200160002081905550600881908060018154018082558091505060019003906000526020600020016000909190919091505550565b60006001612477846110ad565b6124819190613e25565b9050600060076000848152602001908152602001600020549050818114612566576000600660008673ffffffffffffffffffffffffffffffffffffffff1673ffffffffffffffffffffffffffffffffffffffff168152602001908152602001600020600084815260200190815260200160002054905080600660008773ffffffffffffffffffffffffffffffffffffffff1673ffffffffffffffffffffffffffffffffffffffff168152602001908152602001600020600084815260200190815260200160002081905550816007600083815260200190815260200160002081905550505b6007600084815260200190815260200160002060009055600660008573ffffffffffffffffffffffffffffffffffffffff1673ffffffffffffffffffffffffffffffffffffffff16815260200190815260200160002060008381526020019081526020016000206000905550505050565b600060016008805490506125eb9190613e25565b905060006009600084815260200190815260200160002054905060006008838154811061261b5761261a61357b565b5b90600052602060002001549050806008838154811061263d5761263c61357b565b5b90600052602060002001819055508160096000838152602001908152602001600020819055506009600085815260200190815260200160002060009055600880548061268c5761268b6140fe565b5b6001900381819060005260206000200160009055905550505050565b60006126b3836110ad565b905081600660008573ffffffffffffffffffffffffffffffffffffffff1673ffffffffffffffffffffffffffffffffffffffff168152602001908152602001600020600083815260200190815260200160002081905550806007600084815260200190815260200160002081905550505050565b600073ffffffffffffffffffffffffffffffffffffffff168273ffffffffffffffffffffffffffffffffffffffff161415612797576040517f08c379a000000000000000000000000000000000000000000000000000000000815260040161278e90614179565b60405180910390fd5b6127a0816118e9565b156127e0576040517f08c379a00000000000000000000000000000000000000000000000000000000081526004016127d7906141e5565b60405180910390fd5b6127ec60008383612116565b6001600360008473ffffffffffffffffffffffffffffffffffffffff1673ffffffffffffffffffffffffffffffffffffffff168152602001908152602001600020600082825461283c9190613e59565b92505081905550816002600083815260200190815260200160002060006101000a81548173ffffffffffffffffffffffffffffffffffffffff021916908373ffffffffffffffffffffffffffffffffffffffff160217905550808273ffffffffffffffffffffffffffffffffffffffff16600073ffffffffffffffffffffffffffffffffffffffff167fddf252ad1be2c89b69c2b068fc378daa952ba7f163c4a11628f55a4df523b3ef60405160405180910390a45050565b600080823b905060008111915050919050565b82805461291490613171565b90600052602060002090601f016020900481019282612936576000855561297d565b82601f1061294f57805160ff191683800117855561297d565b8280016001018555821561297d579182015b8281111561297c578251825591602001919060010190612961565b5b50905061298a919061298e565b5090565b5b808211156129a757600081600090555060010161298f565b5090565b6000604051905090565b600080fd5b600080fd5b60007fffffffff0000000000000000000000000000000000000000000000000000000082169050919050565b6129f4816129bf565b81146129ff57600080fd5b50565b600081359050612a11816129eb565b92915050565b600060208284031215612a2d57612a2c6129b5565b5b6000612a3b84828501612a02565b91505092915050565b60008115159050919050565b612a5981612a44565b82525050565b6000602082019050612a746000830184612a50565b92915050565b600081519050919050565b600082825260208201905092915050565b60005b83811015612ab4578082015181840152602081019050612a99565b83811115612ac3576000848401525b50505050565b6000601f19601f8301169050919050565b6000612ae582612a7a565b612aef8185612a85565b9350612aff818560208601612a96565b612b0881612ac9565b840191505092915050565b60006020820190508181036000830152612b2d8184612ada565b905092915050565b6000819050919050565b612b4881612b35565b8114612b5357600080fd5b50565b600081359050612b6581612b3f565b92915050565b600060208284031215612b8157612b806129b5565b5b6000612b8f84828501612b56565b91505092915050565b600073ffffffffffffffffffffffffffffffffffffffff82169050919050565b6000612bc382612b98565b9050919050565b612bd381612bb8565b82525050565b6000602082019050612bee6000830184612bca565b92915050565b612bfd81612bb8565b8114612c0857600080fd5b50565b600081359050612c1a81612bf4565b92915050565b60008060408385031215612c3757612c366129b5565b5b6000612c4585828601612c0b565b9250506020612c5685828601612b56565b9150509250929050565b612c6981612b35565b82525050565b6000602082019050612c846000830184612c60565b92915050565b600080600060608486031215612ca357612ca26129b5565b5b6000612cb186828701612c0b565b9350506020612cc286828701612c0b565b9250506040612cd386828701612b56565b9150509250925092565b600060208284031215612cf357612cf26129b5565b5b6000612d0184828501612c0b565b91505092915050565b600080fd5b600080fd5b7f4e487b7100000000000000000000000000000000000000000000000000000000600052604160045260246000fd5b612d4c82612ac9565b810181811067ffffffffffffffff82111715612d6b57612d6a612d14565b5b80604052505050565b6000612d7e6129ab565b9050612d8a8282612d43565b919050565b600067ffffffffffffffff821115612daa57612da9612d14565b5b612db382612ac9565b9050602081019050919050565b82818337600083830152505050565b6000612de2612ddd84612d8f565b612d74565b905082815260208101848484011115612dfe57612dfd612d0f565b5b612e09848285612dc0565b509392505050565b600082601f830112612e2657612e25612d0a565b5b8135612e36848260208601612dcf565b91505092915050565b600060208284031215612e5557612e546129b5565b5b600082013567ffffffffffffffff811115612e7357612e726129ba565b5b612e7f84828501612e11565b91505092915050565b600060ff82169050919050565b612e9e81612e88565b8114612ea957600080fd5b50565b600081359050612ebb81612e95565b92915050565b6000819050919050565b612ed481612ec1565b8114612edf57600080fd5b50565b600081359050612ef181612ecb565b92915050565b600080600080600060a08688031215612f1357612f126129b5565b5b6000612f2188828901612b56565b9550506020612f3288828901612b56565b9450506040612f4388828901612eac565b9350506060612f5488828901612ee2565b9250506080612f6588828901612ee2565b9150509295509295909350565b612f7b81612a44565b8114612f8657600080fd5b50565b600081359050612f9881612f72565b92915050565b60008060408385031215612fb557612fb46129b5565b5b6000612fc385828601612c0b565b9250506020612fd485828601612f89565b9150509250929050565b600067ffffffffffffffff821115612ff957612ff8612d14565b5b61300282612ac9565b9050602081019050919050565b600061302261301d84612fde565b612d74565b90508281526020810184848401111561303e5761303d612d0f565b5b613049848285612dc0565b509392505050565b600082601f83011261306657613065612d0a565b5b813561307684826020860161300f565b91505092915050565b60008060008060808587031215613099576130986129b5565b5b60006130a787828801612c0b565b94505060206130b887828801612c0b565b93505060406130c987828801612b56565b925050606085013567ffffffffffffffff8111156130ea576130e96129ba565b5b6130f687828801613051565b91505092959194509250565b60008060408385031215613119576131186129b5565b5b600061312785828601612c0b565b925050602061313885828601612c0b565b9150509250929050565b7f4e487b7100000000000000000000000000000000000000000000000000000000600052602260045260246000fd5b6000600282049050600182168061318957607f821691505b6020821081141561319d5761319c613142565b5b50919050565b7f4552433732313a20617070726f76656420717565727920666f72206e6f6e657860008201527f697374656e7420746f6b656e0000000000000000000000000000000000000000602082015250565b60006131ff602c83612a85565b915061320a826131a3565b604082019050919050565b6000602082019050818103600083015261322e816131f2565b9050919050565b7f4552433732313a20617070726f76616c20746f2063757272656e74206f776e6560008201527f7200000000000000000000000000000000000000000000000000000000000000602082015250565b6000613291602183612a85565b915061329c82613235565b604082019050919050565b600060208201905081810360008301526132c081613284565b9050919050565b7f4552433732313a20617070726f76652063616c6c6572206973206e6f74206f7760008201527f6e6572206e6f7220617070726f76656420666f7220616c6c0000000000000000602082015250565b6000613323603883612a85565b915061332e826132c7565b604082019050919050565b6000602082019050818103600083015261335281613316565b9050919050565b7f4552433732313a207472616e736665722063616c6c6572206973206e6f74206f60008201527f776e6572206e6f7220617070726f766564000000000000000000000000000000602082015250565b60006133b5603183612a85565b91506133c082613359565b604082019050919050565b600060208201905081810360008301526133e4816133a8565b9050919050565b7f455243373231456e756d657261626c653a206f776e657220696e646578206f7560008201527f74206f6620626f756e6473000000000000000000000000000000000000000000602082015250565b6000613447602b83612a85565b9150613452826133eb565b604082019050919050565b600060208201905081810360008301526134768161343a565b9050919050565b7f4f776e61626c653a2063616c6c6572206973206e6f7420746865206f776e6572600082015250565b60006134b3602083612a85565b91506134be8261347d565b602082019050919050565b600060208201905081810360008301526134e2816134a6565b9050919050565b7f455243373231456e756d657261626c653a20676c6f62616c20696e646578206f60008201527f7574206f6620626f756e64730000000000000000000000000000000000000000602082015250565b6000613545602c83612a85565b9150613550826134e9565b604082019050919050565b6000602082019050818103600083015261357481613538565b9050919050565b7f4e487b7100000000000000000000000000000000000000000000000000000000600052603260045260246000fd5b7f4552433732313a206f776e657220717565727920666f72206e6f6e657869737460008201527f656e7420746f6b656e0000000000000000000000000000000000000000000000602082015250565b6000613606602983612a85565b9150613611826135aa565b604082019050919050565b60006020820190508181036000830152613635816135f9565b9050919050565b7f5265656e7472616e637947756172643a207265656e7472616e742063616c6c00600082015250565b6000613672601f83612a85565b915061367d8261363c565b602082019050919050565b600060208201905081810360008301526136a181613665565b9050919050565b600081905092915050565b7f546f6b656e49643a000000000000000000000000000000000000000000000000600082015250565b60006136e96008836136a8565b91506136f4826136b3565b600882019050919050565b600061370a82612a7a565b61371481856136a8565b9350613724818560208601612a96565b80840191505092915050565b7f416464726573733a000000000000000000000000000000000000000000000000600082015250565b60006137666008836136a8565b915061377182613730565b600882019050919050565b60008160601b9050919050565b60006137948261377c565b9050919050565b60006137a682613789565b9050919050565b6137be6137b982612bb8565b61379b565b82525050565b7f446561646c696e653a0000000000000000000000000000000000000000000000600082015250565b60006137fa6009836136a8565b9150613805826137c4565b600982019050919050565b600061381b826136dc565b915061382782866136ff565b915061383282613759565b915061383e82856137ad565b60148201915061384d826137ed565b915061385982846136ff565b9150819050949350505050565b61386f81612ec1565b82525050565b61387e81612e88565b82525050565b60006080820190506138996000830187613866565b6138a66020830186613875565b6138b36040830185613866565b6138c06060830184613866565b95945050505050565b7f5369676e61747572652065787069726564000000000000000000000000000000600082015250565b60006138ff601183612a85565b915061390a826138c9565b602082019050919050565b6000602082019050818103600083015261392e816138f2565b9050919050565b7f4e6f7420656e6f7567682065746865722073656e740000000000000000000000600082015250565b600061396b601583612a85565b915061397682613935565b602082019050919050565b6000602082019050818103600083015261399a8161395e565b9050919050565b60006040820190506139b66000830185612bca565b6139c36020830184612c60565b9392505050565b7f4552433732313a2062616c616e636520717565727920666f7220746865207a6560008201527f726f206164647265737300000000000000000000000000000000000000000000602082015250565b6000613a26602a83612a85565b9150613a31826139ca565b604082019050919050565b60006020820190508181036000830152613a5581613a19565b9050919050565b7f4552433732313a20617070726f766520746f2063616c6c657200000000000000600082015250565b6000613a92601983612a85565b9150613a9d82613a5c565b602082019050919050565b60006020820190508181036000830152613ac181613a85565b9050919050565b7f4552433732314d657461646174613a2055524920717565727920666f72206e6f60008201527f6e6578697374656e7420746f6b656e0000000000000000000000000000000000602082015250565b6000613b24602f83612a85565b9150613b2f82613ac8565b604082019050919050565b60006020820190508181036000830152613b5381613b17565b9050919050565b6000613b6682856136ff565b9150613b7282846136ff565b91508190509392505050565b7f4f776e61626c653a206e6577206f776e657220697320746865207a65726f206160008201527f6464726573730000000000000000000000000000000000000000000000000000602082015250565b6000613bda602683612a85565b9150613be582613b7e565b604082019050919050565b60006020820190508181036000830152613c0981613bcd565b9050919050565b60006040820190508181036000830152613c2a8185612ada565b9050613c396020830184612bca565b9392505050565b7f4552433732313a206f70657261746f7220717565727920666f72206e6f6e657860008201527f697374656e7420746f6b656e0000000000000000000000000000000000000000602082015250565b6000613c9c602c83612a85565b9150613ca782613c40565b604082019050919050565b60006020820190508181036000830152613ccb81613c8f565b9050919050565b7f4552433732313a207472616e73666572206f6620746f6b656e2074686174206960008201527f73206e6f74206f776e0000000000000000000000000000000000000000000000602082015250565b6000613d2e602983612a85565b9150613d3982613cd2565b604082019050919050565b60006020820190508181036000830152613d5d81613d21565b9050919050565b7f4552433732313a207472616e7366657220746f20746865207a65726f2061646460008201527f7265737300000000000000000000000000000000000000000000000000000000602082015250565b6000613dc0602483612a85565b9150613dcb82613d64565b604082019050919050565b60006020820190508181036000830152613def81613db3565b9050919050565b7f4e487b7100000000000000000000000000000000000000000000000000000000600052601160045260246000fd5b6000613e3082612b35565b9150613e3b83612b35565b925082821015613e4e57613e4d613df6565b5b828203905092915050565b6000613e6482612b35565b9150613e6f83612b35565b9250827fffffffffffffffffffffffffffffffffffffffffffffffffffffffffffffffff03821115613ea457613ea3613df6565b5b828201905092915050565b6000613eba82612b35565b91507fffffffffffffffffffffffffffffffffffffffffffffffffffffffffffffffff821415613eed57613eec613df6565b5b600182019050919050565b7f4e487b7100000000000000000000000000000000000000000000000000000000600052601260045260246000fd5b6000613f3282612b35565b9150613f3d83612b35565b925082613f4d57613f4c613ef8565b5b828204905092915050565b6000613f6382612b35565b9150613f6e83612b35565b925082613f7e57613f7d613ef8565b5b828206905092915050565b7f4552433732313a207472616e7366657220746f206e6f6e20455243373231526560008201527f63656976657220696d706c656d656e7465720000000000000000000000000000602082015250565b6000613fe5603283612a85565b9150613ff082613f89565b604082019050919050565b6000602082019050818103600083015261401481613fd8565b9050919050565b600081519050919050565b600082825260208201905092915050565b60006140428261401b565b61404c8185614026565b935061405c818560208601612a96565b61406581612ac9565b840191505092915050565b60006080820190506140856000830187612bca565b6140926020830186612bca565b61409f6040830185612c60565b81810360608301526140b18184614037565b905095945050505050565b6000815190506140cb816129eb565b92915050565b6000602082840312156140e7576140e66129b5565b5b60006140f5848285016140bc565b91505092915050565b7f4e487b7100000000000000000000000000000000000000000000000000000000600052603160045260246000fd5b7f4552433732313a206d696e7420746f20746865207a65726f2061646472657373600082015250565b6000614163602083612a85565b915061416e8261412d565b602082019050919050565b6000602082019050818103600083015261419281614156565b9050919050565b7f4552433732313a20746f6b656e20616c7265616479206d696e74656400000000600082015250565b60006141cf601c83612a85565b91506141da82614199565b602082019050919050565b600060208201905081810360008301526141fe816141c2565b905091905056fea26469706673582212201547e8ae951d0c3c14367a985a682758ee94a94ebd216931daa8091b405e7ed864736f6c63430008090033697066733a2f2f516d555648353174696779454e7a7755687354763134645637657961566f366f486f654344334a48443972466e562f",
  "linkReferences": {},
  "deployedLinkReferences": {}
}