{
  "_format": "hh-sol-artifact-1",
  "contractName": "PixelAvatars",
  "sourceName": "contracts/PixelAvatars.sol",
  "abi": [
    {
      "inputs": [],
      "stateMutability": "nonpayable",
      "type": "constructor"
    },
    {
      "anonymous": false,
      "inputs": [
        {
          "indexed": true,
          "internalType": "address",
          "name": "owner",
          "type": "address"
        },
        {
          "indexed": true,
          "internalType": "address",
          "name": "approved",
          "type": "address"
        },
        {
          "indexed": true,
          "internalType": "uint256",
          "name": "tokenId",
          "type": "uint256"
        }
      ],
      "name": "Approval",
      "type": "event"
    },
    {
      "anonymous": false,
      "inputs": [
        {
          "indexed": true,
          "internalType": "address",
          "name": "owner",
          "type": "address"
        },
        {
          "indexed": true,
          "internalType": "address",
          "name": "operator",
          "type": "address"
        },
        {
          "indexed": false,
          "internalType": "bool",
          "name": "approved",
          "type": "bool"
        }
      ],
      "name": "ApprovalForAll",
      "type": "event"
    },
    {
      "anonymous": false,
      "inputs": [
        {
          "indexed": false,
          "internalType": "address",
          "name": "minter",
          "type": "address"
        },
        {
          "indexed": false,
          "internalType": "uint256",
          "name": "tokenId",
          "type": "uint256"
        }
      ],
      "name": "LogTokenMinted",
      "type": "event"
    },
    {
      "anonymous": false,
      "inputs": [
        {
          "indexed": true,
          "internalType": "address",
          "name": "previousOwner",
          "type": "address"
        },
        {
          "indexed": true,
          "internalType": "address",
          "name": "newOwner",
          "type": "address"
        }
      ],
      "name": "OwnershipTransferred",
      "type": "event"
    },
    {
      "anonymous": false,
      "inputs": [
        {
          "indexed": true,
          "internalType": "address",
          "name": "from",
          "type": "address"
        },
        {
          "indexed": true,
          "internalType": "address",
          "name": "to",
          "type": "address"
        },
        {
          "indexed": true,
          "internalType": "uint256",
          "name": "tokenId",
          "type": "uint256"
        }
      ],
      "name": "Transfer",
      "type": "event"
    },
    {
      "inputs": [
        {
          "internalType": "address",
          "name": "to",
          "type": "address"
        },
        {
          "internalType": "uint256",
          "name": "tokenId",
          "type": "uint256"
        }
      ],
      "name": "approve",
      "outputs": [],
      "stateMutability": "nonpayable",
      "type": "function"
    },
    {
      "inputs": [
        {
          "internalType": "address",
          "name": "owner",
          "type": "address"
        }
      ],
      "name": "balanceOf",
      "outputs": [
        {
          "internalType": "uint256",
          "name": "",
          "type": "uint256"
        }
      ],
      "stateMutability": "view",
      "type": "function"
    },
    {
      "inputs": [],
      "name": "baseURI",
      "outputs": [
        {
          "internalType": "string",
          "name": "",
          "type": "string"
        }
      ],
      "stateMutability": "view",
      "type": "function"
    },
    {
      "inputs": [
        {
          "internalType": "uint256",
          "name": "tokenId",
          "type": "uint256"
        }
      ],
      "name": "getApproved",
      "outputs": [
        {
          "internalType": "address",
          "name": "",
          "type": "address"
        }
      ],
      "stateMutability": "view",
      "type": "function"
    },
    {
      "inputs": [
        {
          "internalType": "address",
          "name": "owner",
          "type": "address"
        },
        {
          "internalType": "address",
          "name": "operator",
          "type": "address"
        }
      ],
      "name": "isApprovedForAll",
      "outputs": [
        {
          "internalType": "bool",
          "name": "",
          "type": "bool"
        }
      ],
      "stateMutability": "view",
      "type": "function"
    },
    {
      "inputs": [],
      "name": "mintPrice",
      "outputs": [
        {
          "internalType": "uint256",
          "name": "",
          "type": "uint256"
        }
      ],
      "stateMutability": "view",
      "type": "function"
    },
    {
      "inputs": [
        {
          "internalType": "uint256",
          "name": "tokenId",
          "type": "uint256"
        },
        {
          "internalType": "uint256",
          "name": "deadline",
          "type": "uint256"
        },
        {
          "internalType": "uint8",
          "name": "v",
          "type": "uint8"
        },
        {
          "internalType": "bytes32",
          "name": "r",
          "type": "bytes32"
        },
        {
          "internalType": "bytes32",
          "name": "s",
          "type": "bytes32"
        }
      ],
      "name": "mintWithSignature",
      "outputs": [],
      "stateMutability": "payable",
      "type": "function"
    },
    {
      "inputs": [],
      "name": "name",
      "outputs": [
        {
          "internalType": "string",
          "name": "",
          "type": "string"
        }
      ],
      "stateMutability": "view",
      "type": "function"
    },
    {
      "inputs": [],
      "name": "owner",
      "outputs": [
        {
          "internalType": "address",
          "name": "",
          "type": "address"
        }
      ],
      "stateMutability": "view",
      "type": "function"
    },
    {
      "inputs": [
        {
          "internalType": "uint256",
          "name": "tokenId",
          "type": "uint256"
        }
      ],
      "name": "ownerOf",
      "outputs": [
        {
          "internalType": "address",
          "name": "",
          "type": "address"
        }
      ],
      "stateMutability": "view",
      "type": "function"
    },
    {
      "inputs": [],
      "name": "renounceOwnership",
      "outputs": [],
      "stateMutability": "nonpayable",
      "type": "function"
    },
    {
      "inputs": [
        {
          "internalType": "address",
          "name": "from",
          "type": "address"
        },
        {
          "internalType": "address",
          "name": "to",
          "type": "address"
        },
        {
          "internalType": "uint256",
          "name": "tokenId",
          "type": "uint256"
        }
      ],
      "name": "safeTransferFrom",
      "outputs": [],
      "stateMutability": "nonpayable",
      "type": "function"
    },
    {
      "inputs": [
        {
          "internalType": "address",
          "name": "from",
          "type": "address"
        },
        {
          "internalType": "address",
          "name": "to",
          "type": "address"
        },
        {
          "internalType": "uint256",
          "name": "tokenId",
          "type": "uint256"
        },
        {
          "internalType": "bytes",
          "name": "_data",
          "type": "bytes"
        }
      ],
      "name": "safeTransferFrom",
      "outputs": [],
      "stateMutability": "nonpayable",
      "type": "function"
    },
    {
      "inputs": [],
      "name": "serverAddress",
      "outputs": [
        {
          "internalType": "address",
          "name": "",
          "type": "address"
        }
      ],
      "stateMutability": "view",
      "type": "function"
    },
    {
      "inputs": [
        {
          "internalType": "address",
          "name": "operator",
          "type": "address"
        },
        {
          "internalType": "bool",
          "name": "approved",
          "type": "bool"
        }
      ],
      "name": "setApprovalForAll",
      "outputs": [],
      "stateMutability": "nonpayable",
      "type": "function"
    },
    {
      "inputs": [
        {
          "internalType": "string",
          "name": "_newBaseURI",
          "type": "string"
        }
      ],
      "name": "setBaseURI",
      "outputs": [],
      "stateMutability": "nonpayable",
      "type": "function"
    },
    {
      "inputs": [
        {
          "internalType": "uint256",
          "name": "_newPrice",
          "type": "uint256"
        }
      ],
      "name": "setMintPrice",
      "outputs": [],
      "stateMutability": "nonpayable",
      "type": "function"
    },
    {
      "inputs": [
        {
          "internalType": "address",
          "name": "_address",
          "type": "address"
        }
      ],
      "name": "setServerAddress",
      "outputs": [],
      "stateMutability": "nonpayable",
      "type": "function"
    },
    {
      "inputs": [
        {
          "internalType": "bytes4",
          "name": "interfaceId",
          "type": "bytes4"
        }
      ],
      "name": "supportsInterface",
      "outputs": [
        {
          "internalType": "bool",
          "name": "",
          "type": "bool"
        }
      ],
      "stateMutability": "view",
      "type": "function"
    },
    {
      "inputs": [],
      "name": "symbol",
      "outputs": [
        {
          "internalType": "string",
          "name": "",
          "type": "string"
        }
      ],
      "stateMutability": "view",
      "type": "function"
    },
    {
      "inputs": [
        {
          "internalType": "uint256",
          "name": "index",
          "type": "uint256"
        }
      ],
      "name": "tokenByIndex",
      "outputs": [
        {
          "internalType": "uint256",
          "name": "",
          "type": "uint256"
        }
      ],
      "stateMutability": "view",
      "type": "function"
    },
    {
      "inputs": [
        {
          "internalType": "address",
          "name": "owner",
          "type": "address"
        },
        {
          "internalType": "uint256",
          "name": "index",
          "type": "uint256"
        }
      ],
      "name": "tokenOfOwnerByIndex",
      "outputs": [
        {
          "internalType": "uint256",
          "name": "",
          "type": "uint256"
        }
      ],
      "stateMutability": "view",
      "type": "function"
    },
    {
      "inputs": [
        {
          "internalType": "uint256",
          "name": "tokenId",
          "type": "uint256"
        }
      ],
      "name": "tokenURI",
      "outputs": [
        {
          "internalType": "string",
          "name": "",
          "type": "string"
        }
      ],
      "stateMutability": "view",
      "type": "function"
    },
    {
      "inputs": [],
      "name": "totalSupply",
      "outputs": [
        {
          "internalType": "uint256",
          "name": "",
          "type": "uint256"
        }
      ],
      "stateMutability": "view",
      "type": "function"
    },
    {
      "inputs": [
        {
          "internalType": "address",
          "name": "from",
          "type": "address"
        },
        {
          "internalType": "address",
          "name": "to",
          "type": "address"
        },
        {
          "internalType": "uint256",
          "name": "tokenId",
          "type": "uint256"
        }
      ],
      "name": "transferFrom",
      "outputs": [],
      "stateMutability": "nonpayable",
      "type": "function"
    },
    {
      "inputs": [
        {
          "internalType": "address",
          "name": "newOwner",
          "type": "address"
        }
      ],
      "name": "transferOwnership",
      "outputs": [],
      "stateMutability": "nonpayable",
      "type": "function"
    },
    {
      "inputs": [],
      "name": "withdraw",
      "outputs": [],
      "stateMutability": "nonpayable",
      "type": "function"
    }
  ],
  "bytecode": "0x60806040526040518060600160405280603681526020016200478660369139600c90805190602001906200003592919062000307565b506753444835ec580000600d553480156200004f57600080fd5b506040518060400160405280600d81526020017f506978656c2041766174617273000000000000000000000000000000000000008152506040518060400160405280600781526020017f50584c41565452000000000000000000000000000000000000000000000000008152508160009080519060200190620000d492919062000307565b508060019080519060200190620000ed92919062000307565b5050506001600a81905550620001186200010c6200016a60201b60201c565b6200017260201b60201c565b620001646040518060400160405280601d81526020017f506978656c41766174617273206465706c6f7965642062792027257327000000815250336200023860201b620016001760201c565b62000539565b600033905090565b6000600b60009054906101000a900473ffffffffffffffffffffffffffffffffffffffff16905081600b60006101000a81548173ffffffffffffffffffffffffffffffffffffffff021916908373ffffffffffffffffffffffffffffffffffffffff1602179055508173ffffffffffffffffffffffffffffffffffffffff168173ffffffffffffffffffffffffffffffffffffffff167f8be0079c531659141344cd1fd0a4f28419497f9722a3daafe3b4186f6b6457e060405160405180910390a35050565b620002da828260405160240162000251929190620004a0565b6040516020818303038152906040527f319af333000000000000000000000000000000000000000000000000000000007bffffffffffffffffffffffffffffffffffffffffffffffffffffffff19166020820180517bffffffffffffffffffffffffffffffffffffffffffffffffffffffff8381831617835250505050620002de60201b60201c565b5050565b60008151905060006a636f6e736f6c652e6c6f679050602083016000808483855afa5050505050565b828054620003159062000503565b90600052602060002090601f01602090048101928262000339576000855562000385565b82601f106200035457805160ff191683800117855562000385565b8280016001018555821562000385579182015b828111156200038457825182559160200191906001019062000367565b5b50905062000394919062000398565b5090565b5b80821115620003b357600081600090555060010162000399565b5090565b600081519050919050565b600082825260208201905092915050565b60005b83811015620003f3578082015181840152602081019050620003d6565b8381111562000403576000848401525b50505050565b6000601f19601f8301169050919050565b60006200042782620003b7565b620004338185620003c2565b935062000445818560208601620003d3565b620004508162000409565b840191505092915050565b600073ffffffffffffffffffffffffffffffffffffffff82169050919050565b600062000488826200045b565b9050919050565b6200049a816200047b565b82525050565b60006040820190508181036000830152620004bc81856200041a565b9050620004cd60208301846200048f565b9392505050565b7f4e487b7100000000000000000000000000000000000000000000000000000000600052602260045260246000fd5b600060028204905060018216806200051c57607f821691505b60208210811415620005335762000532620004d4565b5b50919050565b61423d80620005496000396000f3fe60806040526004361061019c5760003560e01c80636817c76c116100ec578063a22cb4651161008a578063db420fe311610064578063db420fe3146105b7578063e985e9c5146105e2578063f2fde38b1461061f578063f4a0a528146106485761019c565b8063a22cb46514610528578063b88d4fde14610551578063c87b56dd1461057a5761019c565b806370a08231116100c657806370a082311461047e578063715018a6146104bb5780638da5cb5b146104d257806395d89b41146104fd5761019c565b80636817c76c1461040c5780636c0360eb1461043757806370485b66146104625761019c565b80632f745c591161015957806347b64eb01161013357806347b64eb0146103405780634f6ccce71461036957806355f804b3146103a65780636352211e146103cf5761019c565b80632f745c59146102c35780633ccfd60b1461030057806342842e0e146103175761019c565b806301ffc9a7146101a157806306fdde03146101de578063081812fc14610209578063095ea7b31461024657806318160ddd1461026f57806323b872dd1461029a575b600080fd5b3480156101ad57600080fd5b506101c860048036038101906101c39190612a19565b610671565b6040516101d59190612a61565b60405180910390f35b3480156101ea57600080fd5b506101f36106eb565b6040516102009190612b15565b60405180910390f35b34801561021557600080fd5b50610230600480360381019061022b9190612b6d565b61077d565b60405161023d9190612bdb565b60405180910390f35b34801561025257600080fd5b5061026d60048036038101906102689190612c22565b610802565b005b34801561027b57600080fd5b5061028461091a565b6040516102919190612c71565b60405180910390f35b3480156102a657600080fd5b506102c160048036038101906102bc9190612c8c565b610927565b005b3480156102cf57600080fd5b506102ea60048036038101906102e59190612c22565b610987565b6040516102f79190612c71565b60405180910390f35b34801561030c57600080fd5b50610315610a2c565b005b34801561032357600080fd5b5061033e60048036038101906103399190612c8c565b610af1565b005b34801561034c57600080fd5b5061036760048036038101906103629190612cdf565b610b11565b005b34801561037557600080fd5b50610390600480360381019061038b9190612b6d565b610bd1565b60405161039d9190612c71565b60405180910390f35b3480156103b257600080fd5b506103cd60048036038101906103c89190612e41565b610c42565b005b3480156103db57600080fd5b506103f660048036038101906103f19190612b6d565b610cd8565b6040516104039190612bdb565b60405180910390f35b34801561041857600080fd5b50610421610d8a565b60405161042e9190612c71565b60405180910390f35b34801561044357600080fd5b5061044c610d90565b6040516104599190612b15565b60405180910390f35b61047c60048036038101906104779190612ef9565b610e1e565b005b34801561048a57600080fd5b506104a560048036038101906104a09190612cdf565b6110ad565b6040516104b29190612c71565b60405180910390f35b3480156104c757600080fd5b506104d0611165565b005b3480156104de57600080fd5b506104e76111ed565b6040516104f49190612bdb565b60405180910390f35b34801561050957600080fd5b50610512611217565b60405161051f9190612b15565b60405180910390f35b34801561053457600080fd5b5061054f600480360381019061054a9190612fa0565b6112a9565b005b34801561055d57600080fd5b5061057860048036038101906105739190613081565b6112bf565b005b34801561058657600080fd5b506105a1600480360381019061059c9190612b6d565b611321565b6040516105ae9190612b15565b60405180910390f35b3480156105c357600080fd5b506105cc6113c8565b6040516105d99190612bdb565b60405180910390f35b3480156105ee57600080fd5b5061060960048036038101906106049190613104565b6113ee565b6040516106169190612a61565b60405180910390f35b34801561062b57600080fd5b5061064660048036038101906106419190612cdf565b611482565b005b34801561065457600080fd5b5061066f600480360381019061066a9190612b6d565b61157a565b005b60007f780e9d63000000000000000000000000000000000000000000000000000000007bffffffffffffffffffffffffffffffffffffffffffffffffffffffff1916827bffffffffffffffffffffffffffffffffffffffffffffffffffffffff191614806106e457506106e38261169c565b5b9050919050565b6060600080546106fa90613173565b80601f016020809104026020016040519081016040528092919081815260200182805461072690613173565b80156107735780601f1061074857610100808354040283529160200191610773565b820191906000526020600020905b81548152906001019060200180831161075657829003601f168201915b5050505050905090565b60006107888261177e565b6107c7576040517f08c379a00000000000000000000000000000000000000000000000000000000081526004016107be90613217565b60405180910390fd5b6004600083815260200190815260200160002060009054906101000a900473ffffffffffffffffffffffffffffffffffffffff169050919050565b600061080d82610cd8565b90508073ffffffffffffffffffffffffffffffffffffffff168373ffffffffffffffffffffffffffffffffffffffff16141561087e576040517f08c379a0000000000000000000000000000000000000000000000000000000008152600401610875906132a9565b60405180910390fd5b8073ffffffffffffffffffffffffffffffffffffffff1661089d6117ea565b73ffffffffffffffffffffffffffffffffffffffff1614806108cc57506108cb816108c66117ea565b6113ee565b5b61090b576040517f08c379a00000000000000000000000000000000000000000000000000000000081526004016109029061333b565b60405180910390fd5b61091583836117f2565b505050565b6000600880549050905090565b6109386109326117ea565b826118ab565b610977576040517f08c379a000000000000000000000000000000000000000000000000000000000815260040161096e906133cd565b60405180910390fd5b610982838383611989565b505050565b6000610992836110ad565b82106109d3576040517f08c379a00000000000000000000000000000000000000000000000000000000081526004016109ca9061345f565b60405180910390fd5b600660008473ffffffffffffffffffffffffffffffffffffffff1673ffffffffffffffffffffffffffffffffffffffff168152602001908152602001600020600083815260200190815260200160002054905092915050565b610a346117ea565b73ffffffffffffffffffffffffffffffffffffffff16610a526111ed565b73ffffffffffffffffffffffffffffffffffffffff1614610aa8576040517f08c379a0000000000000000000000000000000000000000000000000000000008152600401610a9f906134cb565b60405180910390fd5b3373ffffffffffffffffffffffffffffffffffffffff166108fc479081150290604051600060405180830381858888f19350505050158015610aee573d6000803e3d6000fd5b50565b610b0c838383604051806020016040528060008152506112bf565b505050565b610b196117ea565b73ffffffffffffffffffffffffffffffffffffffff16610b376111ed565b73ffffffffffffffffffffffffffffffffffffffff1614610b8d576040517f08c379a0000000000000000000000000000000000000000000000000000000008152600401610b84906134cb565b60405180910390fd5b80600e60006101000a81548173ffffffffffffffffffffffffffffffffffffffff021916908373ffffffffffffffffffffffffffffffffffffffff16021790555050565b6000610bdb61091a565b8210610c1c576040517f08c379a0000000000000000000000000000000000000000000000000000000008152600401610c139061355d565b60405180910390fd5b60088281548110610c3057610c2f61357d565b5b90600052602060002001549050919050565b610c4a6117ea565b73ffffffffffffffffffffffffffffffffffffffff16610c686111ed565b73ffffffffffffffffffffffffffffffffffffffff1614610cbe576040517f08c379a0000000000000000000000000000000000000000000000000000000008152600401610cb5906134cb565b60405180910390fd5b80600c9080519060200190610cd492919061290a565b5050565b6000806002600084815260200190815260200160002060009054906101000a900473ffffffffffffffffffffffffffffffffffffffff169050600073ffffffffffffffffffffffffffffffffffffffff168173ffffffffffffffffffffffffffffffffffffffff161415610d81576040517f08c379a0000000000000000000000000000000000000000000000000000000008152600401610d789061361e565b60405180910390fd5b80915050919050565b600d5481565b600c8054610d9d90613173565b80601f0160208091040260200160405190810160405280929190818152602001828054610dc990613173565b8015610e165780601f10610deb57610100808354040283529160200191610e16565b820191906000526020600020905b815481529060010190602001808311610df957829003601f168201915b505050505081565b6002600a541415610e64576040517f08c379a0000000000000000000000000000000000000000000000000000000008152600401610e5b9061368a565b60405180910390fd5b6002600a8190555084848484846000610e7c86611be5565b33610e8687611be5565b604051602001610e9893929190613812565b604051602081830303815290604052905060006001828051906020012086868660405160008152602001604052604051610ed59493929190613886565b6020604051602081039080840390855afa158015610ef7573d6000803e3d6000fd5b505050602060405103519050600e60009054906101000a900473ffffffffffffffffffffffffffffffffffffffff1673ffffffffffffffffffffffffffffffffffffffff168173ffffffffffffffffffffffffffffffffffffffff16146040518060400160405280601881526020017f496e76616c696420736572766572207369676e6174757265000000000000000081525090610fcb576040517f08c379a0000000000000000000000000000000000000000000000000000000008152600401610fc29190612b15565b60405180910390fd5b508542111561100f576040517f08c379a000000000000000000000000000000000000000000000000000000000815260040161100690613917565b60405180910390fd5b34600d541115611054576040517f08c379a000000000000000000000000000000000000000000000000000000000815260040161104b90613983565b60405180910390fd5b61105e338d611d46565b7ff63a93365d60efe8aa58f99ad14d3d0689101e5ed3937e83089863d1812f4b64338d60405161108f9291906139a3565b60405180910390a1505050505050506001600a819055505050505050565b60008073ffffffffffffffffffffffffffffffffffffffff168273ffffffffffffffffffffffffffffffffffffffff16141561111e576040517f08c379a000000000000000000000000000000000000000000000000000000000815260040161111590613a3e565b60405180910390fd5b600360008373ffffffffffffffffffffffffffffffffffffffff1673ffffffffffffffffffffffffffffffffffffffff168152602001908152602001600020549050919050565b61116d6117ea565b73ffffffffffffffffffffffffffffffffffffffff1661118b6111ed565b73ffffffffffffffffffffffffffffffffffffffff16146111e1576040517f08c379a00000000000000000000000000000000000000000000000000000000081526004016111d8906134cb565b60405180910390fd5b6111eb6000611d64565b565b6000600b60009054906101000a900473ffffffffffffffffffffffffffffffffffffffff16905090565b60606001805461122690613173565b80601f016020809104026020016040519081016040528092919081815260200182805461125290613173565b801561129f5780601f106112745761010080835404028352916020019161129f565b820191906000526020600020905b81548152906001019060200180831161128257829003601f168201915b5050505050905090565b6112bb6112b46117ea565b8383611e2a565b5050565b6112d06112ca6117ea565b836118ab565b61130f576040517f08c379a0000000000000000000000000000000000000000000000000000000008152600401611306906133cd565b60405180910390fd5b61131b84848484611f97565b50505050565b606061132c8261177e565b61136b576040517f08c379a000000000000000000000000000000000000000000000000000000000815260040161136290613ad0565b60405180910390fd5b6000611375611ff3565b9050600081511161139557604051806020016040528060008152506113c0565b8061139f84611be5565b6040516020016113b0929190613af0565b6040516020818303038152906040525b915050919050565b600e60009054906101000a900473ffffffffffffffffffffffffffffffffffffffff1681565b6000600560008473ffffffffffffffffffffffffffffffffffffffff1673ffffffffffffffffffffffffffffffffffffffff16815260200190815260200160002060008373ffffffffffffffffffffffffffffffffffffffff1673ffffffffffffffffffffffffffffffffffffffff16815260200190815260200160002060009054906101000a900460ff16905092915050565b61148a6117ea565b73ffffffffffffffffffffffffffffffffffffffff166114a86111ed565b73ffffffffffffffffffffffffffffffffffffffff16146114fe576040517f08c379a00000000000000000000000000000000000000000000000000000000081526004016114f5906134cb565b60405180910390fd5b600073ffffffffffffffffffffffffffffffffffffffff168173ffffffffffffffffffffffffffffffffffffffff16141561156e576040517f08c379a000000000000000000000000000000000000000000000000000000000815260040161156590613b86565b60405180910390fd5b61157781611d64565b50565b6115826117ea565b73ffffffffffffffffffffffffffffffffffffffff166115a06111ed565b73ffffffffffffffffffffffffffffffffffffffff16146115f6576040517f08c379a00000000000000000000000000000000000000000000000000000000081526004016115ed906134cb565b60405180910390fd5b80600d8190555050565b6116988282604051602401611616929190613ba6565b6040516020818303038152906040527f319af333000000000000000000000000000000000000000000000000000000007bffffffffffffffffffffffffffffffffffffffffffffffffffffffff19166020820180517bffffffffffffffffffffffffffffffffffffffffffffffffffffffff8381831617835250505050612085565b5050565b60007f80ac58cd000000000000000000000000000000000000000000000000000000007bffffffffffffffffffffffffffffffffffffffffffffffffffffffff1916827bffffffffffffffffffffffffffffffffffffffffffffffffffffffff1916148061176757507f5b5e139f000000000000000000000000000000000000000000000000000000007bffffffffffffffffffffffffffffffffffffffffffffffffffffffff1916827bffffffffffffffffffffffffffffffffffffffffffffffffffffffff1916145b806117775750611776826120ae565b5b9050919050565b60008073ffffffffffffffffffffffffffffffffffffffff166002600084815260200190815260200160002060009054906101000a900473ffffffffffffffffffffffffffffffffffffffff1673ffffffffffffffffffffffffffffffffffffffff1614159050919050565b600033905090565b816004600083815260200190815260200160002060006101000a81548173ffffffffffffffffffffffffffffffffffffffff021916908373ffffffffffffffffffffffffffffffffffffffff160217905550808273ffffffffffffffffffffffffffffffffffffffff1661186583610cd8565b73ffffffffffffffffffffffffffffffffffffffff167f8c5be1e5ebec7d5bd14f71427d1e84f3dd0314c0f7b2291e5b200ac8c7c3b92560405160405180910390a45050565b60006118b68261177e565b6118f5576040517f08c379a00000000000000000000000000000000000000000000000000000000081526004016118ec90613c48565b60405180910390fd5b600061190083610cd8565b90508073ffffffffffffffffffffffffffffffffffffffff168473ffffffffffffffffffffffffffffffffffffffff16148061196f57508373ffffffffffffffffffffffffffffffffffffffff166119578461077d565b73ffffffffffffffffffffffffffffffffffffffff16145b80611980575061197f81856113ee565b5b91505092915050565b8273ffffffffffffffffffffffffffffffffffffffff166119a982610cd8565b73ffffffffffffffffffffffffffffffffffffffff16146119ff576040517f08c379a00000000000000000000000000000000000000000000000000000000081526004016119f690613cda565b60405180910390fd5b600073ffffffffffffffffffffffffffffffffffffffff168273ffffffffffffffffffffffffffffffffffffffff161415611a6f576040517f08c379a0000000000000000000000000000000000000000000000000000000008152600401611a6690613d6c565b60405180910390fd5b611a7a838383612118565b611a856000826117f2565b6001600360008573ffffffffffffffffffffffffffffffffffffffff1673ffffffffffffffffffffffffffffffffffffffff1681526020019081526020016000206000828254611ad59190613dbb565b925050819055506001600360008473ffffffffffffffffffffffffffffffffffffffff1673ffffffffffffffffffffffffffffffffffffffff1681526020019081526020016000206000828254611b2c9190613def565b92505081905550816002600083815260200190815260200160002060006101000a81548173ffffffffffffffffffffffffffffffffffffffff021916908373ffffffffffffffffffffffffffffffffffffffff160217905550808273ffffffffffffffffffffffffffffffffffffffff168473ffffffffffffffffffffffffffffffffffffffff167fddf252ad1be2c89b69c2b068fc378daa952ba7f163c4a11628f55a4df523b3ef60405160405180910390a4505050565b60606000821415611c2d576040518060400160405280600181526020017f30000000000000000000000000000000000000000000000000000000000000008152509050611d41565b600082905060005b60008214611c5f578080611c4890613e45565b915050600a82611c589190613ebd565b9150611c35565b60008167ffffffffffffffff811115611c7b57611c7a612d16565b5b6040519080825280601f01601f191660200182016040528015611cad5781602001600182028036833780820191505090505b5090505b60008514611d3a57600182611cc69190613dbb565b9150600a85611cd59190613eee565b6030611ce19190613def565b60f81b818381518110611cf757611cf661357d565b5b60200101907effffffffffffffffffffffffffffffffffffffffffffffffffffffffffffff1916908160001a905350600a85611d339190613ebd565b9450611cb1565b8093505050505b919050565b611d6082826040518060200160405280600081525061222c565b5050565b6000600b60009054906101000a900473ffffffffffffffffffffffffffffffffffffffff16905081600b60006101000a81548173ffffffffffffffffffffffffffffffffffffffff021916908373ffffffffffffffffffffffffffffffffffffffff1602179055508173ffffffffffffffffffffffffffffffffffffffff168173ffffffffffffffffffffffffffffffffffffffff167f8be0079c531659141344cd1fd0a4f28419497f9722a3daafe3b4186f6b6457e060405160405180910390a35050565b8173ffffffffffffffffffffffffffffffffffffffff168373ffffffffffffffffffffffffffffffffffffffff161415611e99576040517f08c379a0000000000000000000000000000000000000000000000000000000008152600401611e9090613f6b565b60405180910390fd5b80600560008573ffffffffffffffffffffffffffffffffffffffff1673ffffffffffffffffffffffffffffffffffffffff16815260200190815260200160002060008473ffffffffffffffffffffffffffffffffffffffff1673ffffffffffffffffffffffffffffffffffffffff16815260200190815260200160002060006101000a81548160ff0219169083151502179055508173ffffffffffffffffffffffffffffffffffffffff168373ffffffffffffffffffffffffffffffffffffffff167f17307eab39ab6107e8899845ad3d59bd9653f200f220920489ca2b5937696c3183604051611f8a9190612a61565b60405180910390a3505050565b611fa2848484611989565b611fae84848484612287565b611fed576040517f08c379a0000000000000000000000000000000000000000000000000000000008152600401611fe490613ffd565b60405180910390fd5b50505050565b6060600c805461200290613173565b80601f016020809104026020016040519081016040528092919081815260200182805461202e90613173565b801561207b5780601f106120505761010080835404028352916020019161207b565b820191906000526020600020905b81548152906001019060200180831161205e57829003601f168201915b5050505050905090565b60008151905060006a636f6e736f6c652e6c6f679050602083016000808483855afa5050505050565b60007f01ffc9a7000000000000000000000000000000000000000000000000000000007bffffffffffffffffffffffffffffffffffffffffffffffffffffffff1916827bffffffffffffffffffffffffffffffffffffffffffffffffffffffff1916149050919050565b61212383838361241e565b600073ffffffffffffffffffffffffffffffffffffffff168373ffffffffffffffffffffffffffffffffffffffff1614156121665761216181612423565b6121a5565b8173ffffffffffffffffffffffffffffffffffffffff168373ffffffffffffffffffffffffffffffffffffffff16146121a4576121a3838261246c565b5b5b600073ffffffffffffffffffffffffffffffffffffffff168273ffffffffffffffffffffffffffffffffffffffff1614156121e8576121e3816125d9565b612227565b8273ffffffffffffffffffffffffffffffffffffffff168273ffffffffffffffffffffffffffffffffffffffff16146122265761222582826126aa565b5b5b505050565b6122368383612729565b6122436000848484612287565b612282576040517f08c379a000000000000000000000000000000000000000000000000000000000815260040161227990613ffd565b60405180910390fd5b505050565b60006122a88473ffffffffffffffffffffffffffffffffffffffff166128f7565b15612411578373ffffffffffffffffffffffffffffffffffffffff1663150b7a026122d16117ea565b8786866040518563ffffffff1660e01b81526004016122f39493929190614072565b602060405180830381600087803b15801561230d57600080fd5b505af192505050801561233e57506040513d601f19601f8201168201806040525081019061233b91906140d3565b60015b6123c1573d806000811461236e576040519150601f19603f3d011682016040523d82523d6000602084013e612373565b606091505b506000815114156123b9576040517f08c379a00000000000000000000000000000000000000000000000000000000081526004016123b090613ffd565b60405180910390fd5b805181602001fd5b63150b7a0260e01b7bffffffffffffffffffffffffffffffffffffffffffffffffffffffff1916817bffffffffffffffffffffffffffffffffffffffffffffffffffffffff191614915050612416565b600190505b949350505050565b505050565b6008805490506009600083815260200190815260200160002081905550600881908060018154018082558091505060019003906000526020600020016000909190919091505550565b60006001612479846110ad565b6124839190613dbb565b9050600060076000848152602001908152602001600020549050818114612568576000600660008673ffffffffffffffffffffffffffffffffffffffff1673ffffffffffffffffffffffffffffffffffffffff168152602001908152602001600020600084815260200190815260200160002054905080600660008773ffffffffffffffffffffffffffffffffffffffff1673ffffffffffffffffffffffffffffffffffffffff168152602001908152602001600020600084815260200190815260200160002081905550816007600083815260200190815260200160002081905550505b6007600084815260200190815260200160002060009055600660008573ffffffffffffffffffffffffffffffffffffffff1673ffffffffffffffffffffffffffffffffffffffff16815260200190815260200160002060008381526020019081526020016000206000905550505050565b600060016008805490506125ed9190613dbb565b905060006009600084815260200190815260200160002054905060006008838154811061261d5761261c61357d565b5b90600052602060002001549050806008838154811061263f5761263e61357d565b5b90600052602060002001819055508160096000838152602001908152602001600020819055506009600085815260200190815260200160002060009055600880548061268e5761268d614100565b5b6001900381819060005260206000200160009055905550505050565b60006126b5836110ad565b905081600660008573ffffffffffffffffffffffffffffffffffffffff1673ffffffffffffffffffffffffffffffffffffffff168152602001908152602001600020600083815260200190815260200160002081905550806007600084815260200190815260200160002081905550505050565b600073ffffffffffffffffffffffffffffffffffffffff168273ffffffffffffffffffffffffffffffffffffffff161415612799576040517f08c379a00000000000000000000000000000000000000000000000000000000081526004016127909061417b565b60405180910390fd5b6127a28161177e565b156127e2576040517f08c379a00000000000000000000000000000000000000000000000000000000081526004016127d9906141e7565b60405180910390fd5b6127ee60008383612118565b6001600360008473ffffffffffffffffffffffffffffffffffffffff1673ffffffffffffffffffffffffffffffffffffffff168152602001908152602001600020600082825461283e9190613def565b92505081905550816002600083815260200190815260200160002060006101000a81548173ffffffffffffffffffffffffffffffffffffffff021916908373ffffffffffffffffffffffffffffffffffffffff160217905550808273ffffffffffffffffffffffffffffffffffffffff16600073ffffffffffffffffffffffffffffffffffffffff167fddf252ad1be2c89b69c2b068fc378daa952ba7f163c4a11628f55a4df523b3ef60405160405180910390a45050565b600080823b905060008111915050919050565b82805461291690613173565b90600052602060002090601f016020900481019282612938576000855561297f565b82601f1061295157805160ff191683800117855561297f565b8280016001018555821561297f579182015b8281111561297e578251825591602001919060010190612963565b5b50905061298c9190612990565b5090565b5b808211156129a9576000816000905550600101612991565b5090565b6000604051905090565b600080fd5b600080fd5b60007fffffffff0000000000000000000000000000000000000000000000000000000082169050919050565b6129f6816129c1565b8114612a0157600080fd5b50565b600081359050612a13816129ed565b92915050565b600060208284031215612a2f57612a2e6129b7565b5b6000612a3d84828501612a04565b91505092915050565b60008115159050919050565b612a5b81612a46565b82525050565b6000602082019050612a766000830184612a52565b92915050565b600081519050919050565b600082825260208201905092915050565b60005b83811015612ab6578082015181840152602081019050612a9b565b83811115612ac5576000848401525b50505050565b6000601f19601f8301169050919050565b6000612ae782612a7c565b612af18185612a87565b9350612b01818560208601612a98565b612b0a81612acb565b840191505092915050565b60006020820190508181036000830152612b2f8184612adc565b905092915050565b6000819050919050565b612b4a81612b37565b8114612b5557600080fd5b50565b600081359050612b6781612b41565b92915050565b600060208284031215612b8357612b826129b7565b5b6000612b9184828501612b58565b91505092915050565b600073ffffffffffffffffffffffffffffffffffffffff82169050919050565b6000612bc582612b9a565b9050919050565b612bd581612bba565b82525050565b6000602082019050612bf06000830184612bcc565b92915050565b612bff81612bba565b8114612c0a57600080fd5b50565b600081359050612c1c81612bf6565b92915050565b60008060408385031215612c3957612c386129b7565b5b6000612c4785828601612c0d565b9250506020612c5885828601612b58565b9150509250929050565b612c6b81612b37565b82525050565b6000602082019050612c866000830184612c62565b92915050565b600080600060608486031215612ca557612ca46129b7565b5b6000612cb386828701612c0d565b9350506020612cc486828701612c0d565b9250506040612cd586828701612b58565b9150509250925092565b600060208284031215612cf557612cf46129b7565b5b6000612d0384828501612c0d565b91505092915050565b600080fd5b600080fd5b7f4e487b7100000000000000000000000000000000000000000000000000000000600052604160045260246000fd5b612d4e82612acb565b810181811067ffffffffffffffff82111715612d6d57612d6c612d16565b5b80604052505050565b6000612d806129ad565b9050612d8c8282612d45565b919050565b600067ffffffffffffffff821115612dac57612dab612d16565b5b612db582612acb565b9050602081019050919050565b82818337600083830152505050565b6000612de4612ddf84612d91565b612d76565b905082815260208101848484011115612e0057612dff612d11565b5b612e0b848285612dc2565b509392505050565b600082601f830112612e2857612e27612d0c565b5b8135612e38848260208601612dd1565b91505092915050565b600060208284031215612e5757612e566129b7565b5b600082013567ffffffffffffffff811115612e7557612e746129bc565b5b612e8184828501612e13565b91505092915050565b600060ff82169050919050565b612ea081612e8a565b8114612eab57600080fd5b50565b600081359050612ebd81612e97565b92915050565b6000819050919050565b612ed681612ec3565b8114612ee157600080fd5b50565b600081359050612ef381612ecd565b92915050565b600080600080600060a08688031215612f1557612f146129b7565b5b6000612f2388828901612b58565b9550506020612f3488828901612b58565b9450506040612f4588828901612eae565b9350506060612f5688828901612ee4565b9250506080612f6788828901612ee4565b9150509295509295909350565b612f7d81612a46565b8114612f8857600080fd5b50565b600081359050612f9a81612f74565b92915050565b60008060408385031215612fb757612fb66129b7565b5b6000612fc585828601612c0d565b9250506020612fd685828601612f8b565b9150509250929050565b600067ffffffffffffffff821115612ffb57612ffa612d16565b5b61300482612acb565b9050602081019050919050565b600061302461301f84612fe0565b612d76565b9050828152602081018484840111156130405761303f612d11565b5b61304b848285612dc2565b509392505050565b600082601f83011261306857613067612d0c565b5b8135613078848260208601613011565b91505092915050565b6000806000806080858703121561309b5761309a6129b7565b5b60006130a987828801612c0d565b94505060206130ba87828801612c0d565b93505060406130cb87828801612b58565b925050606085013567ffffffffffffffff8111156130ec576130eb6129bc565b5b6130f887828801613053565b91505092959194509250565b6000806040838503121561311b5761311a6129b7565b5b600061312985828601612c0d565b925050602061313a85828601612c0d565b9150509250929050565b7f4e487b7100000000000000000000000000000000000000000000000000000000600052602260045260246000fd5b6000600282049050600182168061318b57607f821691505b6020821081141561319f5761319e613144565b5b50919050565b7f4552433732313a20617070726f76656420717565727920666f72206e6f6e657860008201527f697374656e7420746f6b656e0000000000000000000000000000000000000000602082015250565b6000613201602c83612a87565b915061320c826131a5565b604082019050919050565b60006020820190508181036000830152613230816131f4565b9050919050565b7f4552433732313a20617070726f76616c20746f2063757272656e74206f776e6560008201527f7200000000000000000000000000000000000000000000000000000000000000602082015250565b6000613293602183612a87565b915061329e82613237565b604082019050919050565b600060208201905081810360008301526132c281613286565b9050919050565b7f4552433732313a20617070726f76652063616c6c6572206973206e6f74206f7760008201527f6e6572206e6f7220617070726f76656420666f7220616c6c0000000000000000602082015250565b6000613325603883612a87565b9150613330826132c9565b604082019050919050565b6000602082019050818103600083015261335481613318565b9050919050565b7f4552433732313a207472616e736665722063616c6c6572206973206e6f74206f60008201527f776e6572206e6f7220617070726f766564000000000000000000000000000000602082015250565b60006133b7603183612a87565b91506133c28261335b565b604082019050919050565b600060208201905081810360008301526133e6816133aa565b9050919050565b7f455243373231456e756d657261626c653a206f776e657220696e646578206f7560008201527f74206f6620626f756e6473000000000000000000000000000000000000000000602082015250565b6000613449602b83612a87565b9150613454826133ed565b604082019050919050565b600060208201905081810360008301526134788161343c565b9050919050565b7f4f776e61626c653a2063616c6c6572206973206e6f7420746865206f776e6572600082015250565b60006134b5602083612a87565b91506134c08261347f565b602082019050919050565b600060208201905081810360008301526134e4816134a8565b9050919050565b7f455243373231456e756d657261626c653a20676c6f62616c20696e646578206f60008201527f7574206f6620626f756e64730000000000000000000000000000000000000000602082015250565b6000613547602c83612a87565b9150613552826134eb565b604082019050919050565b600060208201905081810360008301526135768161353a565b9050919050565b7f4e487b7100000000000000000000000000000000000000000000000000000000600052603260045260246000fd5b7f4552433732313a206f776e657220717565727920666f72206e6f6e657869737460008201527f656e7420746f6b656e0000000000000000000000000000000000000000000000602082015250565b6000613608602983612a87565b9150613613826135ac565b604082019050919050565b60006020820190508181036000830152613637816135fb565b9050919050565b7f5265656e7472616e637947756172643a207265656e7472616e742063616c6c00600082015250565b6000613674601f83612a87565b915061367f8261363e565b602082019050919050565b600060208201905081810360008301526136a381613667565b9050919050565b600081905092915050565b7f546f6b656e49643a000000000000000000000000000000000000000000000000600082015250565b60006136eb6008836136aa565b91506136f6826136b5565b600882019050919050565b600061370c82612a7c565b61371681856136aa565b9350613726818560208601612a98565b80840191505092915050565b7f416464726573733a000000000000000000000000000000000000000000000000600082015250565b60006137686008836136aa565b915061377382613732565b600882019050919050565b60008160601b9050919050565b60006137968261377e565b9050919050565b60006137a88261378b565b9050919050565b6137c06137bb82612bba565b61379d565b82525050565b7f446561646c696e653a0000000000000000000000000000000000000000000000600082015250565b60006137fc6009836136aa565b9150613807826137c6565b600982019050919050565b600061381d826136de565b91506138298286613701565b91506138348261375b565b915061384082856137af565b60148201915061384f826137ef565b915061385b8284613701565b9150819050949350505050565b61387181612ec3565b82525050565b61388081612e8a565b82525050565b600060808201905061389b6000830187613868565b6138a86020830186613877565b6138b56040830185613868565b6138c26060830184613868565b95945050505050565b7f5369676e61747572652065787069726564000000000000000000000000000000600082015250565b6000613901601183612a87565b915061390c826138cb565b602082019050919050565b60006020820190508181036000830152613930816138f4565b9050919050565b7f4e6f7420656e6f7567682065746865722073656e740000000000000000000000600082015250565b600061396d601583612a87565b915061397882613937565b602082019050919050565b6000602082019050818103600083015261399c81613960565b9050919050565b60006040820190506139b86000830185612bcc565b6139c56020830184612c62565b9392505050565b7f4552433732313a2062616c616e636520717565727920666f7220746865207a6560008201527f726f206164647265737300000000000000000000000000000000000000000000602082015250565b6000613a28602a83612a87565b9150613a33826139cc565b604082019050919050565b60006020820190508181036000830152613a5781613a1b565b9050919050565b7f4552433732314d657461646174613a2055524920717565727920666f72206e6f60008201527f6e6578697374656e7420746f6b656e0000000000000000000000000000000000602082015250565b6000613aba602f83612a87565b9150613ac582613a5e565b604082019050919050565b60006020820190508181036000830152613ae981613aad565b9050919050565b6000613afc8285613701565b9150613b088284613701565b91508190509392505050565b7f4f776e61626c653a206e6577206f776e657220697320746865207a65726f206160008201527f6464726573730000000000000000000000000000000000000000000000000000602082015250565b6000613b70602683612a87565b9150613b7b82613b14565b604082019050919050565b60006020820190508181036000830152613b9f81613b63565b9050919050565b60006040820190508181036000830152613bc08185612adc565b9050613bcf6020830184612bcc565b9392505050565b7f4552433732313a206f70657261746f7220717565727920666f72206e6f6e657860008201527f697374656e7420746f6b656e0000000000000000000000000000000000000000602082015250565b6000613c32602c83612a87565b9150613c3d82613bd6565b604082019050919050565b60006020820190508181036000830152613c6181613c25565b9050919050565b7f4552433732313a207472616e73666572206f6620746f6b656e2074686174206960008201527f73206e6f74206f776e0000000000000000000000000000000000000000000000602082015250565b6000613cc4602983612a87565b9150613ccf82613c68565b604082019050919050565b60006020820190508181036000830152613cf381613cb7565b9050919050565b7f4552433732313a207472616e7366657220746f20746865207a65726f2061646460008201527f7265737300000000000000000000000000000000000000000000000000000000602082015250565b6000613d56602483612a87565b9150613d6182613cfa565b604082019050919050565b60006020820190508181036000830152613d8581613d49565b9050919050565b7f4e487b7100000000000000000000000000000000000000000000000000000000600052601160045260246000fd5b6000613dc682612b37565b9150613dd183612b37565b925082821015613de457613de3613d8c565b5b828203905092915050565b6000613dfa82612b37565b9150613e0583612b37565b9250827fffffffffffffffffffffffffffffffffffffffffffffffffffffffffffffffff03821115613e3a57613e39613d8c565b5b828201905092915050565b6000613e5082612b37565b91507fffffffffffffffffffffffffffffffffffffffffffffffffffffffffffffffff821415613e8357613e82613d8c565b5b600182019050919050565b7f4e487b7100000000000000000000000000000000000000000000000000000000600052601260045260246000fd5b6000613ec882612b37565b9150613ed383612b37565b925082613ee357613ee2613e8e565b5b828204905092915050565b6000613ef982612b37565b9150613f0483612b37565b925082613f1457613f13613e8e565b5b828206905092915050565b7f4552433732313a20617070726f766520746f2063616c6c657200000000000000600082015250565b6000613f55601983612a87565b9150613f6082613f1f565b602082019050919050565b60006020820190508181036000830152613f8481613f48565b9050919050565b7f4552433732313a207472616e7366657220746f206e6f6e20455243373231526560008201527f63656976657220696d706c656d656e7465720000000000000000000000000000602082015250565b6000613fe7603283612a87565b9150613ff282613f8b565b604082019050919050565b6000602082019050818103600083015261401681613fda565b9050919050565b600081519050919050565b600082825260208201905092915050565b60006140448261401d565b61404e8185614028565b935061405e818560208601612a98565b61406781612acb565b840191505092915050565b60006080820190506140876000830187612bcc565b6140946020830186612bcc565b6140a16040830185612c62565b81810360608301526140b38184614039565b905095945050505050565b6000815190506140cd816129ed565b92915050565b6000602082840312156140e9576140e86129b7565b5b60006140f7848285016140be565b91505092915050565b7f4e487b7100000000000000000000000000000000000000000000000000000000600052603160045260246000fd5b7f4552433732313a206d696e7420746f20746865207a65726f2061646472657373600082015250565b6000614165602083612a87565b91506141708261412f565b602082019050919050565b6000602082019050818103600083015261419481614158565b9050919050565b7f4552433732313a20746f6b656e20616c7265616479206d696e74656400000000600082015250565b60006141d1601c83612a87565b91506141dc8261419b565b602082019050919050565b60006020820190508181036000830152614200816141c4565b905091905056fea2646970667358221220162703aa901ab0c1c09087fb906b20fcddaf04e9817b09f105f037c6df1308f664736f6c63430008090033697066733a2f2f516d555648353174696779454e7a7755687354763134645637657961566f366f486f654344334a48443972466e562f",
  "linkReferences": {},
  "deployedLinkReferences": {}
}