{
  "_format": "hh-sol-artifact-1",
  "contractName": "PixelAvatars",
  "sourceName": "contracts/PixelAvatars.sol",
  "abi": [
    {
      "anonymous": false,
      "inputs": [
        {
          "indexed": true,
          "internalType": "address",
          "name": "owner",
          "type": "address"
        },
        {
          "indexed": true,
          "internalType": "address",
          "name": "approved",
          "type": "address"
        },
        {
          "indexed": true,
          "internalType": "uint256",
          "name": "tokenId",
          "type": "uint256"
        }
      ],
      "name": "Approval",
      "type": "event"
    },
    {
      "anonymous": false,
      "inputs": [
        {
          "indexed": true,
          "internalType": "address",
          "name": "owner",
          "type": "address"
        },
        {
          "indexed": true,
          "internalType": "address",
          "name": "operator",
          "type": "address"
        },
        {
          "indexed": false,
          "internalType": "bool",
          "name": "approved",
          "type": "bool"
        }
      ],
      "name": "ApprovalForAll",
      "type": "event"
    },
    {
      "anonymous": false,
      "inputs": [
        {
          "indexed": true,
          "internalType": "string",
          "name": "oldValue",
          "type": "string"
        },
        {
          "indexed": true,
          "internalType": "string",
          "name": "newValue",
          "type": "string"
        }
      ],
      "name": "BaseURIUpdated",
      "type": "event"
    },
    {
      "anonymous": false,
      "inputs": [
        {
          "indexed": true,
          "internalType": "address",
          "name": "minter",
          "type": "address"
        },
        {
          "indexed": true,
          "internalType": "uint256",
          "name": "tokenId",
          "type": "uint256"
        }
      ],
      "name": "LogTokenMinted",
      "type": "event"
    },
    {
      "anonymous": false,
      "inputs": [
        {
          "indexed": true,
          "internalType": "uint256",
          "name": "oldValue",
          "type": "uint256"
        },
        {
          "indexed": true,
          "internalType": "uint256",
          "name": "newValue",
          "type": "uint256"
        }
      ],
      "name": "MintPriceUpdated",
      "type": "event"
    },
    {
      "anonymous": false,
      "inputs": [
        {
          "indexed": true,
          "internalType": "address",
          "name": "previousOwner",
          "type": "address"
        },
        {
          "indexed": true,
          "internalType": "address",
          "name": "newOwner",
          "type": "address"
        }
      ],
      "name": "OwnershipTransferred",
      "type": "event"
    },
    {
      "anonymous": false,
      "inputs": [
        {
          "indexed": true,
          "internalType": "address",
          "name": "oldValue",
          "type": "address"
        },
        {
          "indexed": true,
          "internalType": "address",
          "name": "newValue",
          "type": "address"
        }
      ],
      "name": "ServerAddressUpdated",
      "type": "event"
    },
    {
      "anonymous": false,
      "inputs": [
        {
          "indexed": true,
          "internalType": "address",
          "name": "from",
          "type": "address"
        },
        {
          "indexed": true,
          "internalType": "address",
          "name": "to",
          "type": "address"
        },
        {
          "indexed": true,
          "internalType": "uint256",
          "name": "tokenId",
          "type": "uint256"
        }
      ],
      "name": "Transfer",
      "type": "event"
    },
    {
      "inputs": [
        {
          "internalType": "address",
          "name": "to",
          "type": "address"
        },
        {
          "internalType": "uint256",
          "name": "tokenId",
          "type": "uint256"
        }
      ],
      "name": "approve",
      "outputs": [],
      "stateMutability": "nonpayable",
      "type": "function"
    },
    {
      "inputs": [
        {
          "internalType": "address",
          "name": "owner",
          "type": "address"
        }
      ],
      "name": "balanceOf",
      "outputs": [
        {
          "internalType": "uint256",
          "name": "",
          "type": "uint256"
        }
      ],
      "stateMutability": "view",
      "type": "function"
    },
    {
      "inputs": [],
      "name": "baseURI",
      "outputs": [
        {
          "internalType": "string",
          "name": "",
          "type": "string"
        }
      ],
      "stateMutability": "view",
      "type": "function"
    },
    {
      "inputs": [
        {
          "internalType": "uint256",
          "name": "tokenId",
          "type": "uint256"
        }
      ],
      "name": "getApproved",
      "outputs": [
        {
          "internalType": "address",
          "name": "",
          "type": "address"
        }
      ],
      "stateMutability": "view",
      "type": "function"
    },
    {
      "inputs": [],
      "name": "initialize",
      "outputs": [],
      "stateMutability": "nonpayable",
      "type": "function"
    },
    {
      "inputs": [
        {
          "internalType": "address",
          "name": "owner",
          "type": "address"
        },
        {
          "internalType": "address",
          "name": "operator",
          "type": "address"
        }
      ],
      "name": "isApprovedForAll",
      "outputs": [
        {
          "internalType": "bool",
          "name": "",
          "type": "bool"
        }
      ],
      "stateMutability": "view",
      "type": "function"
    },
    {
      "inputs": [],
      "name": "mintPrice",
      "outputs": [
        {
          "internalType": "uint256",
          "name": "",
          "type": "uint256"
        }
      ],
      "stateMutability": "view",
      "type": "function"
    },
    {
      "inputs": [
        {
          "internalType": "uint256",
          "name": "tokenId",
          "type": "uint256"
        },
        {
          "internalType": "uint256",
          "name": "deadline",
          "type": "uint256"
        },
        {
          "internalType": "uint8",
          "name": "v",
          "type": "uint8"
        },
        {
          "internalType": "bytes32",
          "name": "r",
          "type": "bytes32"
        },
        {
          "internalType": "bytes32",
          "name": "s",
          "type": "bytes32"
        }
      ],
      "name": "mintWithSignature",
      "outputs": [],
      "stateMutability": "payable",
      "type": "function"
    },
    {
      "inputs": [],
      "name": "name",
      "outputs": [
        {
          "internalType": "string",
          "name": "",
          "type": "string"
        }
      ],
      "stateMutability": "view",
      "type": "function"
    },
    {
      "inputs": [],
      "name": "owner",
      "outputs": [
        {
          "internalType": "address",
          "name": "",
          "type": "address"
        }
      ],
      "stateMutability": "view",
      "type": "function"
    },
    {
      "inputs": [
        {
          "internalType": "uint256",
          "name": "tokenId",
          "type": "uint256"
        }
      ],
      "name": "ownerOf",
      "outputs": [
        {
          "internalType": "address",
          "name": "",
          "type": "address"
        }
      ],
      "stateMutability": "view",
      "type": "function"
    },
    {
      "inputs": [],
      "name": "renounceOwnership",
      "outputs": [],
      "stateMutability": "nonpayable",
      "type": "function"
    },
    {
      "inputs": [
        {
          "internalType": "address",
          "name": "from",
          "type": "address"
        },
        {
          "internalType": "address",
          "name": "to",
          "type": "address"
        },
        {
          "internalType": "uint256",
          "name": "tokenId",
          "type": "uint256"
        }
      ],
      "name": "safeTransferFrom",
      "outputs": [],
      "stateMutability": "nonpayable",
      "type": "function"
    },
    {
      "inputs": [
        {
          "internalType": "address",
          "name": "from",
          "type": "address"
        },
        {
          "internalType": "address",
          "name": "to",
          "type": "address"
        },
        {
          "internalType": "uint256",
          "name": "tokenId",
          "type": "uint256"
        },
        {
          "internalType": "bytes",
          "name": "_data",
          "type": "bytes"
        }
      ],
      "name": "safeTransferFrom",
      "outputs": [],
      "stateMutability": "nonpayable",
      "type": "function"
    },
    {
      "inputs": [],
      "name": "serverAddress",
      "outputs": [
        {
          "internalType": "address",
          "name": "",
          "type": "address"
        }
      ],
      "stateMutability": "view",
      "type": "function"
    },
    {
      "inputs": [
        {
          "internalType": "address",
          "name": "operator",
          "type": "address"
        },
        {
          "internalType": "bool",
          "name": "approved",
          "type": "bool"
        }
      ],
      "name": "setApprovalForAll",
      "outputs": [],
      "stateMutability": "nonpayable",
      "type": "function"
    },
    {
      "inputs": [
        {
          "internalType": "string",
          "name": "_newBaseURI",
          "type": "string"
        }
      ],
      "name": "setBaseURI",
      "outputs": [],
      "stateMutability": "nonpayable",
      "type": "function"
    },
    {
      "inputs": [
        {
          "internalType": "uint256",
          "name": "_newPrice",
          "type": "uint256"
        }
      ],
      "name": "setMintPrice",
      "outputs": [],
      "stateMutability": "nonpayable",
      "type": "function"
    },
    {
      "inputs": [
        {
          "internalType": "address",
          "name": "_address",
          "type": "address"
        }
      ],
      "name": "setServerAddress",
      "outputs": [],
      "stateMutability": "nonpayable",
      "type": "function"
    },
    {
      "inputs": [
        {
          "internalType": "bytes4",
          "name": "interfaceId",
          "type": "bytes4"
        }
      ],
      "name": "supportsInterface",
      "outputs": [
        {
          "internalType": "bool",
          "name": "",
          "type": "bool"
        }
      ],
      "stateMutability": "view",
      "type": "function"
    },
    {
      "inputs": [],
      "name": "symbol",
      "outputs": [
        {
          "internalType": "string",
          "name": "",
          "type": "string"
        }
      ],
      "stateMutability": "view",
      "type": "function"
    },
    {
      "inputs": [
        {
          "internalType": "uint256",
          "name": "index",
          "type": "uint256"
        }
      ],
      "name": "tokenByIndex",
      "outputs": [
        {
          "internalType": "uint256",
          "name": "",
          "type": "uint256"
        }
      ],
      "stateMutability": "view",
      "type": "function"
    },
    {
      "inputs": [
        {
          "internalType": "address",
          "name": "owner",
          "type": "address"
        },
        {
          "internalType": "uint256",
          "name": "index",
          "type": "uint256"
        }
      ],
      "name": "tokenOfOwnerByIndex",
      "outputs": [
        {
          "internalType": "uint256",
          "name": "",
          "type": "uint256"
        }
      ],
      "stateMutability": "view",
      "type": "function"
    },
    {
      "inputs": [
        {
          "internalType": "uint256",
          "name": "tokenId",
          "type": "uint256"
        }
      ],
      "name": "tokenURI",
      "outputs": [
        {
          "internalType": "string",
          "name": "",
          "type": "string"
        }
      ],
      "stateMutability": "view",
      "type": "function"
    },
    {
      "inputs": [],
      "name": "totalSupply",
      "outputs": [
        {
          "internalType": "uint256",
          "name": "",
          "type": "uint256"
        }
      ],
      "stateMutability": "view",
      "type": "function"
    },
    {
      "inputs": [
        {
          "internalType": "address",
          "name": "from",
          "type": "address"
        },
        {
          "internalType": "address",
          "name": "to",
          "type": "address"
        },
        {
          "internalType": "uint256",
          "name": "tokenId",
          "type": "uint256"
        }
      ],
      "name": "transferFrom",
      "outputs": [],
      "stateMutability": "nonpayable",
      "type": "function"
    },
    {
      "inputs": [
        {
          "internalType": "address",
          "name": "newOwner",
          "type": "address"
        }
      ],
      "name": "transferOwnership",
      "outputs": [],
      "stateMutability": "nonpayable",
      "type": "function"
    },
    {
      "inputs": [],
      "name": "withdraw",
      "outputs": [],
      "stateMutability": "nonpayable",
      "type": "function"
    }
  ],
  "bytecode": "0x608060405234801561001057600080fd5b50612ae3806100206000396000f3fe6080604052600436106101b75760003560e01c80636c0360eb116100ec578063a22cb4651161008a578063db420fe311610064578063db420fe31461049d578063e985e9c5146104be578063f2fde38b14610507578063f4a0a5281461052757600080fd5b8063a22cb4651461043d578063b88d4fde1461045d578063c87b56dd1461047d57600080fd5b8063715018a6116100c6578063715018a6146103e05780638129fc1c146103f55780638da5cb5b1461040a57806395d89b411461042857600080fd5b80636c0360eb1461039857806370485b66146103ad57806370a08231146103c057600080fd5b80633ccfd60b116101595780634f6ccce7116101335780634f6ccce71461032157806355f804b3146103415780636352211e146103615780636817c76c1461038157600080fd5b80633ccfd60b146102cc57806342842e0e146102e157806347b64eb01461030157600080fd5b8063095ea7b311610195578063095ea7b31461024b57806318160ddd1461026d57806323b872dd1461028c5780632f745c59146102ac57600080fd5b806301ffc9a7146101bc57806306fdde03146101f1578063081812fc14610213575b600080fd5b3480156101c857600080fd5b506101dc6101d7366004612424565b610547565b60405190151581526020015b60405180910390f35b3480156101fd57600080fd5b5061020661058b565b6040516101e89190612499565b34801561021f57600080fd5b5061023361022e3660046124ac565b61061d565b6040516001600160a01b0390911681526020016101e8565b34801561025757600080fd5b5061026b6102663660046124e1565b6106b7565b005b34801561027957600080fd5b506099545b6040519081526020016101e8565b34801561029857600080fd5b5061026b6102a736600461250b565b6107e9565b3480156102b857600080fd5b5061027e6102c73660046124e1565b610870565b3480156102d857600080fd5b5061026b610918565b3480156102ed57600080fd5b5061026b6102fc36600461250b565b6109a1565b34801561030d57600080fd5b5061026b61031c366004612547565b6109bc565b34801561032d57600080fd5b5061027e61033c3660046124ac565b610a74565b34801561034d57600080fd5b5061026b61035c3660046125ee565b610b18565b34801561036d57600080fd5b5061023361037c3660046124ac565b610be0565b34801561038d57600080fd5b5061027e61012e5481565b3480156103a457600080fd5b50610206610c6b565b61026b6103bb366004612637565b610cfa565b3480156103cc57600080fd5b5061027e6103db366004612547565b610f46565b3480156103ec57600080fd5b5061026b610fe0565b34801561040157600080fd5b5061026b611046565b34801561041657600080fd5b5060fb546001600160a01b0316610233565b34801561043457600080fd5b506102066111c5565b34801561044957600080fd5b5061026b610458366004612686565b6111d4565b34801561046957600080fd5b5061026b6104783660046126c2565b6111df565b34801561048957600080fd5b506102066104983660046124ac565b61126d565b3480156104a957600080fd5b5061012f54610233906001600160a01b031681565b3480156104ca57600080fd5b506101dc6104d936600461273e565b6001600160a01b039182166000908152606a6020908152604080832093909416825291909152205460ff1690565b34801561051357600080fd5b5061026b610522366004612547565b611356565b34801561053357600080fd5b5061026b6105423660046124ac565b611435565b60006001600160e01b031982167f780e9d630000000000000000000000000000000000000000000000000000000014806105855750610585826114c5565b92915050565b60606065805461059a90612771565b80601f01602080910402602001604051908101604052809291908181526020018280546105c690612771565b80156106135780601f106105e857610100808354040283529160200191610613565b820191906000526020600020905b8154815290600101906020018083116105f657829003601f168201915b5050505050905090565b6000818152606760205260408120546001600160a01b031661069b5760405162461bcd60e51b815260206004820152602c60248201527f4552433732313a20617070726f76656420717565727920666f72206e6f6e657860448201526b34b9ba32b73a103a37b5b2b760a11b60648201526084015b60405180910390fd5b506000908152606960205260409020546001600160a01b031690565b60006106c282610be0565b9050806001600160a01b0316836001600160a01b0316141561074c5760405162461bcd60e51b815260206004820152602160248201527f4552433732313a20617070726f76616c20746f2063757272656e74206f776e6560448201527f72000000000000000000000000000000000000000000000000000000000000006064820152608401610692565b336001600160a01b0382161480610768575061076881336104d9565b6107da5760405162461bcd60e51b815260206004820152603860248201527f4552433732313a20617070726f76652063616c6c6572206973206e6f74206f7760448201527f6e6572206e6f7220617070726f76656420666f7220616c6c00000000000000006064820152608401610692565b6107e48383611560565b505050565b6107f333826115ce565b6108655760405162461bcd60e51b815260206004820152603160248201527f4552433732313a207472616e736665722063616c6c6572206973206e6f74206f60448201527f776e6572206e6f7220617070726f7665640000000000000000000000000000006064820152608401610692565b6107e48383836116c5565b600061087b83610f46565b82106108ef5760405162461bcd60e51b815260206004820152602b60248201527f455243373231456e756d657261626c653a206f776e657220696e646578206f7560448201527f74206f6620626f756e64730000000000000000000000000000000000000000006064820152608401610692565b506001600160a01b03919091166000908152609760209081526040808320938352929052205490565b60fb546001600160a01b031633146109725760405162461bcd60e51b815260206004820181905260248201527f4f776e61626c653a2063616c6c6572206973206e6f7420746865206f776e65726044820152606401610692565b60405133904780156108fc02916000818181858888f1935050505015801561099e573d6000803e3d6000fd5b50565b6107e4838383604051806020016040528060008152506111df565b60fb546001600160a01b03163314610a165760405162461bcd60e51b815260206004820181905260248201527f4f776e61626c653a2063616c6c6572206973206e6f7420746865206f776e65726044820152606401610692565b61012f546040516001600160a01b038084169216907ff912d80f790352cec04776284193fee6ebc0be74bad184e0f96d9e97a5e8dc0990600090a361012f80546001600160a01b0319166001600160a01b0392909216919091179055565b6000610a7f60995490565b8210610af35760405162461bcd60e51b815260206004820152602c60248201527f455243373231456e756d657261626c653a20676c6f62616c20696e646578206f60448201527f7574206f6620626f756e647300000000000000000000000000000000000000006064820152608401610692565b60998281548110610b0657610b066127ac565b90600052602060002001549050919050565b60fb546001600160a01b03163314610b725760405162461bcd60e51b815260206004820181905260248201527f4f776e61626c653a2063616c6c6572206973206e6f7420746865206f776e65726044820152606401610692565b80604051610b8091906127c2565b604051809103902061012d604051610b9891906127de565b604051908190038120907f309b29ded109b9e28fb9885757b3e0096eb75c51d23aa4635d68bcd569f6adc190600090a38051610bdc9061012d906020840190612375565b5050565b6000818152606760205260408120546001600160a01b0316806105855760405162461bcd60e51b815260206004820152602960248201527f4552433732313a206f776e657220717565727920666f72206e6f6e657869737460448201527f656e7420746f6b656e00000000000000000000000000000000000000000000006064820152608401610692565b61012d8054610c7990612771565b80601f0160208091040260200160405190810160405280929190818152602001828054610ca590612771565b8015610cf25780601f10610cc757610100808354040283529160200191610cf2565b820191906000526020600020905b815481529060010190602001808311610cd557829003601f168201915b505050505081565b600260c9541415610d4d5760405162461bcd60e51b815260206004820152601f60248201527f5265656e7472616e637947756172643a207265656e7472616e742063616c6c006044820152606401610692565b600260c95584848484846000610d628661189d565b33610d6c8761189d565b604051602001610d7e9392919061287a565b60408051601f19818403018152828252805160208083019190912060008086529185018085525260ff881692840192909252606083018690526080830185905292509060019060a0016020604051602081039080840390855afa158015610de9573d6000803e3d6000fd5b505060408051601f1981015161012f54828401909352601882527f496e76616c696420736572766572207369676e617475726500000000000000006020830152935091506001600160a01b03808416911614610e585760405162461bcd60e51b81526004016106929190612499565b5085421115610ea95760405162461bcd60e51b815260206004820152601160248201527f5369676e617475726520657870697265640000000000000000000000000000006044820152606401610692565b3461012e541115610efc5760405162461bcd60e51b815260206004820152601560248201527f4e6f7420656e6f756768204d415449432073656e7400000000000000000000006044820152606401610692565b610f06338d6119cf565b6040518c9033907ff63a93365d60efe8aa58f99ad14d3d0689101e5ed3937e83089863d1812f4b6490600090a35050600160c95550505050505050505050565b60006001600160a01b038216610fc45760405162461bcd60e51b815260206004820152602a60248201527f4552433732313a2062616c616e636520717565727920666f7220746865207a6560448201527f726f2061646472657373000000000000000000000000000000000000000000006064820152608401610692565b506001600160a01b031660009081526068602052604090205490565b60fb546001600160a01b0316331461103a5760405162461bcd60e51b815260206004820181905260248201527f4f776e61626c653a2063616c6c6572206973206e6f7420746865206f776e65726044820152606401610692565b61104460006119e9565b565b600054610100900460ff166110615760005460ff1615611065565b303b155b6110d75760405162461bcd60e51b815260206004820152602e60248201527f496e697469616c697a61626c653a20636f6e747261637420697320616c72656160448201527f647920696e697469616c697a65640000000000000000000000000000000000006064820152608401610692565b600054610100900460ff161580156110f9576000805461ffff19166101011790555b61116d6040518060400160405280600d81526020017f506978656c2041766174617273000000000000000000000000000000000000008152506040518060400160405280600681526020017f50584c4445560000000000000000000000000000000000000000000000000000815250611a3b565b611175611ac0565b604051806060016040528060368152602001612a786036913980516111a39161012d91602090910190612375565b5067a688906bd8b0000061012e55801561099e576000805461ff001916905550565b60606066805461059a90612771565b610bdc338383611b3b565b6111e933836115ce565b61125b5760405162461bcd60e51b815260206004820152603160248201527f4552433732313a207472616e736665722063616c6c6572206973206e6f74206f60448201527f776e6572206e6f7220617070726f7665640000000000000000000000000000006064820152608401610692565b61126784848484611c0a565b50505050565b6000818152606760205260409020546060906001600160a01b03166112fa5760405162461bcd60e51b815260206004820152602f60248201527f4552433732314d657461646174613a2055524920717565727920666f72206e6f60448201527f6e6578697374656e7420746f6b656e00000000000000000000000000000000006064820152608401610692565b6000611304611c88565b90506000815111611324576040518060200160405280600081525061134f565b8061132e8461189d565b60405160200161133f92919061293b565b6040516020818303038152906040525b9392505050565b60fb546001600160a01b031633146113b05760405162461bcd60e51b815260206004820181905260248201527f4f776e61626c653a2063616c6c6572206973206e6f7420746865206f776e65726044820152606401610692565b6001600160a01b03811661142c5760405162461bcd60e51b815260206004820152602660248201527f4f776e61626c653a206e6577206f776e657220697320746865207a65726f206160448201527f64647265737300000000000000000000000000000000000000000000000000006064820152608401610692565b61099e816119e9565b60fb546001600160a01b0316331461148f5760405162461bcd60e51b815260206004820181905260248201527f4f776e61626c653a2063616c6c6572206973206e6f7420746865206f776e65726044820152606401610692565b61012e546040518291907f2e1c9e000c6e8dda4d03536adb13b7cb6034ccff90d17f01de381e4d5097b52590600090a361012e55565b60006001600160e01b031982167f80ac58cd00000000000000000000000000000000000000000000000000000000148061152857506001600160e01b031982167f5b5e139f00000000000000000000000000000000000000000000000000000000145b8061058557507f01ffc9a7000000000000000000000000000000000000000000000000000000006001600160e01b0319831614610585565b600081815260696020526040902080546001600160a01b0319166001600160a01b038416908117909155819061159582610be0565b6001600160a01b03167f8c5be1e5ebec7d5bd14f71427d1e84f3dd0314c0f7b2291e5b200ac8c7c3b92560405160405180910390a45050565b6000818152606760205260408120546001600160a01b03166116475760405162461bcd60e51b815260206004820152602c60248201527f4552433732313a206f70657261746f7220717565727920666f72206e6f6e657860448201526b34b9ba32b73a103a37b5b2b760a11b6064820152608401610692565b600061165283610be0565b9050806001600160a01b0316846001600160a01b0316148061168d5750836001600160a01b03166116828461061d565b6001600160a01b0316145b806116bd57506001600160a01b038082166000908152606a602090815260408083209388168352929052205460ff165b949350505050565b826001600160a01b03166116d882610be0565b6001600160a01b0316146117545760405162461bcd60e51b815260206004820152602960248201527f4552433732313a207472616e73666572206f6620746f6b656e2074686174206960448201527f73206e6f74206f776e00000000000000000000000000000000000000000000006064820152608401610692565b6001600160a01b0382166117cf5760405162461bcd60e51b8152602060048201526024808201527f4552433732313a207472616e7366657220746f20746865207a65726f2061646460448201527f72657373000000000000000000000000000000000000000000000000000000006064820152608401610692565b6117da838383611c98565b6117e5600082611560565b6001600160a01b038316600090815260686020526040812080546001929061180e908490612980565b90915550506001600160a01b038216600090815260686020526040812080546001929061183c908490612997565b909155505060008181526067602052604080822080546001600160a01b0319166001600160a01b0386811691821790925591518493918716917fddf252ad1be2c89b69c2b068fc378daa952ba7f163c4a11628f55a4df523b3ef91a4505050565b6060816118dd57505060408051808201909152600181527f3000000000000000000000000000000000000000000000000000000000000000602082015290565b8160005b811561190757806118f1816129af565b91506119009050600a836129e0565b91506118e1565b60008167ffffffffffffffff81111561192257611922612562565b6040519080825280601f01601f19166020018201604052801561194c576020820181803683370190505b5090505b84156116bd57611961600183612980565b915061196e600a866129f4565b611979906030612997565b60f81b81838151811061198e5761198e6127ac565b60200101907effffffffffffffffffffffffffffffffffffffffffffffffffffffffffffff1916908160001a9053506119c8600a866129e0565b9450611950565b610bdc828260405180602001604052806000815250611d50565b60fb80546001600160a01b038381166001600160a01b0319831681179093556040519116919082907f8be0079c531659141344cd1fd0a4f28419497f9722a3daafe3b4186f6b6457e090600090a35050565b600054610100900460ff16611aa65760405162461bcd60e51b815260206004820152602b60248201527f496e697469616c697a61626c653a20636f6e7472616374206973206e6f74206960448201526a6e697469616c697a696e6760a81b6064820152608401610692565b611aae611dce565b611ab6611dce565b610bdc8282611e39565b600054610100900460ff16611b2b5760405162461bcd60e51b815260206004820152602b60248201527f496e697469616c697a61626c653a20636f6e7472616374206973206e6f74206960448201526a6e697469616c697a696e6760a81b6064820152608401610692565b611b33611dce565b611044611ecb565b816001600160a01b0316836001600160a01b03161415611b9d5760405162461bcd60e51b815260206004820152601960248201527f4552433732313a20617070726f766520746f2063616c6c6572000000000000006044820152606401610692565b6001600160a01b038381166000818152606a6020908152604080832094871680845294825291829020805460ff191686151590811790915591519182527f17307eab39ab6107e8899845ad3d59bd9653f200f220920489ca2b5937696c31910160405180910390a3505050565b611c158484846116c5565b611c2184848484611f3f565b6112675760405162461bcd60e51b815260206004820152603260248201527f4552433732313a207472616e7366657220746f206e6f6e20455243373231526560448201527131b2b4bb32b91034b6b83632b6b2b73a32b960711b6064820152608401610692565b606061012d805461059a90612771565b6001600160a01b038316611cf357611cee81609980546000838152609a60205260408120829055600182018355919091527f72a152ddfb8e864297c917af52ea6c1c68aead0fee1a62673fcc7e0c94979d000155565b611d16565b816001600160a01b0316836001600160a01b031614611d1657611d168382612097565b6001600160a01b038216611d2d576107e481612134565b826001600160a01b0316826001600160a01b0316146107e4576107e482826121e3565b611d5a8383612227565b611d676000848484611f3f565b6107e45760405162461bcd60e51b815260206004820152603260248201527f4552433732313a207472616e7366657220746f206e6f6e20455243373231526560448201527131b2b4bb32b91034b6b83632b6b2b73a32b960711b6064820152608401610692565b600054610100900460ff166110445760405162461bcd60e51b815260206004820152602b60248201527f496e697469616c697a61626c653a20636f6e7472616374206973206e6f74206960448201526a6e697469616c697a696e6760a81b6064820152608401610692565b600054610100900460ff16611ea45760405162461bcd60e51b815260206004820152602b60248201527f496e697469616c697a61626c653a20636f6e7472616374206973206e6f74206960448201526a6e697469616c697a696e6760a81b6064820152608401610692565b8151611eb7906065906020850190612375565b5080516107e4906066906020840190612375565b600054610100900460ff16611f365760405162461bcd60e51b815260206004820152602b60248201527f496e697469616c697a61626c653a20636f6e7472616374206973206e6f74206960448201526a6e697469616c697a696e6760a81b6064820152608401610692565b611044336119e9565b60006001600160a01b0384163b1561208c57604051630a85bd0160e11b81526001600160a01b0385169063150b7a0290611f83903390899088908890600401612a08565b602060405180830381600087803b158015611f9d57600080fd5b505af1925050508015611fcd575060408051601f3d908101601f19168201909252611fca91810190612a44565b60015b612072573d808015611ffb576040519150601f19603f3d011682016040523d82523d6000602084013e612000565b606091505b50805161206a5760405162461bcd60e51b815260206004820152603260248201527f4552433732313a207472616e7366657220746f206e6f6e20455243373231526560448201527131b2b4bb32b91034b6b83632b6b2b73a32b960711b6064820152608401610692565b805181602001fd5b6001600160e01b031916630a85bd0160e11b1490506116bd565b506001949350505050565b600060016120a484610f46565b6120ae9190612980565b600083815260986020526040902054909150808214612101576001600160a01b03841660009081526097602090815260408083208584528252808320548484528184208190558352609890915290208190555b5060009182526098602090815260408084208490556001600160a01b039094168352609781528383209183525290812055565b60995460009061214690600190612980565b6000838152609a60205260408120546099805493945090928490811061216e5761216e6127ac565b90600052602060002001549050806099838154811061218f5761218f6127ac565b6000918252602080832090910192909255828152609a909152604080822084905585825281205560998054806121c7576121c7612a61565b6001900381819060005260206000200160009055905550505050565b60006121ee83610f46565b6001600160a01b039093166000908152609760209081526040808320868452825280832085905593825260989052919091209190915550565b6001600160a01b03821661227d5760405162461bcd60e51b815260206004820181905260248201527f4552433732313a206d696e7420746f20746865207a65726f20616464726573736044820152606401610692565b6000818152606760205260409020546001600160a01b0316156122e25760405162461bcd60e51b815260206004820152601c60248201527f4552433732313a20746f6b656e20616c7265616479206d696e746564000000006044820152606401610692565b6122ee60008383611c98565b6001600160a01b0382166000908152606860205260408120805460019290612317908490612997565b909155505060008181526067602052604080822080546001600160a01b0319166001600160a01b03861690811790915590518392907fddf252ad1be2c89b69c2b068fc378daa952ba7f163c4a11628f55a4df523b3ef908290a45050565b82805461238190612771565b90600052602060002090601f0160209004810192826123a357600085556123e9565b82601f106123bc57805160ff19168380011785556123e9565b828001600101855582156123e9579182015b828111156123e95782518255916020019190600101906123ce565b506123f59291506123f9565b5090565b5b808211156123f557600081556001016123fa565b6001600160e01b03198116811461099e57600080fd5b60006020828403121561243657600080fd5b813561134f8161240e565b60005b8381101561245c578181015183820152602001612444565b838111156112675750506000910152565b60008151808452612485816020860160208601612441565b601f01601f19169290920160200192915050565b60208152600061134f602083018461246d565b6000602082840312156124be57600080fd5b5035919050565b80356001600160a01b03811681146124dc57600080fd5b919050565b600080604083850312156124f457600080fd5b6124fd836124c5565b946020939093013593505050565b60008060006060848603121561252057600080fd5b612529846124c5565b9250612537602085016124c5565b9150604084013590509250925092565b60006020828403121561255957600080fd5b61134f826124c5565b634e487b7160e01b600052604160045260246000fd5b600067ffffffffffffffff8084111561259357612593612562565b604051601f8501601f19908116603f011681019082821181831017156125bb576125bb612562565b816040528093508581528686860111156125d457600080fd5b858560208301376000602087830101525050509392505050565b60006020828403121561260057600080fd5b813567ffffffffffffffff81111561261757600080fd5b8201601f8101841361262857600080fd5b6116bd84823560208401612578565b600080600080600060a0868803121561264f57600080fd5b8535945060208601359350604086013560ff8116811461266e57600080fd5b94979396509394606081013594506080013592915050565b6000806040838503121561269957600080fd5b6126a2836124c5565b9150602083013580151581146126b757600080fd5b809150509250929050565b600080600080608085870312156126d857600080fd5b6126e1856124c5565b93506126ef602086016124c5565b925060408501359150606085013567ffffffffffffffff81111561271257600080fd5b8501601f8101871361272357600080fd5b61273287823560208401612578565b91505092959194509250565b6000806040838503121561275157600080fd5b61275a836124c5565b9150612768602084016124c5565b90509250929050565b600181811c9082168061278557607f821691505b602082108114156127a657634e487b7160e01b600052602260045260246000fd5b50919050565b634e487b7160e01b600052603260045260246000fd5b600082516127d4818460208701612441565b9190910192915050565b600080835481600182811c9150808316806127fa57607f831692505b602080841082141561281a57634e487b7160e01b86526022600452602486fd5b81801561282e576001811461283f5761286c565b60ff1986168952848901965061286c565b60008a81526020902060005b868110156128645781548b82015290850190830161284b565b505084890196505b509498975050505050505050565b7f546f6b656e49643a0000000000000000000000000000000000000000000000008152600084516128b2816008850160208901612441565b7f416464726573733a000000000000000000000000000000000000000000000000600891840191820152606085901b6bffffffffffffffffffffffff191660108201527f446561646c696e653a00000000000000000000000000000000000000000000006024820152835161292e81602d840160208801612441565b01602d0195945050505050565b6000835161294d818460208801612441565b835190830190612961818360208801612441565b01949350505050565b634e487b7160e01b600052601160045260246000fd5b6000828210156129925761299261296a565b500390565b600082198211156129aa576129aa61296a565b500190565b60006000198214156129c3576129c361296a565b5060010190565b634e487b7160e01b600052601260045260246000fd5b6000826129ef576129ef6129ca565b500490565b600082612a0357612a036129ca565b500690565b60006001600160a01b03808716835280861660208401525083604083015260806060830152612a3a608083018461246d565b9695505050505050565b600060208284031215612a5657600080fd5b815161134f8161240e565b634e487b7160e01b600052603160045260246000fdfe697066733a2f2f516d514b384d5963616653524c58544738617a77547335314237766a37695a475678477864454877554d445855512fa2646970667358221220d5b49ddd0f806a65b570ca5f22ee222f36e7df3e7da2b3c89b8ee63c4c40054f64736f6c63430008090033",
  "linkReferences": {},
  "deployedLinkReferences": {}
}